:100000000C9478080C94A0080C94A0080C94A008F8
:100010000C94A0080C94A0080C94A0080C94A008C0
:100020000C94A0080C94A0080C94A0080C94A008B0
:100030000C94A0080C94A0080C94A0080C94A008A0
:100040000C94A0080C94A0080C94A0080C94DD0A51
:100050000C94A0084E0C5B0C680C750C820C8F0C79
:100060009C0CA90CB60CC30CD00CDD0CEA0CF70CE4
:10007000040D110D05A84CCDB2D44EB93836A902E5
:100080000C50B9918688083CA6AAAA2ABE00000096
:10009000803F1010205F0000000000000000000002
:1000A0000000000000000000000000000000000050
:1000B0000000000000000000000007000F800F801B
:1000C0000F800F800F80070007000000000007006E
:1000D00007000700000000000E380E380E380E38FA
:1000E00006300000000000000000000000000000DA
:1000F00000000000000000000C300C300C307FFECF
:100100007FFE0C300C300C300C307FFE7FFE0C304C
:100110000C300C3000000000024002400FF81FF8C5
:100120001A401A401FF00FF8025802581FF81FF02B
:100130000240024000000000000000000E100E30DF
:100140000E7000E001C0038007000E700C70087094
:10015000000000000000000000000F00198019805E
:1001600019800F000F080F9819F818F018E019F00F
:100170000F980000000000000000070007000700C3
:100180000E00000000000000000000000000000061
:100190000000000000000000000000F001C003802B
:1001A00007000E000E000E000E000700038001C0C5
:1001B00000F000000000000000000F00038001C0FC
:1001C00000E0007000700070007000E001C003806B
:1001D0000F0000000000000000000180118809905D
:1001E00007E007E03FFC3FFC07E007E009901188CB
:1001F00001800000000000000000000000000180FD
:10020000018001800FF00FF001800180018000006B
:1002100000000000000000000000000000000000DE
:1002200000000000000000000000000007000700C0
:1002300007000E00000000000000000000000000A9
:10024000000000001FF81FF8000000000000000080
:10025000000000000000000000000000000000009E
:100260000000000000000000000000000700070080
:100270000700000000000000000000020006000E61
:10028000001C0038007000E001C0038007000E0071
:100290001C0000000000000000000FF01C381C785B
:1002A0001CF81CF81DB81DB81F381F381E381C3824
:1002B0000FF00000000000000000018001800380BA
:1002C0001F801F80038003800380038003800380DE
:1002D0001FF000000000000000000FE01C701C3840
:1002E0000038007000E001C0038007000E381C38A1
:1002F0001FF800000000000000000FE01C701C3818
:100300000038007003C003C0007000381C381C7037
:100310000FE0000000000000000000E001E003E04A
:1003200006E00CE018E01FF81FF800E000E000E035
:1003300003F800000000000000001FF81C001C0073
:100340001C001C001FE01FF0007800381C381C70D7
:100350000FE0000000000000000003E007000E00B6
:100360001C001C001FF01FF81C381C381C381C38DF
:100370000FF000000000000000001FFC1C1C1C1CF3
:100380001C1C001C0038007000E001C003800380CA
:10039000038000000000000000000FF01C381C3833
:1003A0001C381F3807E007E01CF81C381C381C38C4
:1003B0000FF000000000000000000FF01C381C3897
:1003C0001C381C381FF80FF800380038007000E0A7
:1003D00007C00000000000000000000000000380D3
:1003E000038003800000000003800380038000007E
:1003F000000000000000000000000000000003807A
:100400000380038000000000038003800380070056
:100410000000000000000000007000E001C0038048
:1004200007000E001C001C000E000700038001C026
:1004300000E000700000000000000000000000006C
:100440003FFC3FFC000000003FFC3FFC00000000C0
:1004500000000000000000001C000E0007000380E8
:1004600001C000E00070007000E001C003800700E0
:100470000E001C000000000003C00FF01E781838AA
:100480000038007000E001C001C00000000001C0A1
:1004900001C001C0000000000FF81C1C1C1C1C1C2B
:1004A0001C1C1CFC1CFC1CFC1CFC1C001C001C0060
:1004B0001FF007F800000000000003C007E00E7006
:1004C0001C381C381C381C381FF81C381C381C38C9
:1004D0001C3800000000000000001FF00E380E382D
:1004E0000E380E380FF00FF00E380E380E380E386A
:1004F0001FF0000000000000000007F00E381C385C
:100500001C001C001C001C001C001C001C380E38A9
:1005100007F000000000000000001FE00E700E3821
:100520000E380E380E380E380E380E380E380E7063
:100530001FE000000000000000001FF80E180E0869
:100540000E000E300FF00FF00E300E000E080E18D9
:100550001FF800000000000000001FF80E180E0831
:100560000E000E300FF00FF00E300E000E000E00D9
:100570001F00000000000000000007F00E381C38CB
:100580001C381C001C001C001CF81C381C380E38C1
:1005900007F800000000000000001C701C701C70B8
:1005A0001C701C701FF01FF01C701C701C701C70E5
:1005B0001C7000000000000000000FE003800380BA
:1005C0000380038003800380038003800380038013
:1005D0000FE0000000000000000001FC007000704F
:1005E00000700070007000703870387038703870AB
:1005F0000FE000000000000000001E380E380E70F2
:100600000EE00FC00F800F800FC00EE00E700E388E
:100610001E3800000000000000001F000E000E0049
:100620000E000E000E000E000E000E080E180E3802
:100630001FF800000000000000001C1C1E3C1F7C76
:100640001FFC1FFC1DDC1C9C1C1C1C1C1C1C1C1CE3
:100650001C1C00000000000000001C1C1C1C1E1CB8
:100660001F1C1F9C1DDC1CFC1C7C1C3C1C1C1C1C23
:100670001C1C000000000000000003E007F00E3822
:100680001C1C1C1C1C1C1C1C1C1C1C1C0E3807F0DD
:1006900003E000000000000000001FF00E380E38DC
:1006A0000E380E380FF00FF00E000E000E000E0088
:1006B0001F00000000000000000003E00F780E386B
:1006C0001C1C1C1C1C1C1C1C1C7C1CFC0FF80FF88C
:1006D000003800FC0000000000001FF00E380E384B
:1006E0000E380E380FF00FF00E700E380E380E3830
:1006F0001E3800000000000000000FF01C381C38FD
:100700001C381C000FE007F000381C381C381C385F
:100710000FF000000000000000001FFC19CC11C405
:1007200001C001C001C001C001C001C001C001C0C1
:1007300007F000000000000000001C701C701C701E
:100740001C701C701C701C701C701C701C701C7049
:100750000FE000000000000000001C701C701C7006
:100760001C701C701C701C701C701C700EE007C08C
:10077000038000000000000000001C1C1C1C1C1C4E
:100780001C1C1C1C1C9C1C9C1C9C0FF80FF807704C
:10079000077000000000000000001C701C701C703E
:1007A0000EE007C00380038007C00EE01C701C70C1
:1007B0001C7000000000000000001C701C701C7009
:1007C0001C701C700EE007C0038003800380038050
:1007D0000FE000000000000000001FF81C3818386F
:1007E000107000E001C0038007000E081C181C38C0
:1007F0001FF8000000000000000007F007000700DD
:1008000007000700070007000700070007000700B0
:1008100007F00000000000000000100018001C009D
:100820000E000700038001C000E000700038001CCB
:100830000007000000000000000007F000700070DA
:100840000070007000700070007000700070007028
:1008500007F0000000000000018003C007E00E70F8
:100860001C38000000000000000000000000000034
:100870000000000000000000000000000000000078
:100880000000000000000000000000000000000068
:1008900000007FFF7FFF000000001C001C0007001D
:1008A0000700000000000000000000000000000041
:1008B0000000000000000000000000000000000038
:1008C00000000FE0007000700FF01C701C701C70B6
:1008D0000FD800000000000000001E000E000E00F7
:1008E0000E000FF00E380E380E380E380E380E3857
:1008F0001BF00000000000000000000000000000ED
:1009000000000FE01C701C701C001C001C701C7090
:100910000FE0000000000000000000F80070007010
:1009200000700FF01C701C701C701C701C701C7010
:100930000FD80000000000000000000000000000D0
:1009400000000FE01C701C701FF01C001C701C705D
:100950000FE0000000000000000003E007700770D7
:10096000070007001FE01FE007000700070007005F
:100970001FC0000000000000000000000000000098
:1009800000000FD81C701C701C701C700FF007F05A
:1009900000701C700FE0000000001E000E000E0032
:1009A0000E000EF00F380F380E380E380E380E3895
:1009B0001E38000000000000000001C001C001C09E
:1009C00000000FC001C001C001C001C001C001C0D2
:1009D0000FF80000000000000000007000700070C0
:1009E000000003F000700070007000700070007074
:1009F0001C700CF007E0000000001E000E000E004E
:100A00000E000E380E700EE00FC00EE00E700E38A5
:100A10001E3800000000000000000FC001C001C02F
:100A200001C001C001C001C001C001C001C001C0BE
:100A30000FF80000000000000000000000000000AF
:100A400000001FF81C9C1C9C1C9C1C9C1C9C1C9C3F
:100A50001C9C0000000000000000000000000000DE
:100A600000001FE01C701C701C701C701C701C703F
:100A70001C700000000000000000000000000000EA
:100A800000000FE01C701C701C701C701C701C702F
:100A90000FE0000000000000000000000000000067
:100AA00000001BF00E380E380E380E380E380FF0DE
:100AB0000E000E001F0000000000000000000000FB
:100AC00000001FB038E038E038E038E038E01FE0E0
:100AD00000E000E001F00000000000000000000065
:100AE00000001EF00FF80F380E000E000E000E0072
:100AF0001F000000000000000000000000000000D7
:100B000000000FE01C301C300F8003E018701870DC
:100B10000FE00000000000000000000001000300E2
:100B200007001FF0070007000700070007700770A5
:100B300003E00000000000000000000000000000D2
:100B400000001C701C701C701C701C701C701C70D1
:100B50000FD80000000000000000000000000000AE
:100B600000001C701C701C701C701C700EE007C014
:100B700003800000000000000000000000000000F2
:100B800000001C1C1C1C1C1C1C9C1C9C0FF80770CF
:100B900007700000000000000000000000000000DE
:100BA00000001CE01CE00FC0078007800FC01CE0A5
:100BB0001CE0000000000000000000000000000039
:100BC00000000E380E380E380E380E3807F003E0ED
:100BD00000E001C01F8000000000000000000000D5
:100BE00000001FE018E011C0038007000E201C6009
:100BF0001FE0000000000000000001F803800380F7
:100C0000038007001C001C00070003800380038092
:100C100001F800000000000001C001C001C001C0D7
:100C200001C001C001C001C001C001C001C001C0BC
:100C300001C001C00000000000001F8001C001C011
:100C400001C000E00038003800E001C001C001C070
:100C50001F8000000000000000001F1C3B9C39DCCE
:100C600038F8000000000000000000000000000054
:100C7000000000000000080C205F000000000000E1
:100C80000000000000000000202020202020002084
:100C9000000000285050000000000000000000008C
:100CA0002828FC2850FC50500000002078A8A060A4
:100CB0003028A8F02000000048A8B050283454483C
:100CC0000000000020505078A8A8906C0000004060
:100CD0004080000000000000000000040810101018
:100CE00010101008040000402010101010101020E8
:100CF000400000000020A87070A820000000000044
:100D0000202020F82020200000000000000000002B
:100D10000000004040800000000000F800000000DB
:100D2000000000000000000000000040000000087B
:100D300010101020204040408000000070888888FB
:100D4000888888700000000020602020202020700B
:100D50000000000070888810204080F8000000002B
:100D6000708808300808887000000000103050506B
:100D70009078101800000000F88080F00808887053
:100D800000000000709080F08888887000000000EB
:100D9000F89010202020202000000000708888702B
:100DA00088888870000000007088888878084870FB
:100DB00000000000000020000000002000000000F3
:100DC0000000002000000020200000040810204047
:100DD00020100804000000000000F80000F80000E7
:100DE000000000402010080408102040000000000F
:100DF000708888102020002000000000708898A8CB
:100E0000A8B880780000000020203050507848CCEE
:100E100000000000F0484870484848F0000000001A
:100E2000788880808080887000000000F048484802
:100E3000484848F000000000F8485070504048F81A
:100E400000000000F8485070504040E000000000F2
:100E5000384880809C88483000000000CC484878A2
:100E6000484848CC00000000F8202020202020F82E
:100E7000000000007C10101010101090E000000026
:100E8000EC485060505048EC00000000E04040400A
:100E9000404044FC00000000D8D8D8D8A8A8A8A892
:100EA00000000000DC486868585848E8000000006E
:100EB000708888888888887000000000F048487032
:100EC000404040E0000000007088888888E8987002
:100ED00018000000F0484870504848EC000000003E
:100EE00078888060100888F000000000F8A82020B2
:100EF0002020207000000000CC4848484848483076
:100F000000000000CC484850503020200000000075
:100F1000A8A8A8705050505000000000D850502091
:100F2000205050D800000000D850502020202070C1
:100F300000000000F8901020204048F80000003821
:100F40002020202020202020380000404040202069
:100F50001010100800000070101010101010101069
:100F600070000020500000000000000000000000A1
:100F7000000000000000000000FC00200000000055
:100F80000000000000000000000000304838483C2D
:100F900000000000C0404070484848700000000059
:100FA00000000038484040380000000018080838A9
:100FB0004848483C000000000000003048784038B5
:100FC000000000001C202078202020780000000075
:100FD0000000003C4830407844380000C040407079
:100FE000484848EC000000002000006020202070ED
:100FF00000000000100000301010101010E0000081
:10100000C040405C507048EC00000000E020202010
:10101000202020F800000000000000F0A8A8A8A8E8
:1010200000000000000000F0484848EC000000000C
:10103000000000304848483000000000000000F088
:101040004848487040E000000000003848484838F0
:10105000081C0000000000D8604040E000000000D4
:101060000000007840300878000000000020207068
:101070002020201800000000000000D84848483C0C
:1010800000000000000000EC48503020000000008C
:10109000000000A8A870505000000000000000D818
:1010A000502050D800000000000000EC48503020D4
:1010B00020C00000000000781020207800000018F8
:1010C0001010102010101010180010101010101018
:1010D0001010101010100060202020102020202060
:1010E000600040A418000000000000000000F8129A
:1010F00011241FBECFE5D4E0DEBFCDBF11E0A0E6D6
:10110000B0E0E8EAFCE302C005900D92AE33B1070F
:10111000D9F721E0AEE3B1E001C01D92AF37B207CD
:10112000E1F718E0C8E7D8E004C02197FE010E946B
:10113000BA1DC737D107C9F70E949B120C94521EE3
:101140000C940000A5B3BA2F6894A6F9E894B6F9F8
:10115000FB01059007FA1EF442BB5BBB02C022BB39
:101160003BBBB5BBA5BB06FA1EF442BB5BBB02C0D2
:1011700022BB3BBBB5BBA5BB05FA1EF442BB5BBBA8
:1011800002C022BB3BBBB5BBA5BB04FA1EF442BBED
:101190005BBB02C022BB3BBBB5BBA5BB03FA1EF4C5
:1011A00042BB5BBB02C022BB3BBBB5BBA5BB02FACB
:1011B0001EF442BB5BBB02C022BB3BBBB5BBA5BBA5
:1011C00001FA1EF442BB5BBB02C022BB3BBBB5BBFA
:1011D000A5BB00FA1EF442BB5BBB02C022BB3BBBFB
:1011E000B5BBA5BB815090408030910511F00C94A7
:1011F000A9080895A5B3BA2F6894A6F9E894B6F99A
:10120000FB0105900BBA059002BAB5BBA5BB815096
:1012100090408030910511F00C9401090895A5B318
:10122000BA2F6894A6F9E894B6F9FC011124259127
:101230002030A9F027FB56F42F7705900BBA0590C4
:1012400002BAB5BBA5BB2A95E1F7F1CF05900BBA61
:10125000059002BAB5BBA5BB2A95C1F7E8CF00241B
:1012600008952227869577956795279576956795B2
:101270002795769567952795769567952795229575
:10128000CB01E5B3FE2F6894E6F9E894F6F90097F0
:1012900011F1F5BBE5BBF5BBE5BBF5BBE5BBF5BBAC
:1012A000E5BBF5BBE5BBF5BBE5BBF5BBE5BBF5BBFE
:1012B000E5BBF5BBE5BBF5BBE5BBF5BBE5BBF5BBEE
:1012C000E5BBF5BBE5BBF5BBE5BBF5BBE5BBF5BBDE
:1012D000E5BB0197F1F6203021F0F5BBE5BB2A957F
:1012E000E1F70895AE98AE9A61507040804090400A
:1012F000C9F70895AF98112482BB1BBAAE98AE9A75
:101300000895AF9A62BB8BBBAE98AE9A0895AF9A20
:10131000112482BB1BBAAE98AE9A0895AF981124DF
:1013200082BB1BBAAE98AE9AAF9A62BB7BBBAE983B
:10133000AE9A08958BBB62BBAE98AE9A08950197A2
:1013400039F46F3F7F4F21F48CE691E00E94261420
:101350000895B39902C081E0089580E00895CF9286
:10136000DF92EF92FF9280E90E940E130E94131306
:10137000682F70E080E090E00E94A81B20E030E041
:1013800040EF52E40E94FE1A20E030E040EA53E4CD
:101390000E94971C20E030E040E751E40E94871A49
:1013A0006B017C0180E00E940E138FEF97E40197A0
:1013B000F1F700C00000C701B6010E94771BCB0106
:1013C000FF90EF90DF90CF900895CF92DF92EF9251
:1013D000FF92C12CD12C760120E030E0A901C70199
:1013E000B6010E94F41A1816ECF080ED0E940E135C
:1013F0000E941313682F70E080E090E00E94A81B09
:1014000020E030E040EF52E40E94FE1A20E030E09D
:1014100040E753E40E94971C6B017C0180E00E942E
:101420000E13DACF8FEF97E40197F1F700C00000B9
:10143000C701B6010E94771BCB01FF90EF90DF90B0
:10144000CF900895AF92BF92CF92EF92FF920F93F9
:101450001F93CF93DF9320E040E060E08CE691E0C3
:101460000E94161508EC10E02DE230E04FE950E044
:1014700060E070E08CE691E00E9480142FEF4FEF67
:101480006FEF8CE691E00E94161580913F01882352
:1014900009F452C00F2EF4E4AF2EF1E0BF2EF02D70
:1014A000F50121818091640090E0821B9109CCE3D9
:1014B000D0E0BE010E94651DAB01770F660B770B74
:1014C0006894CC24C5F8E12CF12C00EA10E020E06F
:1014D00030E08CE691E00E94641900E010E020EA20
:1014E00030E04EE150E06AE670E08CE691E00E9468
:1014F0008918F50121818091640090E0821B910997
:10150000BE010E94651DAC01990F660B770B04EBC1
:1015100010E020E030E08CE691E00E94641900E0E9
:1015200010E024EB30E04EE150E062E770E08CE642
:1015300091E00E94891837C0C4E4D1E0488150E0AE
:1015400060E070E06894CC24C5F8E12CF12C00EA4E
:1015500010E020E030E08CE691E00E94641900E0A9
:1015600010E020EA30E04EE150E06AE670E08CE600
:1015700091E00E948918498150E060E070E004EB3E
:1015800010E020E030E08CE691E00E94641900E079
:1015900010E024EB30E04EE150E062E770E08CE6D2
:1015A00091E00E948918DF91CF911F910F91FF90D8
:1015B000EF90CF90BF90AF9008951F920F920FB60B
:1015C0000F9211242F933F934F935F936F937F93C9
:1015D0008F939F93AF93BF93EF93FF9380914301BA
:1015E0008823A9F180913E01833089F1E4E4F1E0A0
:1015F00082818F5F8283843691F4128281818F5F32
:1016000081838C3321F4118280818F5F808380916C
:1016100044018C3311F4109244010E94220A8091FB
:101620003F018823A1F0E4E4F1E02081809164008F
:1016300090E03CE3239F8019910911242181821BB2
:101640009109181619061CF083E080933E01FF9162
:10165000EF91BF91AF919F918F917F916F915F912A
:101660004F913F912F910F900FBE0F901F901895A3
:10167000CF93C0E0C03108F50E94421E8F70907871
:10168000992334F40197806F9F6F019601C080E029
:10169000282F30E0F901E45AFE4F9081992321F080
:1016A0008F5F8031A8F3F3CFF901E45AFE4F8C2FFE
:1016B00087708F5F8083CF5FDDCFCF910895CF9309
:1016C000DF930E94A9098823E1F30E94AF09EC018E
:1016D0000E94E5099E01215031092732310530F47D
:1016E000009721F08832910508F4A3C09E0120558F
:1016F00031092733310530F4009721F08833910503
:1017000008F499C0AE014D5851094733510530F4E2
:10171000009721F08833910508F48FC0BE016A5C00
:1017200071096733710530F4009721F08833910512
:1017300008F485C0C750D140C733D10530F40097B5
:1017400021F08833910508F47CC02733310538F443
:101750008E33910520F08537910508F474C0473326
:10176000510538F48E33910520F08537910508F442
:101770006CC06733710538F48E33910520F08537DE
:10178000910508F464C0C733D10538F48E33910550
:1017900020F08537910508F45CC02733310538F413
:1017A0008B37910520F0823B910508F454C04733F4
:1017B000510538F48B37910520F0823B910508F4F0
:1017C0004CC06733710538F48B37910520F0823BAC
:1017D000910508F444C0C733D10530F48B37910527
:1017E00018F0823B9105E8F12733310530F4883B4E
:1017F000910518F08F3E9105B0F14733510530F453
:10180000883B910518F08F3E910578F1673371059B
:1018100030F4883B910518F08F3E910540F1E79731
:1018200040F5883B910538F18F3E910530F180E01D
:1018300025C084E123C081E021C082E01FC083E095
:101840001DC084E01BC085E019C086E017C087E09A
:1018500015C088E013C089E011C08AE00FC08BE09A
:101860000DC08CE00BC08DE009C08EE007C08FE09A
:1018700005C080E003C080E001C080E1DF91CF912E
:1018800008950F931F9390E0FC013197E031F1052B
:1018900008F0D3C0E65DFF4F0C94BA1D07E310E0DB
:1018A00026E830E041E050E061E570E08CE691E050
:1018B0000E948014C2C007E310E023EC30E041E056
:1018C00050E06EE870E08CE691E00E948014B5C0B4
:1018D00007E310E020E031E041E050E06BEC70E025
:1018E0008CE691E00E948014A8C007E310E02DE38D
:1018F00031E041E050E068E071E08CE691E00E9468
:1019000080149BC004E710E026E830E04EE350E08E
:1019100061E570E08CE691E00E9480148EC004E7DF
:1019200010E023EC30E04EE350E06EE870E08CE62F
:1019300091E00E94801481C004E710E020E031E0D3
:101940004EE350E06BEC70E08CE691E00E94801476
:1019500074C004E710E02DE331E04EE350E068E0AE
:1019600071E08CE691E00E94801467C001EB10E00A
:1019700026E830E04BE750E061E570E08CE691E06E
:101980000E9480145AC001EB10E023EC30E04BE7DA
:1019900050E06EE870E08CE691E00E9480144DC04B
:1019A00001EB10E020E031E04BE750E06BEC70E041
:1019B0008CE691E00E94801440C001EB10E02DE322
:1019C00031E04BE750E068E071E08CE691E00E9486
:1019D000801433C00EEE10E026E830E048EB50E013
:1019E00061E570E08CE691E00E94801426C00EEE66
:1019F00010E023EC30E048EB50E06EE870E08CE65D
:101A000091E00E94801419C00EEE10E020E031E059
:101A100048EB50E06BEC70E08CE691E00E948014A3
:101A20000CC00EEE10E02DE331E048EB50E068E032
:101A300071E08CE691E00E9480141F910F9108954F
:101A400080914B0190E00197FC01E45AFE4F5081D8
:101A500020914A0130E021503109F901E45AFE4F4A
:101A60004081541711F1FC01E45BFE4F40814111AC
:101A70001CC0F901E45BFE4F4081411116C020E01B
:101A800060E08CE691E00E94161580914B010E9467
:101A9000410C80914A010E94410C2FEF4FEF6FEFF4
:101AA0008CE691E00E9416150895FC01E45BFE4F60
:101AB00041E04083F901E45BFE4F4083809148019F
:101AC0008F5F809348010895CF92EF92FF920F931A
:101AD0001F93982F9370913049F0923051F09330CA
:101AE00059F0992361F020E030E00BC02FE430E0A2
:101AF00008C02CE830E005C029EC30E002C026E048
:101B000031E09FEF980F943078F09BEF980F94306E
:101B100070F097EF980F943068F093EF980F94302F
:101B200060F000E010E00BC000E010E008C00DE342
:101B300010E005C00AE710E002C007EB10E0E82F54
:101B4000F0E0E55AFE4F40810C5E1F4F2C5E3F4F88
:101B500050E060E070E06894CC24C5F8E12CF12CF2
:101B60008CE691E00E9464192FEF8FE794E02150FA
:101B700080409040E1F700C000001F910F91FF905E
:101B8000EF90CF9008950F931F930E94380B8CE62F
:101B900091E00E94E01408E210E028E230E040E02A
:101BA00050E060E070E08CE691E00E94D81500E023
:101BB00010E02CE030E04CE050E06CE670E08CE6A9
:101BC00091E00E9489182CE330E040E050E06EE69E
:101BD00070E08CE691E00E9489182CE830E040E04B
:101BE00050E064E770E08CE691E00E9489180FEE07
:101BF00010E02DE830E040E050E068E870E08CE66E
:101C000091E00E9480142AEC30E040E050E065EC66
:101C100070E08CE691E00E94801427E031E040E023
:101C200050E062E071E08CE691E00E9480140DE3E8
:101C300010E02EE331E048E350E06FE470E08CE622
:101C400091E00E9480140AE710E02EE331E045E7BE
:101C500050E06FE470E08CE691E00E94801407EBA6
:101C600010E02EE331E042EB50E06FE470E08CE6F0
:101C700091E00E9480141F910F91089520E020317F
:101C800060F4822F90E0FC01E45AFE4F1082FC01C8
:101C9000E45BFE4F10822F5FF2CF10924A01109248
:101CA0004B01109249011092480110924701E4E45F
:101CB000F1E012821182108208958FEF8093690003
:101CC000E6E6F0E0828381838083109241010895EB
:101CD000CF92EF92FF920F931F93CF93DF93809158
:101CE000470190916900891710F480936900E4E43A
:101CF000F1E060814CE35181252F30E0469F200DBB
:101D0000311D1124E6E6F0E07081818190E0479F6B
:101D1000800D911D1124821793072CF0608351834D
:101D200080914601828380914201909141019817F0
:101D300010F4809341018CE691E00E94E01400E0F1
:101D400010E02AE030E044E650E069E770E08CE61D
:101D500091E00E9489184091420150E060E070E0FB
:101D60006894CC24C5F8E12CF12C0AE010E028ECB2
:101D700030E08CE691E00E94641900E010E028E277
:101D800030E04AE550E060E870E08CE691E00E94C7
:101D900089184091470150E060E070E008E210E0EF
:101DA0002EEB30E08CE691E00E94641900E010E038
:101DB0002CE330E048E250E067E870E08CE691E028
:101DC0000E9489184091690050E060E070E00CE3E7
:101DD00010E020EF30E08CE691E00E94641900E012
:101DE00010E02AE530E046E450E063E970E08CE67C
:101DF00091E00E948918C4E4D1E0488150E060E09D
:101E000070E00AE510E026E930E08CE691E00E94FF
:101E1000641900E010E02AE530E044EB50E06EE7A2
:101E200070E08CE691E00E948918498150E060E002
:101E300070E00AE510E02EEB30E08CE691E00E94C5
:101E4000641900E010E02EE630E04EE150E069E970
:101E500070E08CE691E00E948918C6E6D0E04881E7
:101E600050E060E070E00EE610E02EEB30E08CE633
:101E700091E00E94641900E010E02EE630E04CEDA5
:101E800050E06EE770E08CE691E00E94891849818D
:101E900050E060E070E00EE610E026EE30E08CE608
:101EA00091E00E94641906EE10E020EA30E046E975
:101EB00050E06AE070E08CE691E00E94D81500E006
:101EC00010E024EB30E04CE350E064EA70E08CE694
:101ED00091E00E94891806EE10E026E331E046E921
:101EE00050E061EA70E08CE691E00E94D81500E0D5
:101EF00010E024EB30E048EC50E069EA70E08CE65A
:101F000091E00E948918DF91CF911F910F91FF906E
:101F1000EF90CF900895CF93DF930E94A909882373
:101F2000E1F30E94AF09EC010E94E5099E012B50EC
:101F300031092539310530F48739910518F0863E8D
:101F4000910568F0C25AD109C439D10550F48739D6
:101F5000910548F0863E910540F080E007C081E0A1
:101F600005C080E003C080E001C082E0DF91CF9136
:101F700008950F931F93CF93DF938CE691E00E9417
:101F8000E01400E010E028E730E04EE057E26EEAAF
:101F900070E08CE691E00E9489182FEF8FE794E0C3
:101FA000215080409040E1F700C000000E94A90944
:101FB0008823E1F30E94AF09EC010E94E5098C0F30
:101FC0009D1F0E94471EDF91CF911F910F91089591
:101FD0000F931F93109243018CE691E00E94E0144E
:101FE00080913E01813069F400E010E020E530E0AE
:101FF0004EE057E26BEB70E08CE691E00E948918AE
:1020000031C08230B9F400E010E020E530E04EE06D
:1020100057E263EC70E08CE691E00E94891824E6B8
:1020200030E04EE057E26DEC70E08CE691E00E940B
:10203000891818C08330B1F400E010E020E530E0EA
:102040004EE057E263EC70E08CE691E00E94891864
:1020500024E630E04EE057E26AED70E08CE691E075
:102060000E94891800E010E020EA30E04EE057E2DC
:1020700067EE70E08CE691E00E94891824EB30E076
:102080004EE057E265EF70E08CE691E00E9489181F
:102090002FEF8FE392E0215080409040E1F700C0A5
:1020A00000000E94A9098823E1F30E943E0E1092CD
:1020B0003E01109240011F910F910895CF92EF922F
:1020C000FF920F931F93CF9380914901823009F5BE
:1020D0000E94200D10924A0110924B01109249016A
:1020E000809147018F5F8093470190913F01992331
:1020F00081F02091650030E0A901481B5109CA0117
:102100001816190634F082E080933E010E94E80F11
:10211000E3C020E040E060E08CE691E00E9416150C
:1021200004E610E02DE230E04BE450E060E070E0C7
:102130008CE691E00E9480142FEF4FEF6FEF8CE65A
:1021400091E00E94161580913F018823C9F04091CB
:10215000650050E080914701481B5109052E000C95
:10216000660B770B6894CC24C5F8E12CF12C00E5C4
:1021700010E020E030E08CE691E00E94641912C08B
:102180004091470150E060E070E06894CC24C5F8CD
:10219000E12CF12C00E510E020E030E08CE691E04D
:1021A0000E94641980914801883061F510924301C2
:1021B000809142018F5F809342010E94680E0E94CD
:1021C0003E0E80913F018823A1F0809165008150EF
:1021D00080936500809164008350809364008091B7
:1021E00042018E3131F481E080933E010E94E80F7C
:1021F00073C00E948B0F813019F4109240016CC0A3
:102200008823B9F30E945F0BC82F8091430181118D
:1022100008C00E94B90F0E94C30D81E08093430162
:1022200051C0C43139F410924001109243010E9410
:102230003E0E52C0CC2309F445C0882309F442C0A5
:102240000C2F10E001501109F801E45BFE4F808172
:10225000811138C080913F01882339F080913E017F
:10226000833019F40E94E80F37C08C2F0E94640D50
:102270008091490181110EC0F801E45BFE4F90810D
:10228000911108C0C0934B0191111CC081E0809353
:10229000490118C08130B1F480914B01E82FF0E082
:1022A000E55BFE4F908191110DC0C0934A01C817A4
:1022B00049F0F801E45BFE4F8081811103C082E0A8
:1022C000809349015FEF8FE191E051508040904051
:1022D000E1F700C00000F8CECF911F910F91FF9061
:1022E000EF90CF900895CF92EF92FF920F931F93AC
:1022F0008CE691E00E94E01400E010E02AE030E07B
:102300004EE057E262E071E08CE691E00E948918AD
:1023100028E230E048E250E069E071E08CE691E0CC
:102320000E948918409169004F3F81F050E060E0C1
:1023300070E06894CC24C5F8E12CF12C08E210E0A0
:102340002CED30E08CE691E00E94641900E010E092
:102350002CE330E04EE150E069E970E08CE691E07A
:102360000E948918409166004F3F89F18091670073
:102370008F3F69F1809168008F3F49F150E060E044
:1023800070E06894CC24C5F8E12CF12C0CE310E04B
:102390002EEB30E08CE691E00E94641900E010E042
:1023A0002CE330E04CED50E06EE770E08CE691E01D
:1023B0000E9489184091670050E060E070E00CE3F3
:1023C00010E026EE30E08CE691E00E94641900E017
:1023D00010E020E530E04AE050E066E171E08CE694
:1023E00091E00E9489184091410150E060E070E066
:1023F0006894CC24C5F8E12CF12C00E510E02AEF1C
:1024000030E08CE691E00E94641966E77CE08CE69F
:1024100091E00E946C1A06EE10E024E630E046E9F6
:1024200050E06AE070E08CE691E00E94D81500E090
:1024300010E024EB30E043E250E066E271E08CE62D
:1024400091E00E94891806EE10E028EC30E046E9A1
:1024500050E06EE670E08CE691E00E94D81500E056
:1024600010E024EB30E048E750E06DE271E08CE6EC
:1024700091E00E94891806EE10E026E331E046E97B
:1024800050E06CED70E08CE691E00E94D81500E021
:1024900010E024EB30E045EF50E067E371E08CE6BC
:1024A00091E00E94891862E970E08CE691E00E9458
:1024B0006C1A1F910F91FF90EF90CF900895CF93DA
:1024C000DF930E94A9098823E1F30E94AF09EC0180
:1024D0000E94E5099E012B5031092935310530F460
:1024E0008739910518F0863E9105C8F09E012F5658
:1024F00031092935310530F48739910518F0863EC8
:10250000910578F0CD5DD109C935D10560F48739E1
:10251000910558F0863E910550F080E009C081E0B9
:1025200007C082E005C080E003C080E001C083E016
:10253000DF91CF91089587B3877F87BB8DE083BFFD
:1025400088E48CBF82E089BF78940E94FF1288B330
:102550008F7E88BB61E08CE691E00E945E158CE680
:1025600091E00E94E01462E970E08CE691E00E9444
:102570006C1A80914001811136C0109242018DE2A7
:102580008093650088E7809364000E9473112FEFA9
:102590008FE392E0215080409040E1F700C00000BE
:1025A0000E945F12813019F410923F0116C08230F0
:1025B00021F491E090933F0110C0833071F40E94A8
:1025C0005D0E2FEF8FE392E0215080409040E1F7C5
:1025D00000C000000E94731180E0882309F381E0AD
:1025E00080934001C6CF882321F20E945E10C1CFA4
:1025F0006FEF7FEF81E090E00E949F09089587B31D
:10260000806B87BB87B38F7B87BB88B3806188BBB8
:1026100081E58DB98EB18E7F8EB908958FB9779B84
:10262000FECF8FB108958FEF8FB9779BFECF8FB11B
:1026300008958FEF81BB8ABB84B3806884BB84B369
:10264000806484BB84B3816084BB87B3816087BBB3
:1026500088B3816088BB84B3826084BB88B38260A6
:1026600088BB87B3826087BB85B3826085BB8FEFF1
:1026700093E20197F1F700C0000085B38D7F85BB21
:102680008FEF9BE60197F1F700C0000085B38260F1
:1026900085BB8FEF9BE60197F1F700C0000085B383
:1026A0008E7F85BB61E070E080E00E948E0964EA65
:1026B00078EA83E00E948E0960E070E08CE00E947E
:1026C0008E096CE078E08DE00E948E0960E07BE28C
:1026D0008EE00E948E0967EB70E08EE10E948E0909
:1026E0006FE37BE281E00E948E0960E076E082E0A9
:1026F0000E948E0960E070E080E10E948E0960E730
:1027000070E681E10E948E0960E070E085E00E9441
:102710008E0960E070E086E00E948E096CE17FEE39
:1027200086E10E948E0963E070E087E10E948E09D5
:1027300063E372E087E00E948E0960E070E08BE066
:102740000E948E0960E070E08FE00E948E0960E0D8
:1027500070E081E40E948E0960E070E082E40E94F3
:102760008E0960E070E088E40E948E096FE371E0FA
:1027700089E40E948E0960E070E08AE40E948E097C
:1027800060E070E08BE40E948E0960E07FEE84E4FC
:102790000E948E0960E070E085E40E948E096FE37C
:1027A00071E086E40E948E0967E077E080E30E9492
:1027B0008E0964E072E081E30E948E0964E072E0B9
:1027C00082E30E948E0962E075E083E30E948E0935
:1027D00067E075E084E30E948E0964E072E085E3BF
:1027E0000E948E0964E072E086E30E948E0962E036
:1027F00075E087E30E948E0962E073E08AE30E943D
:102800008E0962E073E08BE30E948E0960E070E065
:1028100083E20E948E0960E070E084E20E948E09EB
:1028200060E070E885E20E948E0960E070E08FE46D
:102830000E948E0960E070E08EE40E948E0982E2C0
:102840000E947A0985B3816085BB08954FEE50E000
:1028500060E070E0FC0145835683678370874FE337
:1028600051E060E070E041875287638774870E947F
:1028700019130895EF92FF920F931F93CF93DF9355
:10288000EB01E42EF52EFC014481413089F4818571
:102890009285A385B485AC01461B570B821B930B15
:1028A000202F312F042F152FCE2DDF2DE82EF92EBE
:1028B000322F2227BE01620F731F84E40E948E090B
:1028C0006E2D7F2D85E40E948E09602F712F86E486
:1028D0000E948E09BE018EE40E948E096E2D7F2D0E
:1028E0008FE40E948E0982E20E947A0985B3806893
:1028F00085BBDF91CF911F910F91FF90EF900895CD
:102900008F929F92AF92BF92CF92DF92EF92FF92FF
:102910000F931F93CF93DF934C015B017A01690101
:10292000E8012617370724F48B2D5901C62ED82E1F
:10293000CE15DF052CF49E2D8F2D7E01C92FD82FAB
:1029400085B38E7F85BB8E019601A701B501C401B9
:102950000E943A14F40180818BBB818182BB960175
:102960002A193B09C901330FAA0BBB0B9C01AD010E
:102970002F5F3F4F4F4F5F4FBE016E197F09CB0155
:10298000770FAA0BBB0BBC01CD016F5F7F4F8F4F41
:102990009F4F0E94551D0E9431098FEF82BB8BBB58
:1029A00085B38E7F85BBDF91CF911F910F91FF90F3
:1029B000EF90DF90CF90BF90AF909F908F90089551
:1029C00085B38E7F85BB60E07FEE84E40E948E0934
:1029D00060E070E085E40E948E096FE371E086E4B8
:1029E0000E948E0960E070E08EE40E948E0960E033
:1029F00070E08FE40E948E0968E770E681E10E9432
:102A00008E0982E20E947A0985B3806885BB12BA7A
:102A10001BBA60E07CE281E090E00E9431098FEF18
:102A200082BB8BBB85B38E7F85BB0895E42FF0E01E
:102A3000F595E795F595E795F595E795F595E7957E
:102A4000F595E795687FE62BDC01EC934C7150E03F
:102A5000440F551F440F551F440F551F30E0359547
:102A600027953595279535952795422B11964C93AB
:102A70000895E42FF0E0F595E795F595E795F59540
:102A8000E795F595E795F595E795687FE62BDC01E9
:102A90001296EC9312974C7150E0440F551F440F5F
:102AA000551F440F551F30E03595279535952795CF
:102AB00035952795422B13964C930895CF93DF932A
:102AC000EC016C832FEF4FEF6FEF0E94161520E0A3
:102AD00040E060E0CE010E9439151E861D86DF9120
:102AE000CF910895872F0E9481090895EF92FF9258
:102AF0000F931F93CF93DF937C01E901DD232CF427
:102B0000620F731FD195C195D10985B38E7F85BBA7
:102B10009B012C0F3D1F8A01C7010E943A14F70147
:102B200080818BBB818182BBBE01DD0F880B990B3D
:102B30000E9431098FEF82BB8BBB85B3816085BB5F
:102B4000DF91CF911F910F91FF90EF900895EF9239
:102B5000FF920F931F93CF93DF937C01E901DD2355
:102B60002CF4420F531FD195C195D10985B38E7FA7
:102B700085BB8A010C0F1D1F9B01C7010E943A14DF
:102B8000F70180818BBB818182BBBE01DD0F880B89
:102B9000990B0E9431098FEF82BB8BBB85B381609B
:102BA00085BBDF91CF911F910F91FF90EF9008951A
:102BB0008F929F92AF92BF92CF92DF92EF92FF924D
:102BC0000F931F93CF93DF935C017B01EA016901AF
:102BD0002617370724F48F2D7901C62ED82E0C170F
:102BE0001D072CF49C2F8D2FE801092F182F46016B
:102BF0008E189F089401AE01B701C5010E94761599
:102C00009401A801B701C5010E9476150C1B1D0B8C
:102C10009801AE01B701C5010E94A7159801AE0148
:102C2000B601C5010E94A715DF91CF911F910F91A9
:102C3000FF90EF90DF90CF90BF90AF909F908F90DC
:102C40000895AF92BF92CF92DF92EF92FF920F93CF
:102C50001F93CF93DF93EC017A01890185B38E7FB7
:102C600085BB8C81811169C02989862F90E0821BE8
:102C700091094F85542F569556955695288930E0E1
:102C8000529FB001539F700D1124869F6001879F52
:102C9000D00C969FD00C112484E0C80ED11CC70123
:102CA000840F911D200F311F590141E0A41AB10872
:102CB00060E070E07FEF780F6E0D7F1D84E40E946E
:102CC0008E09B80185E40E948E09B50186E40E9450
:102CD0008E09B7018EE40E948E09B8018FE40E942C
:102CE0008E0960E770E681E10E948E0982E20E940F
:102CF0007A0985B3806885BB2A8130E0322F22278C
:102D00008B81282B488150E0542F44278981482B00
:102D10006D857E856C0D7D1D88899F85899FC0018D
:102D2000112499230CF40796959587959595879589
:102D3000959587950E94A2086FC02989862F90E0FB
:102D4000821B91094F85542F569556955695288983
:102D500030E0529FB001539F700D1124869F600197
:102D6000879FD00C969FD00C112484E0C80ED11CF4
:102D7000C701840F911D0197200F311F49855A8586
:102D80006B857C855A01AE18BF087A01E81AF90AEA
:102D900060E070E07FEF720F600F711F84E40E94AB
:102DA0008E09B70185E40E948E09B50186E40E9470
:102DB0008E09B8018EE40E948E09B5018FE40E944D
:102DC0008E0968E570E681E10E948E0982E20E9428
:102DD0007A0985B3806885BB2A8130E0322F2227AB
:102DE0008B81282B488150E0542F44278981482B20
:102DF0006D857E856C0D7D1D88899F85899FC001AD
:102E0000112499230CF407969595879595958795A8
:102E1000959587950E94A20885B3816085BBDF9157
:102E2000CF911F910F91FF90EF90DF90CF90BF90C7
:102E3000AF9008952F923F924F925F926F927F9240
:102E40008F929F92AF92BF92CF92DF92EF92FF92BA
:102E50000F931F93CF93DF93CDB7DEB76B970FB66A
:102E6000F894DEBF0FBECDBF5C0169833A01490112
:102E70001F8B0E8BB701FF0C880B990B0E94A81BB0
:102E800029E23CE54FE85CE30E94971C698B7A8B52
:102E90008B8B9C8B85B38E7F85BBD50151968C9196
:102EA000B9812B2F30E0281B3109F50187858695E4
:102EB000869586959089899FC0011124289FA0013D
:102EC000299F500D389F500D11249A012C5F3F4FC0
:102ED000398F288F1D8AD50150968C91BD89B817DE
:102EE00008F0FBC0412C512CF5018785869586950D
:102EF0008695282F30E0421653060CF0E4C0058476
:102F0000F685E02D888D998D840D951DE80FF91FAC
:102F10002490312C3A8E2B8EFA8DF83008F0CFC0E9
:102F20002F2E312CB201660F771F660F771F660FA9
:102F3000771F620D731DD5011F962C91EE89FF89B5
:102F40002E9FC0012F9F900D1124680F791F072E0F
:102F5000000C880B990B0E94A81B69837A838B83D2
:102F60009C8369897A898B899C890E94F91A6D836F
:102F70007E838F8398879B01AC0169817A818B81E5
:102F80009C810E94971C6B017C01FD896F2F70E072
:102F900080E090E00E94A81B69877A878B879C87D6
:102FA00069897A898B899C890E94041D6D877E8737
:102FB0008F87988B9B01AC0169857A858B859C8571
:102FC0000E94971C9B01AC01C701B6010E94871AA1
:102FD0006B017C01B301072C000C880B990B0E943C
:102FE000A81BA70196010E94881A0E94701B6B0102
:102FF0007C0129853A854B855C856D817E818F8139
:1030000098850E94971C6D837E838F8398872D857A
:103010003E854F85588969817A818B819C810E9488
:10302000971C9B01AC016D817E818F8198850E94E8
:10303000881A69837A838B839C83B401092C000CE2
:10304000880B990B0E94A81B29813A814B815C81D6
:103050000E94881A0E94701B8B010F5F1F4F960100
:103060002F5F3F4FAB01B601C5010E943A1427E024
:1030700030E0221933094B8D842F90E002C09595E2
:1030800087952A95E2F780FF0CC0D5016C9170E01E
:10309000762F662711968C91682BC5010E947215B8
:1030A0000AC0F501628170E0762F66278381682B64
:1030B000C5010E947215FA8DFF5FFA8F2DCF2FEF99
:1030C000421A520A11CF488D598D480F511D598F00
:1030D000488F5D895F5F5D8BFECE85B3816085BB68
:1030E0006B960FB6F894DEBF0FBECDBFDF91CF91C8
:1030F0001F910F91FF90EF90DF90CF90BF90AF9016
:103100009F908F907F906F905F904F903F902F9007
:1031100008952F923F924F925F926F927F928F927B
:103120009F92AF92BF92CF92DF92EF92FF920F9356
:103130001F93CF93DF93EC01FB015A012901680132
:10314000DB010D900020E9F71197A61BB70B4D018D
:103150008C8181113EC04F30574281F44D815E8198
:103160006F8178852F852A9FC0012B9F900D112498
:10317000481B590B5A011FEFA11AB10A2EE0A216E3
:1031800027E2B20609F061C04D815E816F817885CA
:103190004F5F5F4F6F4F7F4F2F852A9FC0012B9F3F
:1031A000900D1124092E000CAA0BBB0B8A019B0168
:1031B000081B190B2A0B3B0BB901A80122F44F5F26
:1031C0005F4F6F4F7F4F75956795579547955A019C
:1031D0003CC04F30574281F449855A856B857C85C8
:1031E0002F852A9FC0012B9F900D1124481B590B3E
:1031F0005A012FEFA21AB20A3EE0A31637E2B30635
:1032000021F549855A856B857C854F5F5F4F6F4FF0
:103210007F4F2F852A9FC0012B9F900D1124092ECF
:10322000000CAA0BBB0B8A019B01081B190B2A0B74
:103230003B0BB901A80122F44F5F5F4F6F4F7F4FE7
:1032400075956795579547955A01612C712C6814AF
:1032500079043CF5C114D10499F48F85869DA001B1
:10326000879D500D11244A0D5B1D1F011FEF211A70
:10327000310A60819201CE010E942116F1010DC038
:103280001F012FEF221A320A608176018301920119
:10329000A501CE010E941A17F1013FEF631A730ACC
:1032A000D6CFDF91CF911F910F91FF90EF90DF90DC
:1032B000CF90BF90AF909F908F907F906F905F90D6
:1032C0004F903F902F9008952F923F924F925F9290
:1032D0006F927F928F929F92AF92BF92CF92DF9226
:1032E000EF92FF920F931F93CF93DF93CDB7DEB78B
:1032F000E8970FB6F894DEBF0FBECDBF1C014A01A0
:103300005B013EAB2DAB18AF0FAB4115510561050D
:10331000710549F5E114F10411F180E090E09701A5
:1033200021503109821793074CF4EAE1F0E0EC0FE9
:10333000FD1FE80FF91FC0820196F1CFEAE1F0E02E
:10334000EC0FFD1FE80FF91F20E320830196EAE14F
:10335000F0E0EC0FFD1FE80FF91F108298C080E32A
:103360008A8F1B8E94C077235CF4B094A0949094C1
:103370008094811C911CA11CB11CDD24D39401C03C
:10338000D12C00E010E0181419041A041B043CF5B9
:103390000F2EFAE04F2E512C612C712CF02DC5010F
:1033A000B401A30192010E949B1DE1E0F0E0EC0F4B
:1033B000FD1FE00FF11F20E3260F20830F5F1F4F3B
:1033C000A5019401261B370B480B590BCA01B90103
:1033D000A30192010E949B1D49015A01D4CFE1E053
:1033E000F0E0EC0FFD1FE00FF11F1082DD2011F067
:1033F0008DE28A8F2D2D30E0B801620F731F6E159C
:103400007F05D4F480E090E040E050E0F701E01B5D
:10341000F10BE21BF30B8E179F0784F4FC01E20F04
:10342000F31FAAE1B0E0AC0FBD1FEA0FFB1FC08283
:103430004F5F5F4F0196EACF40E050E0A0E0B0E080
:10344000A017B107DCF4FD01E20FF31F6F01C40EFA
:10345000D51EC8018A1B9B0B0197E1E0F0E0EC0F41
:10346000FD1F8E0F9F1FFC018081EAE1F0E0EC0F51
:10347000FD1FEC0DFD1D80831196E2CF460F571FF7
:10348000EAE1F0E0EC0FFD1FE40FF51F108200E011
:1034900010E02FA938AD4DA95EA9BE01665E7F4F31
:1034A000C1010E948918E8960FB6F894DEBF0FBEDE
:1034B000CDBFDF91CF911F910F91FF90EF90DF90E3
:1034C000CF90BF90AF909F908F907F906F905F90C4
:1034D0004F903F902F900895DC011E967C936E9341
:1034E0001D97FB0184911F968C931F973196E49151
:1034F0005096EC935097FB013296E4915196EC93E1
:103500005197FB013396649152966C9308955058ED
:10351000BB27AA270E949F1A0C94491C0E94101CCA
:1035200038F00E94171C20F039F49F3F19F426F45C
:103530000C940D1C0EF4E095E7FB0C94071CE92F8E
:103540000E946E1C58F3BA17620773078407950729
:1035500020F079F4A6F50C94901C0EF4E0950B2E57
:10356000BA2FA02D0B01B90190010C01CA01A001D5
:103570001124FF27591B99F0593F50F4503E68F130
:103580001A16F040A22F232F342F4427585FF3CF71
:10359000469537952795A795F0405395C9F77EF442
:1035A0001F16BA0B620B730B840BBAF09150A1F08B
:1035B000FF0FBB1F661F771F881FC2F70EC0BA0F11
:1035C000621F731F841F48F4879577956795B79599
:1035D000F7959E3F08F0B0CF9395880F08F0992794
:1035E000EE0F9795879508950E94E31B08F481E0FC
:1035F00008950E94201CE3950C945A1C0E94121BF3
:103600000C94491C0E94171C58F00E94101C40F09A
:1036100029F45F3F29F00C94071C51110C94911C64
:103620000C940D1C0E946E1C68F39923B1F3552372
:1036300091F3951B550BBB27AA27621773078407C5
:1036400038F09F5F5F4F220F331F441FAA1FA9F35B
:1036500035D00E2E3AF0E0E832D091505040E69549
:10366000001CCAF72BD0FE2F29D0660F771F881FAA
:10367000BB1F261737074807AB07B0E809F0BB0B9D
:10368000802DBF01FF2793585F4F3AF09E3F5105B1
:1036900078F00C94071C0C94911C5F3FE4F3983E67
:1036A000D4F3869577956795B795F7959F5FC9F79A
:1036B000880F911D9695879597F90895E1E0660F1B
:1036C000771F881FBB1F621773078407BA0720F094
:1036D000621B730B840BBA0BEE1F88F7E0950895FD
:1036E0000E94771B6894B1110C94911C08950E945C
:1036F000761C88F09F5798F0B92F9927B751B0F0F2
:10370000E1F0660F771F881F991F1AF0BA95C9F765
:1037100014C0B13091F00E94901CB1E008950C9457
:10372000901C672F782F8827B85F39F0B93FCCF30A
:10373000869577956795B395D9F73EF490958095E2
:10374000709561957F4F8F4F9F4F0895E89409C002
:1037500097FB3EF490958095709561957F4F8F4FC4
:103760009F4F9923A9F0F92F96E9BB279395F695DA
:10377000879577956795B795F111F8CFFAF4BB0F58
:1037800011F460FF1BC06F5F7F4F8F4F9F4F16C0BC
:10379000882311F096E911C0772321F09EE8872F46
:1037A000762F05C0662371F096E8862F70E060E002
:1037B0002AF09A95660F771F881FDAF7880F96957B
:1037C000879597F90895990F0008550FAA0BE0E81F
:1037D000FEEF16161706E807F907C0F012161306D3
:1037E000E407F50798F0621B730B840B950B39F413
:1037F0000A2661F0232B242B252B21F408950A2679
:1038000009F4A140A6958FEF811D811D089597F9B8
:103810009F6780E870E060E008959FEF80EC089576
:1038200000240A941616170618060906089500249F
:103830000A94121613061406050608950C940D1C1E
:103840000E94761CD8F3E894E0E0BB279F57F0F085
:103850002AED3FE049EC06C0EE0FBB0F661F771F55
:10386000881F28F0B23A62077307840728F0B25A1B
:10387000620B730B840BE3959A9572F7803830F4E2
:103880009A95BB0F661F771F881FD2F790480C943C
:103890000E1D092E0394000C11F4882352F0BB0F67
:1038A00040F4BF2B11F460FF04C06F5F7F4F8F4F58
:1038B0009F4F0895EF93E0FF07C0A2EA2AED3FE093
:1038C00049EC5FEB0E949F1A0E94491C0F900394E1
:1038D00001FC9058E4E7F0E00C941A1D57FD905855
:1038E000440F551F59F05F3F71F04795880F97FBC4
:1038F000991F61F09F3F79F087950895121613067E
:103900001406551FF2CF4695F1DF08C016161706AC
:103910001806991FF1CF86957105610508940895E1
:10392000E894BB2766277727CB0197F908950E9473
:10393000AA1C0C94491C0E94101C38F00E94171CF1
:1039400020F0952311F00C94071C0C940D1C1124ED
:103950000C94911C0E946E1C70F3959FC1F3950FFF
:1039600050E0551F629FF001729FBB27F00DB11D03
:10397000639FAA27F00DB11DAA1F649F6627B00D93
:10398000A11D661F829F2227B00DA11D621F739F7C
:10399000B00DA11D621F839FA00D611D221F749F8A
:1039A0003327A00D611D231F849F600D211D822FD1
:1039B000762F6A2F11249F5750409AF0F1F08823F8
:1039C0004AF0EE0FFF1FBB1F661F771F881F915025
:1039D0005040A9F79E3F510580F00C94071C0C94B1
:1039E000911C5F3FE4F3983ED4F3869577956795F5
:1039F000B795F795E7959F5FC1F7FE2B880F911D4F
:103A00009695879597F908959F930E94201C0F9093
:103A100007FCEE5F0C945A1C9F3F31F0915020F44C
:103A2000879577956795B795880F911D969587959A
:103A300097F908959F938F937F936F93FF93EF93DD
:103A40009B01AC010E94971CEF91FF910E942E1DDB
:103A50002F913F914F915F910C94971CDF93CF93DF
:103A60001F930F93FF92EF92DF927B018C0168947A
:103A700006C0DA2EEF010E94AA1CFE01E894A5916F
:103A80002591359145915591A6F3EF010E949F1A1A
:103A9000FE019701A801DA9469F7DF90EF90FF909B
:103AA0000F911F91CF91DF910895DB018F939F9329
:103AB0000E94C01DBF91AF91A29F800D911DA39F39
:103AC000900DB29F900D1124089597FB072E16F4C8
:103AD000009407D077FD09D00E94D31D07FC05D0C4
:103AE0003EF4909581959F4F0895709561957F4F15
:103AF0000895A1E21A2EAA1BBB1BFD010DC0AA1F2F
:103B0000BB1FEE1FFF1FA217B307E407F50720F046
:103B1000A21BB30BE40BF50B661F771F881F991FC1
:103B20001A9469F760957095809590959B01AC010A
:103B3000BD01CF010895052E97FB1EF400940E944D
:103B4000B21D57FD07D00E94791D07FC03D04EF42B
:103B50000C94B21D50954095309521953F4F4F4F95
:103B60005F4F089590958095709561957F4F8F4F29
:103B70009F4F0895EE0FFF1F0590F491E02D0994DB
:103B80000E94E71DA59F900DB49F900DA49F800DEE
:103B9000911D11240895B7FF0C94C01D0E94C01DF3
:103BA000821B930B0895AA1BBB1B51E107C0AA1FE0
:103BB000BB1FA617B70710F0A61BB70B881F991FCE
:103BC0005A95A9F780959095BC01CD010895A29FC3
:103BD000B001B39FC001A39F700D811D1124911DE1
:103BE000B29F700D811D1124911D08958F929F9297
:103BF000AF92BF92CF92DF92EF92FF92CF93DF937B
:103C0000EC01688179818A819B816115710581054B
:103C1000910521F464E279ED8BE597E02DE133EF36
:103C200041E050E00E949B1D49015A019B01AC01FB
:103C3000A7EAB1E40E94C01D6B017C01ACEEB4EFB9
:103C4000A50194010E94CE1DDC01CB018C0D9D1DB0
:103C5000AE1DBF1DB7FF03C00197A109B0488883FF
:103C60009983AA83BB839F77DF91CF91FF90EF90D9
:103C7000DF90CF90BF90AF909F908F9008950E945B
:103C8000F61D089580E690E00E94F61D0895A0E0DC
:103C9000B0E08093600090936100A0936200B093C5
:083CA00063000895F894FFCFC2
:103CA80001000000782DFFFFFFFF6D003C004D6F05
:103CB8007665730054696D6500526F756E643A00DD
:103CC8004D6F7665733A0042657374206D6F766543
:103CD800733A0054696D653A0042657374207469DB
:103CE8006D653A0045584954004E45585400546192
:103CF8007020746F20737461727400564943544F76
:103D080052590047414D45204F564552006F757432
:103D1800206F66206D6F7665730074696D6520721B
:103D2800616E206F75740074617020746F20726505
:103D38007475726E00746F206D61696E206D656EAA
:103D480075004D656D6F72790042657374206D6FF3
:103D58007665733A20004C6F6E67657374207374D0
:103D68007265616B3A0043415355414C00434841E9
:0E3D78004C4C454E4745005245534554000003
:00000001FF
