:100000000C942B060C9440060C9440060C9440066D
:100010000C9440060C9440060C9440060C94400648
:100020000C9440060C9440060C9440060C94400638
:100030000C9440060C9440060C9440060C94400628
:100040000C9440060C9440060C9440060C94400618
:100050000C94400605A84CCDB2D44EB93836A9024E
:100060000C50B9918688083CA6AAAA2ABE000000B6
:10007000803F1010205F0000000000000000000022
:100080000000000000000000000000000000000070
:100090000000000000000000000007000F800F803B
:1000A0000F800F800F80070007000000000007008E
:1000B00007000700000000000E380E380E380E381A
:1000C00006300000000000000000000000000000FA
:1000D00000000000000000000C300C300C307FFEEF
:1000E0007FFE0C300C300C300C307FFE7FFE0C306D
:1000F0000C300C3000000000024002400FF81FF8E6
:100100001A401A401FF00FF8025802581FF81FF04B
:100110000240024000000000000000000E100E30FF
:100120000E7000E001C0038007000E700C700870B4
:10013000000000000000000000000F00198019807E
:1001400019800F000F080F9819F818F018E019F02F
:100150000F980000000000000000070007000700E3
:100160000E00000000000000000000000000000081
:100170000000000000000000000000F001C003804B
:1001800007000E000E000E000E000700038001C0E5
:1001900000F000000000000000000F00038001C01C
:1001A00000E0007000700070007000E001C003808B
:1001B0000F0000000000000000000180118809907D
:1001C00007E007E03FFC3FFC07E007E009901188EB
:1001D000018000000000000000000000000001801D
:1001E000018001800FF00FF001800180018000008C
:1001F00000000000000000000000000000000000FF
:1002000000000000000000000000000007000700E0
:1002100007000E00000000000000000000000000C9
:10022000000000001FF81FF80000000000000000A0
:1002300000000000000000000000000000000000BE
:1002400000000000000000000000000007000700A0
:100250000700000000000000000000020006000E81
:10026000001C0038007000E001C0038007000E0091
:100270001C0000000000000000000FF01C381C787B
:100280001CF81CF81DB81DB81F381F381E381C3844
:100290000FF00000000000000000018001800380DA
:1002A0001F801F80038003800380038003800380FE
:1002B0001FF000000000000000000FE01C701C3860
:1002C0000038007000E001C0038007000E381C38C1
:1002D0001FF800000000000000000FE01C701C3838
:1002E0000038007003C003C0007000381C381C7058
:1002F0000FE0000000000000000000E001E003E06B
:1003000006E00CE018E01FF81FF800E000E000E055
:1003100003F800000000000000001FF81C001C0093
:100320001C001C001FE01FF0007800381C381C70F7
:100330000FE0000000000000000003E007000E00D6
:100340001C001C001FF01FF81C381C381C381C38FF
:100350000FF000000000000000001FFC1C1C1C1C13
:100360001C1C001C0038007000E001C003800380EA
:10037000038000000000000000000FF01C381C3853
:100380001C381F3807E007E01CF81C381C381C38E4
:100390000FF000000000000000000FF01C381C38B7
:1003A0001C381C381FF80FF800380038007000E0C7
:1003B00007C00000000000000000000000000380F3
:1003C000038003800000000003800380038000009E
:1003D000000000000000000000000000000003809A
:1003E0000380038000000000038003800380070077
:1003F0000000000000000000007000E001C0038069
:1004000007000E001C001C000E000700038001C046
:1004100000E000700000000000000000000000008C
:100420003FFC3FFC000000003FFC3FFC00000000E0
:1004300000000000000000001C000E000700038008
:1004400001C000E00070007000E001C00380070000
:100450000E001C000000000003C00FF01E781838CA
:100460000038007000E001C001C00000000001C0C1
:1004700001C001C0000000000FF81C1C1C1C1C1C4B
:100480001C1C1CFC1CFC1CFC1CFC1C001C001C0080
:100490001FF007F800000000000003C007E00E7026
:1004A0001C381C381C381C381FF81C381C381C38E9
:1004B0001C3800000000000000001FF00E380E384D
:1004C0000E380E380FF00FF00E380E380E380E388A
:1004D0001FF0000000000000000007F00E381C387C
:1004E0001C001C001C001C001C001C001C380E38CA
:1004F00007F000000000000000001FE00E700E3842
:100500000E380E380E380E380E380E380E380E7083
:100510001FE000000000000000001FF80E180E0889
:100520000E000E300FF00FF00E300E000E080E18F9
:100530001FF800000000000000001FF80E180E0851
:100540000E000E300FF00FF00E300E000E000E00F9
:100550001F00000000000000000007F00E381C38EB
:100560001C381C001C001C001CF81C381C380E38E1
:1005700007F800000000000000001C701C701C70D8
:100580001C701C701FF01FF01C701C701C701C7005
:100590001C7000000000000000000FE003800380DA
:1005A0000380038003800380038003800380038033
:1005B0000FE0000000000000000001FC007000706F
:1005C00000700070007000703870387038703870CB
:1005D0000FE000000000000000001E380E380E7012
:1005E0000EE00FC00F800F800FC00EE00E700E38AF
:1005F0001E3800000000000000001F000E000E006A
:100600000E000E000E000E000E000E080E180E3822
:100610001FF800000000000000001C1C1E3C1F7C96
:100620001FFC1FFC1DDC1C9C1C1C1C1C1C1C1C1C03
:100630001C1C00000000000000001C1C1C1C1E1CD8
:100640001F1C1F9C1DDC1CFC1C7C1C3C1C1C1C1C43
:100650001C1C000000000000000003E007F00E3842
:100660001C1C1C1C1C1C1C1C1C1C1C1C0E3807F0FD
:1006700003E000000000000000001FF00E380E38FC
:100680000E380E380FF00FF00E000E000E000E00A8
:100690001F00000000000000000003E00F780E388B
:1006A0001C1C1C1C1C1C1C1C1C7C1CFC0FF80FF8AC
:1006B000003800FC0000000000001FF00E380E386B
:1006C0000E380E380FF00FF00E700E380E380E3850
:1006D0001E3800000000000000000FF01C381C381D
:1006E0001C381C000FE007F000381C381C381C3880
:1006F0000FF000000000000000001FFC19CC11C426
:1007000001C001C001C001C001C001C001C001C0E1
:1007100007F000000000000000001C701C701C703E
:100720001C701C701C701C701C701C701C701C7069
:100730000FE000000000000000001C701C701C7026
:100740001C701C701C701C701C701C700EE007C0AC
:10075000038000000000000000001C1C1C1C1C1C6E
:100760001C1C1C1C1C9C1C9C1C9C0FF80FF807706C
:10077000077000000000000000001C701C701C705E
:100780000EE007C00380038007C00EE01C701C70E1
:100790001C7000000000000000001C701C701C7029
:1007A0001C701C700EE007C0038003800380038070
:1007B0000FE000000000000000001FF81C3818388F
:1007C000107000E001C0038007000E081C181C38E0
:1007D0001FF8000000000000000007F007000700FD
:1007E00007000700070007000700070007000700D1
:1007F00007F00000000000000000100018001C00BE
:100800000E000700038001C000E000700038001CEB
:100810000007000000000000000007F000700070FA
:100820000070007000700070007000700070007048
:1008300007F0000000000000018003C007E00E7018
:100840001C38000000000000000000000000000054
:100850000000000000000000000000000000000098
:100860000000000000000000000000000000000088
:1008700000007FFF7FFF000000001C001C0007003D
:100880000700000000000000000000000000000061
:100890000000000000000000000000000000000058
:1008A00000000FE0007000700FF01C701C701C70D6
:1008B0000FD800000000000000001E000E000E0017
:1008C0000E000FF00E380E380E380E380E380E3877
:1008D0001BF000000000000000000000000000000D
:1008E00000000FE01C701C701C001C001C701C70B1
:1008F0000FE0000000000000000000F80070007031
:1009000000700FF01C701C701C701C701C701C7030
:100910000FD80000000000000000000000000000F0
:1009200000000FE01C701C701FF01C001C701C707D
:100930000FE0000000000000000003E007700770F7
:10094000070007001FE01FE007000700070007007F
:100950001FC00000000000000000000000000000B8
:1009600000000FD81C701C701C701C700FF007F07A
:1009700000701C700FE0000000001E000E000E0052
:100980000E000EF00F380F380E380E380E380E38B5
:100990001E38000000000000000001C001C001C0BE
:1009A00000000FC001C001C001C001C001C001C0F2
:1009B0000FF80000000000000000007000700070E0
:1009C000000003F000700070007000700070007094
:1009D0001C700CF007E0000000001E000E000E006E
:1009E0000E000E380E700EE00FC00EE00E700E38C6
:1009F0001E3800000000000000000FC001C001C050
:100A000001C001C001C001C001C001C001C001C0DE
:100A10000FF80000000000000000000000000000CF
:100A200000001FF81C9C1C9C1C9C1C9C1C9C1C9C5F
:100A30001C9C0000000000000000000000000000FE
:100A400000001FE01C701C701C701C701C701C705F
:100A50001C7000000000000000000000000000000A
:100A600000000FE01C701C701C701C701C701C704F
:100A70000FE0000000000000000000000000000087
:100A800000001BF00E380E380E380E380E380FF0FE
:100A90000E000E001F00000000000000000000001B
:100AA00000001FB038E038E038E038E038E01FE000
:100AB00000E000E001F00000000000000000000085
:100AC00000001EF00FF80F380E000E000E000E0092
:100AD0001F000000000000000000000000000000F7
:100AE00000000FE01C301C300F8003E018701870FD
:100AF0000FE0000000000000000000000100030003
:100B000007001FF0070007000700070007700770C5
:100B100003E00000000000000000000000000000F2
:100B200000001C701C701C701C701C701C701C70F1
:100B30000FD80000000000000000000000000000CE
:100B400000001C701C701C701C701C700EE007C034
:100B50000380000000000000000000000000000012
:100B600000001C1C1C1C1C1C1C9C1C9C0FF80770EF
:100B700007700000000000000000000000000000FE
:100B800000001CE01CE00FC0078007800FC01CE0C5
:100B90001CE0000000000000000000000000000059
:100BA00000000E380E380E380E380E3807F003E00D
:100BB00000E001C01F8000000000000000000000F5
:100BC00000001FE018E011C0038007000E201C6029
:100BD0001FE0000000000000000001F80380038017
:100BE000038007001C001C000700038003800380B3
:100BF00001F800000000000001C001C001C001C0F8
:100C000001C001C001C001C001C001C001C001C0DC
:100C100001C001C00000000000001F8001C001C031
:100C200001C000E00038003800E001C001C001C090
:100C30001F8000000000000000001F1C3B9C39DCEE
:100C400038F8000000000000000000000000000074
:100C500000000000000011241FBECFE5D4E0DEBF7D
:100C6000CDBF10E0A0E6B0E0EEE9F0E202C00590F2
:100C70000D92A636B107D9F70E943F070C944D108C
:100C80000C940000A5B3BA2F6894A6F9E894B6F9BD
:100C9000FB01059007FA1EF442BB5BBB02C022BBFE
:100CA0003BBBB5BBA5BB06FA1EF442BB5BBB02C097
:100CB00022BB3BBBB5BBA5BB05FA1EF442BB5BBB6D
:100CC00002C022BB3BBBB5BBA5BB04FA1EF442BBB2
:100CD0005BBB02C022BB3BBBB5BBA5BB03FA1EF48A
:100CE00042BB5BBB02C022BB3BBBB5BBA5BB02FA90
:100CF0001EF442BB5BBB02C022BB3BBBB5BBA5BB6A
:100D000001FA1EF442BB5BBB02C022BB3BBBB5BBBE
:100D1000A5BB00FA1EF442BB5BBB02C022BB3BBBBF
:100D2000B5BBA5BB815090408030910511F00C946B
:100D300049060895A5B3BA2F6894A6F9E894B6F9C0
:100D4000FB0105900BBA059002BAB5BBA5BB81505B
:100D500090408030910511F00C94A1060895A5B340
:100D6000BA2F6894A6F9E894B6F9FC0111242591EC
:100D70002030A9F027FB56F42F7705900BBA059089
:100D800002BAB5BBA5BB2A95E1F7F1CF05900BBA26
:100D9000059002BAB5BBA5BB2A95C1F7E8CF0024E0
:100DA0000895222786957795679527957695679577
:100DB000279576956795279576956795279522953A
:100DC000CB01E5B3FE2F6894E6F9E894F6F90097B5
:100DD00011F1F5BBE5BBF5BBE5BBF5BBE5BBF5BB71
:100DE000E5BBF5BBE5BBF5BBE5BBF5BBE5BBF5BBC3
:100DF000E5BBF5BBE5BBF5BBE5BBF5BBE5BBF5BBB3
:100E0000E5BBF5BBE5BBF5BBE5BBF5BBE5BBF5BBA2
:100E1000E5BB0197F1F6203021F0F5BBE5BB2A9543
:100E2000E1F70895AE98AE9A6150704080409040CE
:100E3000C9F70895AF98112482BB1BBAAE98AE9A39
:100E40000895AF9A62BB8BBBAE98AE9A0895AF9AE5
:100E5000112482BB1BBAAE98AE9A0895AF981124A4
:100E600082BB1BBAAE98AE9AAF9A62BB7BBBAE9800
:100E7000AE9A08958BBB62BBAE98AE9A0895CF939D
:100E8000DF93CDB7DEB763970FB6F894DEBF0FBE22
:100E9000CDBFCE0101960E94A70861E0CE01019668
:100EA0000E94E30962E770E0CE0101960E94D50D31
:100EB000CE0101960E94610960E170E8CE010196C1
:100EC0000E94BA0922E330E046E450E064E670E0B4
:100ED000CE0101960E942C0A20E04DE76FEFCE0173
:100EE00001960E94970908EC10E02CED30E04CE8E8
:100EF00050E06EE670E0CE0101960E94010920E00C
:100F00004DE76FEFCE0101960E94BE0920E040E060
:100F100060E0CE0101960E94970900E010E020EA0F
:100F200030E04DE750E060E670E0CE0101960E94AF
:100F3000FA0CFFCF8FEF81BB8ABB84B3806884BB80
:100F400084B3806484BB84B3816084BB87B38160D5
:100F500087BB88B3816088BB84B3826084BB88B35D
:100F6000826088BB87B3826087BB85B3826085BBA4
:100F70008FEF93E20197F1F700C0000085B38D7FFA
:100F800085BB8FEF9BE60197F1F700C0000085B3AA
:100F9000826085BB8FEF9BE60197F1F700C00000F0
:100FA00085B38E7F85BB61E070E080E00E942E07F4
:100FB00064EA78EA83E00E942E0760E070E08CE04B
:100FC0000E942E076CE078E08DE00E942E0760E022
:100FD0007BE28EE00E942E0767EB70E08EE10E94BC
:100FE0002E076FE37BE281E00E942E0760E076E04F
:100FF00082E00E942E0760E070E080E10E942E07F0
:1010000060E770E681E10E942E0760E070E085E015
:101010000E942E0760E070E086E00E942E076CE1DF
:101020007FEE86E10E942E0763E070E087E10E9478
:101030002E0763E372E087E00E942E0760E070E015
:101040008BE00E942E0760E070E08FE00E942E0788
:1010500060E070E081E40E942E0760E070E082E4CE
:101060000E942E0760E070E088E40E942E076FE384
:1010700071E089E40E942E0760E070E08AE40E943B
:101080002E0760E070E08BE40E942E0760E07FEEA8
:1010900084E40E942E0760E070E085E40E942E0741
:1010A0006FE371E086E40E942E0767E077E080E35B
:1010B0000E942E0764E072E081E30E942E0764E044
:1010C00072E082E30E942E0762E075E083E30E94F3
:1010D0002E0767E075E084E30E942E0764E072E06B
:1010E00085E30E942E0764E072E086E30E942E07EB
:1010F00062E075E087E30E942E0762E073E08AE316
:101100000E942E0762E073E08BE30E942E0760E0EE
:1011100070E083E20E942E0760E070E084E20E94AB
:101120002E0760E070E885E20E942E0760E070E024
:101130008FE40E942E0760E070E08EE40E942E078C
:1011400082E20E941A0785B3816085BB08954FEE45
:1011500050E060E070E0FC01458356836783708750
:101160004FE351E060E070E0418752876387748706
:101170000E949A070895EF92FF920F931F93CF93C7
:10118000DF93EB01E42EF52EFC014481413089F41C
:1011900081859285A385B485AC01461B570B821BC4
:1011A000930B202F312F042F152FCE2DDF2DE82E5E
:1011B000F92E322F2227BE01620F731F84E40E9492
:1011C0002E076E2D7F2D85E40E942E07602F712F34
:1011D00086E40E942E07BE018EE40E942E076E2D2B
:1011E0007F2D8FE40E942E0782E20E941A0785B3AA
:1011F000806885BBDF91CF911F910F91FF90EF9099
:1012000008958F929F92AF92BF92CF92DF92EF920A
:10121000FF920F931F93CF93DF934C015B017A01F1
:101220006901E8012617370724F48B2D5901C62ED2
:10123000D82ECE15DF052CF49E2D8F2D7E01C92FC3
:10124000D82F85B38E7F85BB8E019601A701B5018E
:10125000C4010E94BB08F40180818BBB818182BBE9
:1012600096012A193B09C901330FAA0BBB0B9C013C
:10127000AD012F5F3F4F4F4F5F4FBE016E197F098A
:10128000CB01770FAA0BBB0BBC01CD016F5F7F4F6A
:101290008F4F9F4F0E9423100E94D1068FEF82BB79
:1012A0008BBB85B38E7F85BBDF91CF911F910F9153
:1012B000FF90EF90DF90CF90BF90AF909F908F9076
:1012C000089585B38E7F85BB60E07FEE84E40E9445
:1012D0002E0760E070E085E40E942E076FE371E066
:1012E00086E40E942E0760E070E08EE40E942E07E4
:1012F00060E070E08FE40E942E0768E770E681E10D
:101300000E942E0782E20E941A0785B3806885BB7F
:1013100012BA1BBA60E07CE281E090E00E94D10644
:101320008FEF82BB8BBB85B38E7F85BB0895E42F87
:10133000F0E0F595E795F595E795F595E795F59541
:10134000E795F595E795687FE62BDC01EC934C710A
:1013500050E0440F551F440F551F440F551F30E0F8
:10136000359527953595279535952795422B1196D7
:101370004C930895FC01708361830895E42FF0E09D
:10138000F595E795F595E795F595E795F595E79545
:10139000F595E795687FE62BDC011296EC931297A2
:1013A0004C7150E0440F551F440F551F440F551FFB
:1013B00030E0359527953595279535952795422B1E
:1013C00013964C930895CF93DF93EC016C832FEF2A
:1013D0004FEF6FEF0E94970920E040E060E0CE0100
:1013E0000E94BE091E861D86DF91CF910895872F2A
:1013F0000E9421070895EF92FF920F931F93CF93BE
:10140000DF937C01E901DD232CF4620F731FD1957A
:10141000C195D10985B38E7F85BB9B012C0F3D1FE4
:101420008A01C7010E94BB08F70180818BBB8181C3
:1014300082BBBE01DD0F880B990B0E94D1068FEF96
:1014400082BB8BBB85B3816085BBDF91CF911F9140
:101450000F91FF90EF9008954F925F926F927F925D
:101460008F929F92AF92BF92CF92DF92EF92FF92B4
:101470000F931F93CF93DF933C014B015A017901E6
:1014800044245524421A530A820110161106CCF145
:10149000E2011C161D0694F1CC9FC001CD9F900D5A
:1014A000900D1124009F9001019F300D300D1124EB
:1014B000820F931FEE9C9001EF9C300D300D112494
:1014C00028173907CCF0CC24DD24CC1ADD0ACC0C4B
:1014D000DD1CC80DD91D9601A8014A0D5B1DBE017A
:1014E000C3010E94FB099601A501401B510BBE01DF
:1014F000C3010E94FB0902C02196CBCF0F5F1F4F93
:10150000C4CFDF91CF911F910F91FF90EF90DF90AB
:10151000CF90BF90AF909F908F907F906F905F9093
:101520004F900895AF92BF92CF92DF92EF92FF92C9
:101530000F931F93CF93DF93EC017A01890185B359
:101540008E7F85BB8C81811169C02989862F90E0AF
:10155000821B91094F85542F56955695569528898B
:1015600030E0529FB001539F700D1124869F60019F
:10157000879FD00C969FD00C112484E0C80ED11CFC
:10158000C701840F911D200F311F590141E0A41A9A
:10159000B10860E070E07FEF780F6E0D7F1D84E48E
:1015A0000E942E07B80185E40E942E07B50186E44B
:1015B0000E942E07B7018EE40E942E07B8018FE427
:1015C0000E942E0760E770E681E10E942E0782E20A
:1015D0000E941A0785B3806885BB2A8130E0322FCC
:1015E00022278B81282B488150E0542F4427898162
:1015F000482B6D857E856C0D7D1D88899F85899F13
:10160000C001112499230CF407969595879595951B
:101610008795959587950E9442066FC02989862FE8
:1016200090E0821B91094F85542F569556955695FB
:10163000288930E0529FB001539F700D1124869F7E
:101640006001879FD00C969FD00C112484E0C80EB7
:10165000D11CC701840F911D0197200F311F4985AF
:101660005A856B857C855A01AE18BF087A01E81A45
:10167000F90A60E070E07FEF720F600F711F84E481
:101680000E942E07B70185E40E942E07B50186E46B
:101690000E942E07B8018EE40E942E07B5018FE448
:1016A0000E942E0768E570E681E10E942E0782E223
:1016B0000E941A0785B3806885BB2A8130E0322FEB
:1016C00022278B81282B488150E0542F4427898181
:1016D000482B6D857E856C0D7D1D88899F85899F32
:1016E000C001112499230CF407969595879595953B
:1016F0008795959587950E94420685B3816085BB45
:10170000DF91CF911F910F91FF90EF90DF90CF90DD
:10171000BF90AF9008952F923F924F925F926F9239
:101720007F928F929F92AF92BF92CF92DF92EF9271
:10173000FF920F931F93CF93DF93CDB7DEB76B97D5
:101740000FB6F894DEBF0FBECDBF5C0169833A01CE
:1017500049011F8B0E8BB701FF0C880B990B0E9460
:101760009A0E29E23CE54FE85CE30E94650F698B25
:101770007A8B8B8B9C8B85B38E7F85BBD5015196E5
:101780008C91B9812B2F30E0281B3109F501878519
:101790008695869586959089899FC0011124289FFA
:1017A000A001299F500D389F500D11249A012C5FE4
:1017B0003F4F398F288F1D8AD50150968C91BD8956
:1017C000B81708F0FBC0412C512CF5018785869590
:1017D00086958695282F30E0421653060CF0E4C01B
:1017E0000584F685E02D888D998D840D951DE80F73
:1017F000F91F2490312C3A8E2B8EFA8DF83008F098
:10180000CFC02F2E312CB201660F771F660F771FC6
:10181000660F771F620D731DD5011F962C91EE89FF
:10182000FF892E9FC0012F9F900D1124680F791FF3
:10183000072E000C880B990B0E949A0E69837A83FD
:101840008B839C8369897A898B899C890E945D0E30
:101850006D837E838F8398879B01AC0169817A8138
:101860008B819C810E94650F6B017C01FD896F2F2C
:1018700070E080E090E00E949A0E69877A878B87FB
:101880009C8769897A898B899C890E94D20F6D8790
:101890007E878F87988B9B01AC0169857A858B85C4
:1018A0009C850E94650F9B01AC01C701B6010E9497
:1018B000F00D6B017C01B301072C000C880B990B18
:1018C0000E949A0EA70196010E94F10D0E94620EDD
:1018D0006B017C0129853A854B855C856D817E8114
:1018E0008F8198850E94650F6D837E838F83988793
:1018F0002D853E854F85588969817A818B819C81B0
:101900000E94650F9B01AC016D817E818F8198855E
:101910000E94F10D69837A838B839C83B401092C27
:10192000000C880B990B0E949A0E29813A814B81F9
:101930005C810E94F10D0E94620E8B010F5F1F4FB0
:1019400096012F5F3F4FAB01B601C5010E94BB0856
:1019500027E030E0221933094B8D842F90E002C03C
:10196000959587952A95E2F780FF0CC0D5016C917B
:1019700070E0762F662711968C91682BC5010E9426
:10198000F7090AC0F501628170E0762F662783812E
:10199000682BC5010E94F709FA8DFF5FFA8F2DCFE2
:1019A0002FEF421A520A11CF488D598D480F511D01
:1019B000598F488F5D895F5F5D8BFECE85B38160F7
:1019C00085BB6B960FB6F894DEBF0FBECDBFDF911F
:1019D000CF911F910F91FF90EF90DF90CF90BF902C
:1019E000AF909F908F907F906F905F904F903F90BF
:1019F0002F9008952F923F924F925F926F927F9215
:101A00008F929F92AF92BF92CF92DF92EF92FF920E
:101A10000F931F93CF93DF93EC01FB015A01290130
:101A20006801DB010D900020E9F71197A61BB70BA9
:101A30004D018C8181113EC04F30574281F44D8160
:101A40005E816F8178852F852A9FC0012B9F900D25
:101A50001124481B590B5A011FEFA11AB10A2EE09D
:101A6000A21627E2B20609F061C04D815E816F8146
:101A700078854F5F5F4F6F4F7F4F2F852A9FC00143
:101A80002B9F900D1124092E000CAA0BBB0B8A0171
:101A90009B01081B190B2A0B3B0BB901A80122F46F
:101AA0004F5F5F4F6F4F7F4F759567955795479580
:101AB0005A013CC04F30574281F449855A856B85A5
:101AC0007C852F852A9FC0012B9F900D1124481BD8
:101AD000590B5A012FEFA21AB20A3EE0A31637E2C1
:101AE000B30621F549855A856B857C854F5F5F4F2D
:101AF0006F4F7F4F2F852A9FC0012B9F900D112480
:101B0000092E000CAA0BBB0B8A019B01081B190BA9
:101B10002A0B3B0BB901A80122F44F5F5F4F6F4FB7
:101B20007F4F75956795579547955A01612C712C94
:101B3000681479043CF5C114D10499F48F85869D0D
:101B4000A001879D500D11244A0D5B1D1F011FEF41
:101B5000211A310A60819201CE010E94920AF1019C
:101B60000DC01F012FEF221A320A60817601830116
:101B70009201A501CE010E948B0BF1013FEF631A88
:101B8000730AD6CFDF91CF911F910F91FF90EF9005
:101B9000DF90CF90BF90AF909F908F907F906F908D
:101BA0005F904F903F902F900895DC011E967C939C
:101BB0006E931D97FB0184911F968C931F9731960E
:101BC000E4915096EC935097FB013296E491519634
:101BD000EC935197FB013396649152966C93089560
:101BE0005058BB27AA270E94080E0C94170F0E947A
:101BF000DE0E38F00E94E50E20F039F49F3F19F414
:101C000026F40C94DB0E0EF4E095E7FB0C94D50E55
:101C1000E92F0E943C0F58F3BA1762077307840735
:101C2000950720F079F4A6F50C945E0F0EF4E0957C
:101C30000B2EBA2FA02D0B01B90190010C01CA0186
:101C4000A0011124FF27591B99F0593F50F4503E31
:101C500068F11A16F040A22F232F342F4427585F23
:101C6000F3CF469537952795A795F0405395C9F73B
:101C70007EF41F16BA0B620B730B840BBAF09150F3
:101C8000A1F0FF0FBB1F661F771F881FC2F70EC092
:101C9000BA0F621F731F841F48F487957795679565
:101CA000B795F7959E3F08F0B0CF9395880F08F051
:101CB0009927EE0F9795879508950E94EE0EE3956C
:101CC0000C94280F0E94690E6894B1110C945F0F58
:101CD00008950E94440F88F09F5798F0B92F9927D4
:101CE000B751B0F0E1F0660F771F881F991F1AF007
:101CF000BA95C9F714C0B13091F00E945E0FB1E0FF
:101D000008950C945E0F672F782F8827B85F39F0FD
:101D1000B93FCCF3869577956795B395D9F73EF49F
:101D200090958095709561957F4F8F4F9F4F089547
:101D3000E89409C097FB3EF4909580957095619565
:101D40007F4F8F4F9F4F9923A9F0F92F96E9BB271B
:101D50009395F695879577956795B795F111F8CF97
:101D6000FAF4BB0F11F460FF1BC06F5F7F4F8F4F02
:101D70009F4F16C0882311F096E911C0772321F0F8
:101D80009EE8872F762F05C0662371F096E8862F90
:101D900070E060E02AF09A95660F771F881FDAF7E7
:101DA000880F9695879597F9089597F99F6780E82A
:101DB00070E060E008959FEF80EC089500240A949D
:101DC0001616170618060906089500240A94121616
:101DD00013061406050608950C94DB0E0E94440FAA
:101DE000D8F3E894E0E0BB279F57F0F02AED3FE0FE
:101DF00049EC06C0EE0FBB0F661F771F881F28F047
:101E0000B23A62077307840728F0B25A620B730B69
:101E1000840BE3959A9572F7803830F49A95BB0F4E
:101E2000661F771F881FD2F790480C94DC0F092E8D
:101E30000394000C11F4882352F0BB0F40F4BF2B25
:101E400011F460FF04C06F5F7F4F8F4F9F4F089565
:101E5000EF93E0FF07C0A2EA2AED3FE049EC5FEB19
:101E60000E94080E0E94170F0F90039401FC9058D7
:101E7000E4E5F0E00C94E80F57FD9058440F551F2F
:101E800059F05F3F71F04795880F97FB991F61F0FC
:101E90009F3F79F087950895121613061406551F73
:101EA000F2CF4695F1DF08C0161617061806991FDF
:101EB000F1CF86957105610508940895E894BB27D4
:101EC00066277727CB0197F908950E94780F0C9425
:101ED000170F0E94DE0E38F00E94E50E20F09523C9
:101EE00011F00C94D50E0C94DB0E11240C945F0FA2
:101EF0000E943C0F70F3959FC1F3950F50E0551F62
:101F0000629FF001729FBB27F00DB11D639FAA274E
:101F1000F00DB11DAA1F649F6627B00DA11D661F9D
:101F2000829F2227B00DA11D621F739FB00DA11DBE
:101F3000621F839FA00D611D221F749F3327A00D78
:101F4000611D231F849F600D211D822F762F6A2F14
:101F500011249F5750409AF0F1F088234AF0EE0F79
:101F6000FF1FBB1F661F771F881F91505040A9F7A6
:101F70009E3F510580F00C94D50E0C945F0F5F3F8F
:101F8000E4F3983ED4F3869577956795B795F795E2
:101F9000E7959F5FC1F7FE2B880F911D969587955A
:101FA00097F908959F930E94EE0E0F9007FCEE5F45
:101FB0000C94280F9F3F31F0915020F4879577952E
:101FC0006795B795880F911D9695879597F9089510
:101FD0009F938F937F936F93FF93EF939B01AC013C
:101FE0000E94650FEF91FF910E94FC0F2F913F918E
:101FF0004F915F910C94650FDF93CF931F930F93D5
:10200000FF92EF92DF927B018C01689406C0DA2E7A
:10201000EF010E94780FFE01E894A591259135917A
:1020200045915591A6F3EF010E94080EFE0197011C
:10203000A801DA9469F7DF90EF90FF900F911F915C
:10204000CF91DF910895DB018F939F930E9433100E
:10205000BF91AF91A29F800D911DA39F900DB29F44
:10206000900D112408950E943E10A59F900DB49FDD
:10207000900DA49F800D911D11240895A29FB00181
:10208000B39FC001A39F700D811D1124911DB29FAC
:0E209000700D811D1124911D0895F894FFCF4D
:06209E005261646921009B
:00000001FF
