:100000000C941C060C9426060C9426060C942606CA
:100010000C9426060C9426060C9426060C942606B0
:100020000C9426060C9426060C9426060C942606A0
:100030000C9426060C9426060C9426060C94260690
:100040000C9426060C9426060C9426060C94260680
:100050000C9426061010205F000000000000000035
:100060000000000000000000000000000000000090
:1000700000000000000000000000000007000F80EA
:100080000F800F800F800F80070007000000000026
:10009000070007000700000000000E380E380E3879
:1000A0000E380630000000000000000000000000D4
:1000B000000000000000000000000C300C300C308C
:1000C0007FFE7FFE0C300C300C300C307FFE7FFE4C
:1000D0000C300C300C3000000000024002400FF8E1
:1000E0001FF81A401A401FF00FF8025802581FF864
:1000F0001FF00240024000000000000000000E104F
:100100000E300E7000E001C0038007000E700C700E
:100110000870000000000000000000000F001980BF
:10012000198019800F000F080F9819F818F018E0BF
:1001300019F00F9800000000000000000700070001
:1001400007000E000000000000000000000000009A
:1001500000000000000000000000000000F001C0EE
:10016000038007000E000E000E000E000700038043
:1001700001C000F000000000000000000F0003803C
:1001800001C000E0007000700070007000E001C06D
:1001900003800F00000000000000000001801188B3
:1001A000099007E007E03FFC3FFC07E007E009900B
:1001B0001188018000000000000000000000000025
:1001C0000180018001800FF00FF00180018001802B
:1001D000000000000000000000000000000000001F
:1001E0000000000000000000000000000000070008
:1001F000070007000E0000000000000000000000E3
:100200000000000000001FF81FF8000000000000C0
:1002100000000000000000000000000000000000DE
:1002200000000000000000000000000000000700C7
:1002300007000700000000000000000000020006A8
:10024000000E001C0038007000E001C003800700B1
:100250000E001C0000000000000000000FF01C3821
:100260001C781CF81CF81DB81DB81F381F381E3824
:100270001C380FF000000000000000000180018029
:1002800003801F801F80038003800380038003801E
:1002900003801FF000000000000000000FE01C7051
:1002A0001C380038007000E001C0038007000E38E1
:1002B0001C381FF800000000000000000FE01C7058
:1002C0001C380038007003C003C0007000381C38B0
:1002D0001C700FE0000000000000000000E001E0E2
:1002E00003E006E00CE018E01FF81FF800E000E073
:1002F00000E003F800000000000000001FF81C00F0
:100300001C001C001C001FE01FF0007800381C3887
:100310001C700FE0000000000000000003E0070078
:100320000E001C001C001FF01FF81C381C381C3865
:100330001C380FF000000000000000001FFC1C1C17
:100340001C1C1C1C001C0038007000E001C0038055
:100350000380038000000000000000000FF01C3844
:100360001C381C381F3807E007E01CF81C381C3804
:100370001C380FF000000000000000000FF01C38D7
:100380001C381C381C381FF80FF800380038007073
:1003900000E007C0000000000000000000000000B6
:1003A000038003800380000000000380038003803B
:1003B000000000000000000000000000000000003D
:1003C000038003800380000000000380038003801B
:1003D00007000000000000000000007000E001C005
:1003E000038007000E001C001C000E0007000380A5
:1003F00001C000E0007000000000000000000000EC
:1004000000003FFC3FFC000000003FFC3FFC000000
:10041000000000000000000000001C000E000700AB
:10042000038001C000E00070007000E001C00380A4
:1004300007000E001C000000000003C00FF01E7833
:1004400018380038007000E001C001C00000000052
:1004500001C001C001C0000000000FF81C1C1C1CE2
:100460001C1C1C1C1CFC1CFC1CFC1CFC1C001C0084
:100470001C001FF007F800000000000003C007E0A8
:100480000E701C381C381C381C381FF81C381C38DF
:100490001C381C3800000000000000001FF00E385F
:1004A0000E380E380E380FF00FF00E380E380E38AA
:1004B0000E381FF0000000000000000007F00E38AA
:1004C0001C381C001C001C001C001C001C001C38DC
:1004D0000E3807F000000000000000001FE00E7062
:1004E0000E380E380E380E380E380E380E380E38DC
:1004F0000E701FE000000000000000001FF80E1842
:100500000E080E000E300FF00FF00E300E000E0829
:100510000E181FF800000000000000001FF80E1861
:100520000E080E000E300FF00FF00E300E000E0011
:100530000E001F00000000000000000007F00E3851
:100540001C381C381C001C001C001CF81C381C38F3
:100550000E3807F800000000000000001C701C703E
:100560001C701C701C701FF01FF01C701C701C7025
:100570001C701C7000000000000000000FE00380F1
:100580000380038003800380038003800380038053
:1005900003800FE0000000000000000001FC00707C
:1005A0000070007000700070007038703870387023
:1005B00038700FE000000000000000001E380E3808
:1005C0000E700EE00FC00F800F800FC00EE00E7097
:1005D0000E381E3800000000000000001F000E0052
:1005E0000E000E000E000E000E000E000E080E187B
:1005F0000E381FF800000000000000001C1C1E3C0C
:100600001F7C1FFC1FFC1DDC1C9C1C1C1C1C1C1CC0
:100610001C1C1C1C00000000000000001C1C1C1CFA
:100620001E1C1F1C1F9C1DDC1CFC1C7C1C3C1C1C61
:100630001C1C1C1C000000000000000003E007F070
:100640000E381C1C1C1C1C1C1C1C1C1C1C1C0E38CE
:1006500007F003E000000000000000001FF00E386B
:100660000E380E380E380FF00FF00E000E000E0090
:100670000E001F00000000000000000003E00F78E3
:100680000E381C1C1C1C1C1C1C1C1C7C1CFC0FF88D
:100690000FF8003800FC0000000000001FF00E38CA
:1006A0000E380E380E380FF00FF00E700E380E3870
:1006B0000E381E3800000000000000000FF01C384B
:1006C0001C381C381C000FE007F000381C381C38A0
:1006D0001C380FF000000000000000001FFC19CCC7
:1006E00011C401C001C001C001C001C001C001C0EE
:1006F00001C007F000000000000000001C701C702A
:100700001C701C701C701C701C701C701C701C7089
:100710001C700FE000000000000000001C701C7046
:100720001C701C701C701C701C701C701C700EE007
:1007300007C0038000000000000000001C1C1C1CFF
:100740001C1C1C1C1C1C1C9C1C9C1C9C0FF80FF8CB
:100750000770077000000000000000001C701C7093
:100760001C700EE007C00380038007C00EE01C7001
:100770001C701C7000000000000000001C701C7049
:100780001C701C701C700EE007C003800380038087
:1007900003800FE000000000000000001FF81C387C
:1007A0001838107000E001C0038007000E081C1804
:1007B0001C381FF8000000000000000007F00700D0
:1007C00007000700070007000700070007000700F1
:1007D000070007F0000000000000000010001800F3
:1007E0001C000E000700038001C000E0007000380C
:1007F000001C0007000000000000000007F000706F
:100800000070007000700070007000700070007068
:10081000007007F0000000000000018003C007E046
:100820000E701C38000000000000000000000000F6
:1008300000000000000000000000000000000000B8
:1008400000000000000000000000000000000000A8
:10085000000000007FFF7FFF000000001C001C0064
:10086000070007000000000000000000000000007A
:100870000000000000000000000000000000000078
:10088000000000000FE0007000700FF01C701C7082
:100890001C700FD800000000000000001E000E00B9
:1008A0000E000E000FF00E380E380E380E380E38CF
:1008B0000E381BF0000000000000000000000000E7
:1008C000000000000FE01C701C701C001C001C705D
:1008D0001C700FE0000000000000000000F8007035
:1008E000007000700FF01C701C701C701C701C706D
:1008F0001C700FD800000000000000000000000085
:10090000000000000FE01C701C701FF01C001C7029
:100910001C700FE0000000000000000003E0077002
:100920000770070007001FE01FE00700070007002F
:1009300007001FC0000000000000000000000000D1
:10094000000000000FD81C701C701C701C700FF091
:1009500007F000701C700FE0000000001E000E0089
:100960000E000E000EF00F380F380E380E380E380D
:100970000E381E38000000000000000001C001C059
:1009800001C000000FC001C001C001C001C001C012
:1009900001C00FF8000000000000000000700070AF
:1009A0000070000003F000700070007000700070B4
:1009B00000701C700CF007E0000000001E000E002C
:1009C0000E000E000E380E700EE00FC00EE00E701E
:1009D0000E381E3800000000000000000FC001C0EB
:1009E00001C001C001C001C001C001C001C001C0FF
:1009F00001C00FF80000000000000000000000002F
:100A0000000000001FF81C9C1C9C1C9C1C9C1C9C37
:100A10001C9C1C9C00000000000000000000000066
:100A2000000000001FE01C701C701C701C701C700B
:100A30001C701C700000000000000000000000009E
:100A4000000000000FE01C701C701C701C701C70FB
:100A50001C700FE00000000000000000000000001B
:100A6000000000001BF00E380E380E380E380E381D
:100A70000FF00E000E001F0000000000000000003C
:100A8000000000001FB038E038E038E038E038E01F
:100A90001FE000E000E001F00000000000000000A6
:100AA000000000001EF00FF80F380E000E000E00C0
:100AB0000E001F0000000000000000000000000009
:100AC000000000000FE01C301C300F8003E01870A5
:100AD00018700FE00000000000000000000001009E
:100AE000030007001FF0070007000700070007705A
:100AF000077003E00000000000000000000000009C
:100B0000000000001C701C701C701C701C701C709D
:100B10001C700FD800000000000000000000000062
:100B2000000000001C701C701C701C701C700EE01B
:100B300007C003800000000000000000000000006B
:100B4000000000001C1C1C1C1C1C1C9C1C9C0FF886
:100B500007700770000000000000000000000000A7
:100B6000000000001CE01CE00FC0078007800FC0E1
:100B70001CE01CE00000000000000000000000007D
:100B8000000000000E380E380E380E380E3807F010
:100B900003E000E001C01F80000000000000000032
:100BA000000000001FE018E011C0038007000E20C5
:100BB0001C601FE0000000000000000001F803803E
:100BC0000380038007001C001C00070003800380D3
:100BD000038001F800000000000001C001C001C056
:100BE00001C001C001C001C001C001C001C001C0FD
:100BF00001C001C001C00000000000001F8001C052
:100C000001C001C000E00038003800E001C001C0B0
:100C100001C01F8000000000000000001F1C3B9C62
:100C200039DC38F80000000000000000000000007F
:100C3000000000000000000011241FBECFE5D4E03A
:100C4000DEBFCDBF0E9496060C947B090C94000079
:100C500022278695779567952795769567952795A9
:100C60007695679527957695679527952295CB017B
:100C7000E5B3FE2F6894E6F9E894F6F9009711F1D0
:100C8000F5BBE5BBF5BBE5BBF5BBE5BBF5BBE5BB24
:100C9000F5BBE5BBF5BBE5BBF5BBE5BBF5BBE5BB14
:100CA000F5BBE5BBF5BBE5BBF5BBE5BBF5BBE5BB04
:100CB000F5BBE5BBF5BBE5BBF5BBE5BBF5BBE5BBF4
:100CC0000197F1F6203021F0F5BBE5BB2A95E1F75D
:100CD0000895AE98AE9A6150704080409040C9F738
:100CE0000895AF98112482BB1BBAAE98AE9A0895AE
:100CF000AF9A62BB8BBBAE98AE9A0895AF9A11249F
:100D000082BB1BBAAE98AE9A0895AF98112482BBED
:100D10001BBAAE98AE9AAF9A62BB7BBBAE98AE9A46
:100D200008958BBB62BBAE98AE9A0895CF93DF93C4
:100D3000CDB7DEB763970FB6F894DEBF0FBECDBF59
:100D4000CE0101960E94EA0761E0CE0101960E9461
:100D5000220964E570E0CE0101960E943609CE01B9
:100D600001960E94A40820E04AEF6FEFCE010196A1
:100D70000E94DA08F12C6F2D70E09B012C5E3F4F32
:100D800004E110E040E050E0CE0101960E944408EA
:100D900028EC2F1530F4CE0101960E94A408F12C06
:100DA00002C084E1F80E9FEF2FE382E091502040D3
:100DB0008040E1F700C00000DECF8FEF81BB8ABB2F
:100DC00084B3806884BB84B3806484BB84B3816053
:100DD00084BB87B3816087BB88B3816088BB84B3E1
:100DE000826084BB88B3826088BB87B3826087BB24
:100DF00085B3826085BB8FEF93E20197F1F700C066
:100E0000000085B38D7F85BB8FEF9BE60197F1F7DF
:100E100000C0000085B3826085BB8FEF9BE6019721
:100E2000F1F700C0000085B38E7F85BB61E070E004
:100E300080E00E94850664EA78EA83E00E948506E5
:100E400060E070E08CE00E9485066CE078E08DE068
:100E50000E94850660E07BE28EE00E94850667EBDB
:100E600070E08EE10E9485066FE37BE281E00E94E4
:100E7000850660E076E082E00E94850660E070E032
:100E800080E10E94850660E770E681E10E948506A8
:100E900060E070E085E00E94850660E070E086E03A
:100EA0000E9485066CE17FEE86E10E94850663E084
:100EB00070E087E10E94850663E372E087E00E94AC
:100EC000850660E070E08BE00E94850660E070E0DF
:100ED0008FE00E94850660E070E081E40E94850654
:100EE00060E070E082E40E94850660E070E088E4E3
:100EF0000E9485066FE371E089E40E94850660E048
:100F000070E08AE40E94850660E070E08BE40E9455
:100F1000850660E07FEE84E40E94850660E070E074
:100F200085E40E9485066FE371E086E40E948506F1
:100F300067E077E080E30E94850664E072E081E389
:100F40000E94850664E072E082E30E94850662E00A
:100F500075E083E30E94850667E075E084E30E9404
:100F6000850664E072E085E30E94850664E072E035
:100F700086E30E94850662E075E087E30E948506AD
:100F800062E073E08AE30E94850662E073E08BE32F
:100F90000E94850660E070E083E20E94850660E0C2
:100FA00070E084E20E94850660E070E885E20E94BD
:100FB000850660E070E08FE40E94850660E070E0E6
:100FC0008EE40E94850682E20E94710685B38160EC
:100FD00085BB08954FEE50E060E070E0FC01458372
:100FE0005683678370874FE351E060E070E041878C
:100FF0005287638774870E94DD060895EF92FF92FF
:101000000F931F93CF93DF93EB01E42EF52EFC019A
:101010004481413089F481859285A385B485AC01F2
:10102000461B570B821B930B202F312F042F152F9C
:10103000CE2DDF2DE82EF92E322F2227BE01620F92
:10104000731F84E40E9485066E2D7F2D85E40E9427
:101050008506602F712F86E40E948506BE018EE40E
:101060000E9485066E2D7F2D8FE40E94850682E208
:101070000E94710685B3806885BBDF91CF911F9177
:101080000F91FF90EF9008958F929F92AF92BF9231
:10109000CF92DF92EF92FF920F931F93CF93DF9344
:1010A0004C015B017A016901E8012617370724F436
:1010B0008B2D5901C62ED82ECE15DF052CF49E2D72
:1010C0008F2D7E01C92FD82F85B38E7F85BB8E01D2
:1010D0009601A701B501C4010E94FE07F4018081B9
:1010E0008BBB818182BB96012A193B09C901330F51
:1010F000AA0BBB0B9C01AD012F5F3F4F4F4F5F4FC2
:10110000BE016E197F09CB01770FAA0BBB0BBC0187
:10111000CD016F5F7F4F8F4F9F4F0E9451090E94FB
:1011200028068FEF82BB8BBB85B38E7F85BBDF919B
:10113000CF911F910F91FF90EF90DF90CF90BF90D4
:10114000AF909F908F90089585B38E7F85BB60E0B0
:101150007FEE84E40E94850660E070E085E40E94F2
:1011600085066FE371E086E40E94850660E070E02A
:101170008EE40E94850660E070E08FE40E948506A0
:1011800068E770E681E10E94850682E20E947106AE
:1011900085B3806885BB12BA1BBA60E07CE281E04F
:1011A00090E00E9428068FEF82BB8BBB85B38E7FB9
:1011B00085BB0895E42FF0E0F595E795F595E79563
:1011C000F595E795F595E795F595E795687FE62B15
:1011D000DC01EC934C7150E0440F551F440F551F38
:1011E000440F551F30E03595279535952795359552
:1011F0002795422B11964C930895E42FF0E0F59536
:10120000E795F595E795F595E795F595E795F595C6
:10121000E795687FE62BDC011296EC9312974C71F0
:1012200050E0440F551F440F551F440F551F30E029
:10123000359527953595279535952795422B139606
:101240004C930895CF93DF93EC016C832FEF4FEF16
:101250006FEF0E94DA0820E040E060E0CE010E94DB
:10126000FD081E861D86DF91CF910895DC011E9634
:101270007C936E931D97FB0184911F968C931F970F
:101280003196E4915096EC935097FB013296E4919D
:101290005196EC935197FB013396649152966C935F
:1012A0000895DB018F939F930E946109BF91AF91D5
:1012B000A29F800D911DA39F900DB29F900D1124B0
:1012C00008950E946C09A59F900DB49F900DA49F56
:1012D000800D911D11240895A29FB001B39FC001FC
:1012E000A39F700D811D1124911DB29F700D811D52
:0A12F0001124911D0895F894FFCF1A
:00000001FF
