:100000000C942C060C9454060C9454060C94540630
:100010000C9454060C9454060C9454060C945406F8
:100020000C9454060C9454060C9454060C945406E8
:100030000C9454060C9454060C9454060C945406D8
:100040000C9454060C9454060C9454060C945406C8
:100050000C94540605A84CCDB2D44EB93836A9023A
:100060000C50B9918688083CA6AAAA2ABE000000B6
:10007000803F1010205F0000000000000000000022
:100080000000000000000000000000000000000070
:100090000000000000000000000007000F800F803B
:1000A0000F800F800F80070007000000000007008E
:1000B00007000700000000000E380E380E380E381A
:1000C00006300000000000000000000000000000FA
:1000D00000000000000000000C300C300C307FFEEF
:1000E0007FFE0C300C300C300C307FFE7FFE0C306D
:1000F0000C300C3000000000024002400FF81FF8E6
:100100001A401A401FF00FF8025802581FF81FF04B
:100110000240024000000000000000000E100E30FF
:100120000E7000E001C0038007000E700C700870B4
:10013000000000000000000000000F00198019807E
:1001400019800F000F080F9819F818F018E019F02F
:100150000F980000000000000000070007000700E3
:100160000E00000000000000000000000000000081
:100170000000000000000000000000F001C003804B
:1001800007000E000E000E000E000700038001C0E5
:1001900000F000000000000000000F00038001C01C
:1001A00000E0007000700070007000E001C003808B
:1001B0000F0000000000000000000180118809907D
:1001C00007E007E03FFC3FFC07E007E009901188EB
:1001D000018000000000000000000000000001801D
:1001E000018001800FF00FF001800180018000008C
:1001F00000000000000000000000000000000000FF
:1002000000000000000000000000000007000700E0
:1002100007000E00000000000000000000000000C9
:10022000000000001FF81FF80000000000000000A0
:1002300000000000000000000000000000000000BE
:1002400000000000000000000000000007000700A0
:100250000700000000000000000000020006000E81
:10026000001C0038007000E001C0038007000E0091
:100270001C0000000000000000000FF01C381C787B
:100280001CF81CF81DB81DB81F381F381E381C3844
:100290000FF00000000000000000018001800380DA
:1002A0001F801F80038003800380038003800380FE
:1002B0001FF000000000000000000FE01C701C3860
:1002C0000038007000E001C0038007000E381C38C1
:1002D0001FF800000000000000000FE01C701C3838
:1002E0000038007003C003C0007000381C381C7058
:1002F0000FE0000000000000000000E001E003E06B
:1003000006E00CE018E01FF81FF800E000E000E055
:1003100003F800000000000000001FF81C001C0093
:100320001C001C001FE01FF0007800381C381C70F7
:100330000FE0000000000000000003E007000E00D6
:100340001C001C001FF01FF81C381C381C381C38FF
:100350000FF000000000000000001FFC1C1C1C1C13
:100360001C1C001C0038007000E001C003800380EA
:10037000038000000000000000000FF01C381C3853
:100380001C381F3807E007E01CF81C381C381C38E4
:100390000FF000000000000000000FF01C381C38B7
:1003A0001C381C381FF80FF800380038007000E0C7
:1003B00007C00000000000000000000000000380F3
:1003C000038003800000000003800380038000009E
:1003D000000000000000000000000000000003809A
:1003E0000380038000000000038003800380070077
:1003F0000000000000000000007000E001C0038069
:1004000007000E001C001C000E000700038001C046
:1004100000E000700000000000000000000000008C
:100420003FFC3FFC000000003FFC3FFC00000000E0
:1004300000000000000000001C000E000700038008
:1004400001C000E00070007000E001C00380070000
:100450000E001C000000000003C00FF01E781838CA
:100460000038007000E001C001C00000000001C0C1
:1004700001C001C0000000000FF81C1C1C1C1C1C4B
:100480001C1C1CFC1CFC1CFC1CFC1C001C001C0080
:100490001FF007F800000000000003C007E00E7026
:1004A0001C381C381C381C381FF81C381C381C38E9
:1004B0001C3800000000000000001FF00E380E384D
:1004C0000E380E380FF00FF00E380E380E380E388A
:1004D0001FF0000000000000000007F00E381C387C
:1004E0001C001C001C001C001C001C001C380E38CA
:1004F00007F000000000000000001FE00E700E3842
:100500000E380E380E380E380E380E380E380E7083
:100510001FE000000000000000001FF80E180E0889
:100520000E000E300FF00FF00E300E000E080E18F9
:100530001FF800000000000000001FF80E180E0851
:100540000E000E300FF00FF00E300E000E000E00F9
:100550001F00000000000000000007F00E381C38EB
:100560001C381C001C001C001CF81C381C380E38E1
:1005700007F800000000000000001C701C701C70D8
:100580001C701C701FF01FF01C701C701C701C7005
:100590001C7000000000000000000FE003800380DA
:1005A0000380038003800380038003800380038033
:1005B0000FE0000000000000000001FC007000706F
:1005C00000700070007000703870387038703870CB
:1005D0000FE000000000000000001E380E380E7012
:1005E0000EE00FC00F800F800FC00EE00E700E38AF
:1005F0001E3800000000000000001F000E000E006A
:100600000E000E000E000E000E000E080E180E3822
:100610001FF800000000000000001C1C1E3C1F7C96
:100620001FFC1FFC1DDC1C9C1C1C1C1C1C1C1C1C03
:100630001C1C00000000000000001C1C1C1C1E1CD8
:100640001F1C1F9C1DDC1CFC1C7C1C3C1C1C1C1C43
:100650001C1C000000000000000003E007F00E3842
:100660001C1C1C1C1C1C1C1C1C1C1C1C0E3807F0FD
:1006700003E000000000000000001FF00E380E38FC
:100680000E380E380FF00FF00E000E000E000E00A8
:100690001F00000000000000000003E00F780E388B
:1006A0001C1C1C1C1C1C1C1C1C7C1CFC0FF80FF8AC
:1006B000003800FC0000000000001FF00E380E386B
:1006C0000E380E380FF00FF00E700E380E380E3850
:1006D0001E3800000000000000000FF01C381C381D
:1006E0001C381C000FE007F000381C381C381C3880
:1006F0000FF000000000000000001FFC19CC11C426
:1007000001C001C001C001C001C001C001C001C0E1
:1007100007F000000000000000001C701C701C703E
:100720001C701C701C701C701C701C701C701C7069
:100730000FE000000000000000001C701C701C7026
:100740001C701C701C701C701C701C700EE007C0AC
:10075000038000000000000000001C1C1C1C1C1C6E
:100760001C1C1C1C1C9C1C9C1C9C0FF80FF807706C
:10077000077000000000000000001C701C701C705E
:100780000EE007C00380038007C00EE01C701C70E1
:100790001C7000000000000000001C701C701C7029
:1007A0001C701C700EE007C0038003800380038070
:1007B0000FE000000000000000001FF81C3818388F
:1007C000107000E001C0038007000E081C181C38E0
:1007D0001FF8000000000000000007F007000700FD
:1007E00007000700070007000700070007000700D1
:1007F00007F00000000000000000100018001C00BE
:100800000E000700038001C000E000700038001CEB
:100810000007000000000000000007F000700070FA
:100820000070007000700070007000700070007048
:1008300007F0000000000000018003C007E00E7018
:100840001C38000000000000000000000000000054
:100850000000000000000000000000000000000098
:100860000000000000000000000000000000000088
:1008700000007FFF7FFF000000001C001C0007003D
:100880000700000000000000000000000000000061
:100890000000000000000000000000000000000058
:1008A00000000FE0007000700FF01C701C701C70D6
:1008B0000FD800000000000000001E000E000E0017
:1008C0000E000FF00E380E380E380E380E380E3877
:1008D0001BF000000000000000000000000000000D
:1008E00000000FE01C701C701C001C001C701C70B1
:1008F0000FE0000000000000000000F80070007031
:1009000000700FF01C701C701C701C701C701C7030
:100910000FD80000000000000000000000000000F0
:1009200000000FE01C701C701FF01C001C701C707D
:100930000FE0000000000000000003E007700770F7
:10094000070007001FE01FE007000700070007007F
:100950001FC00000000000000000000000000000B8
:1009600000000FD81C701C701C701C700FF007F07A
:1009700000701C700FE0000000001E000E000E0052
:100980000E000EF00F380F380E380E380E380E38B5
:100990001E38000000000000000001C001C001C0BE
:1009A00000000FC001C001C001C001C001C001C0F2
:1009B0000FF80000000000000000007000700070E0
:1009C000000003F000700070007000700070007094
:1009D0001C700CF007E0000000001E000E000E006E
:1009E0000E000E380E700EE00FC00EE00E700E38C6
:1009F0001E3800000000000000000FC001C001C050
:100A000001C001C001C001C001C001C001C001C0DE
:100A10000FF80000000000000000000000000000CF
:100A200000001FF81C9C1C9C1C9C1C9C1C9C1C9C5F
:100A30001C9C0000000000000000000000000000FE
:100A400000001FE01C701C701C701C701C701C705F
:100A50001C7000000000000000000000000000000A
:100A600000000FE01C701C701C701C701C701C704F
:100A70000FE0000000000000000000000000000087
:100A800000001BF00E380E380E380E380E380FF0FE
:100A90000E000E001F00000000000000000000001B
:100AA00000001FB038E038E038E038E038E01FE000
:100AB00000E000E001F00000000000000000000085
:100AC00000001EF00FF80F380E000E000E000E0092
:100AD0001F000000000000000000000000000000F7
:100AE00000000FE01C301C300F8003E018701870FD
:100AF0000FE0000000000000000000000100030003
:100B000007001FF0070007000700070007700770C5
:100B100003E00000000000000000000000000000F2
:100B200000001C701C701C701C701C701C701C70F1
:100B30000FD80000000000000000000000000000CE
:100B400000001C701C701C701C701C700EE007C034
:100B50000380000000000000000000000000000012
:100B600000001C1C1C1C1C1C1C9C1C9C0FF80770EF
:100B700007700000000000000000000000000000FE
:100B800000001CE01CE00FC0078007800FC01CE0C5
:100B90001CE0000000000000000000000000000059
:100BA00000000E380E380E380E380E3807F003E00D
:100BB00000E001C01F8000000000000000000000F5
:100BC00000001FE018E011C0038007000E201C6029
:100BD0001FE0000000000000000001F80380038017
:100BE000038007001C001C000700038003800380B3
:100BF00001F800000000000001C001C001C001C0F8
:100C000001C001C001C001C001C001C001C001C0DC
:100C100001C001C00000000000001F8001C001C031
:100C200001C000E00038003800E001C001C001C090
:100C30001F8000000000000000001F1C3B9C39DCEE
:100C400038F8000000000000000000000000000074
:100C5000000000000000000D11241FBECFE5D4E00D
:100C6000DEBFCDBF20E0A4E6B0E001C01D92A738F2
:100C7000B207E1F710E0A0E6B0E0E8E5FCE302C06F
:100C800005900D92A436B107D9F716E0CCE2D6E074
:100C900004C02197FE010E94A81DCB32D107C9F7DD
:100CA0000E94B90C0C942A1E0C940000A5B3BA2F14
:100CB0006894A6F9E894B6F9FB01059007FA1EF4CA
:100CC00042BB5BBB02C022BB3BBBB5BBA5BB06FAAC
:100CD0001EF442BB5BBB02C022BB3BBBB5BBA5BB8A
:100CE00005FA1EF442BB5BBB02C022BB3BBBB5BBDB
:100CF000A5BB04FA1EF442BB5BBB02C022BB3BBBDC
:100D0000B5BBA5BB03FA1EF442BB5BBB02C022BB52
:100D10003BBBB5BBA5BB02FA1EF442BB5BBB02C02A
:100D200022BB3BBBB5BBA5BB01FA1EF442BB5BBB00
:100D300002C022BB3BBBB5BBA5BB00FA1EF442BB45
:100D40005BBB02C022BB3BBBB5BBA5BB8150904087
:100D50008030910511F00C945D060895A5B3BA2F6B
:100D60006894A6F9E894B6F9FB0105900BBA0590D2
:100D700002BAB5BBA5BB815090408030910511F0FF
:100D80000C94B5060895A5B3BA2F6894A6F9E89413
:100D9000B6F9FC01112425912030A9F027FB56F467
:100DA0002F7705900BBA059002BAB5BBA5BB2A9563
:100DB000E1F7F1CF05900BBA059002BAB5BBA5BB20
:100DC0002A95C1F7E8CF00240895222786957795C4
:100DD00067952795769567952795769567952795D5
:100DE0007695679527952295CB01E5B3FE2F6894FC
:100DF000E6F9E894F6F9009711F1F5BBE5BBF5BB10
:100E0000E5BBF5BBE5BBF5BBE5BBF5BBE5BBF5BBA2
:100E1000E5BBF5BBE5BBF5BBE5BBF5BBE5BBF5BB92
:100E2000E5BBF5BBE5BBF5BBE5BBF5BBE5BBF5BB82
:100E3000E5BBF5BBE5BBF5BBE5BB0197F1F62030A3
:100E400021F0F5BBE5BB2A95E1F70895AE98AE9A7F
:100E50006150704080409040C9F70895AF981124C8
:100E600082BB1BBAAE98AE9A0895AF9A62BB8BBB99
:100E7000AE98AE9A0895AF9A112482BB1BBAAE9871
:100E8000AE9A0895AF98112482BB1BBAAE98AE9A61
:100E9000AF9A62BB7BBBAE98AE9A08958BBB62BB28
:100EA000AE98AE9A0895CF93DF93CDB7DEB786E3C1
:100EB00090E0FC018081882F90E08870992721E0E4
:100EC000892B09F020E0222311F081E001C080E0AD
:100ED000DF91CF910895CF93DF93CDB7DEB76297BF
:100EE0000FB6F894DEBF0FBECDBF80E90E943D0D66
:100EF0000E94590D882F90E0092E000CAA0BBB0B05
:100F0000BC01CD010E949A1BDC01CB0120E030E046
:100F100040EF52E4BC01CD010E94F01ADC01CB018C
:100F200020E030E040EA53E4BC01CD010E948E1C79
:100F3000DC01CB0120E030E040E751E4BC01CD0111
:100F40000E94791ADC01CB0189839A83AB83BC832D
:100F500080E00E943D0D80E090E0A0E2B1E48D834E
:100F60009E83AF83B88726E636E646EE54E46D816D
:100F70007E818F8198850E948E1CDC01CB01898740
:100F80009A87AB87BC8720E030E040E85FE3698563
:100F90007A858B859C850E94E61A88232CF481E053
:100FA00090E09E878D873FC020E03FEF4FE757E4FA
:100FB00069857A858B859C850E94891C18164CF55D
:100FC00020E030E040E251E46D817E818F819885A0
:100FD0000E948E1CDC01CB01BC01CD010E94691B6B
:100FE000DC01CB019E878D870FC088EB90E0988B4A
:100FF0008F878F8598890197F1F7988B8F878D85DB
:101000009E8501979E878D878D859E85892B69F7A3
:1010100014C069857A858B859C850E94691BDC01DB
:10102000CB019E878D878D859E859A8B898B89893B
:101030009A890197F1F79A8B898B69817A818B81E3
:101040009C810E94691BDC01CB0162960FB6F8946B
:10105000DEBF0FBECDBFDF91CF910895CF93DF9359
:10106000CDB7DEB762970FB6F894DEBF0FBECDBF27
:1010700019821A821B821C822CC080ED0E943D0DB9
:101080000E94590D882F90E0092E000CAA0BBB0B73
:10109000BC01CD010E949A1BDC01CB0120E030E0B5
:1010A00040EF52E4BC01CD010E94F01ADC01CB01FB
:1010B00020E030E040E753E4BC01CD010E948E1CEB
:1010C000DC01CB0189839A83AB83BC8380E00E94DF
:1010D0003D0D20E030E0A90169817A818B819C81FE
:1010E0000E94E61A18164CF680E090E0A0E2B1E407
:1010F0008D839E83AF83B88726E636E646EE54E4BA
:101100006D817E818F8198850E948E1CDC01CB01D0
:1011100089879A87AB87BC8720E030E040E85FE3AF
:1011200069857A858B859C850E94E61A88232CF434
:1011300081E090E09E878D873FC020E03FEF4FE742
:1011400057E469857A858B859C850E94891C1816D1
:101150004CF520E030E040E251E46D817E818F81EA
:1011600098850E948E1CDC01CB01BC01CD010E9440
:10117000691BDC01CB019E878D870FC088EB90E057
:10118000988B8F878F8598890197F1F7988B8F8738
:101190008D859E8501979E878D878D859E85892B60
:1011A00069F714C069857A858B859C850E94691BC7
:1011B000DC01CB019E878D878D859E859A8B898BDF
:1011C00089899A890197F1F79A8B898B69817A814C
:1011D0008B819C810E94691BDC01CB0162960FB65A
:1011E000F894DEBF0FBECDBFDF91CF910895CF93AE
:1011F000DF9300D0CDB7DEB71A8229C00E94091E46
:101200008F709078992324F40197806F9F6F0196D7
:10121000898307C089818F5F89838981803108F044
:1012200019828981882F90E089589F4FFC01808125
:10123000882381F78981882F90E02A8127702F5F8A
:1012400089589F4FFC0120838A818F5F8A838A811E
:101250008031A0F20F900F90DF91CF910895CF933E
:10126000DF9300D000D0CDB7DEB700000E94530757
:10127000982F81E089278823C9F70E946B079A83FA
:1012800089830E942E089C838B8389819A81889709
:1012900078F089819A818F35910550F48B819C81FA
:1012A000892B31F08B819C81C89710F481E03EC17D
:1012B00089819A818536910578F089819A818C3966
:1012C000910550F48B819C81892B31F08B819C811D
:1012D000C89710F482E02AC189819A81823A9105E7
:1012E00078F089819A81893D910550F48B819C81A8
:1012F000892B31F08B819C81C89710F483E016C153
:1013000089819A818F3D910578F089819A81863112
:10131000914050F48B819C81892B31F08B819C8191
:10132000C89710F484E002C189819A81889780F07F
:1013300089819A818F35910558F48B819C81CE9754
:1013400038F08B819C818537910510F485E0EEC0E3
:1013500089819A818536910580F089819A818C39BD
:10136000910558F48B819C81CE9738F08B819C81BC
:101370008537910510F486E0D9C089819A81823A37
:10138000910580F089819A81893D910558F48B817E
:101390009C81CE9738F08B819C818537910510F424
:1013A00087E0C4C089819A818F3D910580F0898151
:1013B0009A818631914058F48B819C81CE9738F088
:1013C0008B819C818537910510F488E0AFC08981BD
:1013D0009A81889788F089819A818F35910560F488
:1013E0008B819C818B37910538F08B819C81823B6E
:1013F000910510F489E09AC089819A81853691051A
:1014000088F089819A818C39910560F48B819C8167
:101410008B37910538F08B819C81823B910510F4CC
:101420008AE084C089819A81823A910588F0898115
:101430009A81893D910560F48B819C818B37910560
:1014400038F08B819C81823B910510F48BE06EC05B
:1014500089819A818F3D910588F089819A818631B1
:10146000914060F48B819C818B37910538F08B81A2
:101470009C81823B910510F48CE058C089819A814F
:10148000889788F089819A818F35910560F48B81E6
:101490009C81883B910538F08B819C818F3E910522
:1014A00010F48DE043C089819A818536910588F0DA
:1014B00089819A818C39910560F48B819C81883B6C
:1014C000910538F08B819C818F3E910510F48EE060
:1014D0002DC089819A81823A910588F089819A810B
:1014E000893D910560F48B819C81883B910538F0A2
:1014F0008B819C818F3E910510F48FE017C089810C
:101500009A818F3D910588F089819A818631914039
:1015100060F48B819C81883B910538F08B819C81A4
:101520008F3E910510F480E101C080E00F900F9094
:101530000F900F90DF91CF910895CF92EF92FF928D
:101540000F931F93CF93DF93CDB7DEB764970FB69A
:10155000F894DEBF0FBECDBF8C8B2FEF4FEF6FEF38
:1015600084E690E00E941A1262E770E084E690E060
:101570000E94141A1A8219821C821B828C89882F5D
:1015800090E083709927019729F487E290E09A838D
:10159000898323C08C89882F90E0837099270297D4
:1015A00029F484E690E09A83898317C08C89882F78
:1015B00090E083709927039729F481EA90E09A8359
:1015C00089830BC08C89882F90E083709927892BA1
:1015D00021F48EED90E09A8389838C89882331F001
:1015E0008C89853018F41C821B8220C08C89853040
:1015F00040F08C89893028F48DE390E09C838B83C4
:1016000015C08C89893040F08C898D3028F48AE7A8
:1016100090E09C838B830AC08C898D3038F08C8954
:10162000813120F487EB90E09C838B838C89882F19
:1016300090E0019789589F4FFC0180818D838B81B9
:101640009C814496AC0189819A8144969C018D814C
:10165000882F90E0A0E0B0E06894CC24C5F8E12C9D
:10166000F12C8A01AC01BD0184E690E00E944C1887
:1016700080E090E0A8E4B3E48E839F83A887B987D5
:1016800026E636E646EE54E46E817F8188859985AC
:101690000E948E1CDC01CB018A879B87AC87BD87AB
:1016A00020E030E040E85FE36A857B858C859D859E
:1016B0000E94E61A88232CF481E090E09F878E87B1
:1016C0003FC020E03FEF4FE757E46A857B858C857C
:1016D0009D850E94891C18164CF520E030E040E200
:1016E00051E46E817F81888599850E948E1CDC0182
:1016F000CB01BC01CD010E94691BDC01CB019F879E
:101700008E870FC088EB90E0998B888B88899989A8
:101710000197F1F7998B888B8E859F8501979F871D
:101720008E878E859F85892B69F714C06A857B8596
:101730008C859D850E94691BDC01CB019F878E876C
:101740008E859F859B8B8A8B8A899B890197F1F770
:101750009B8B8A8B64960FB6F894DEBF0FBECDBF0D
:10176000DF91CF911F910F91FF90EF90CF9008954F
:101770000F931F93CF93DF93CDB7DEB784E690E04E
:101780000E94BA110E94F7080FEE10E025E630E043
:1017900040E050E060E670E084E690E00E940F11C7
:1017A0000FEE10E022EA30E040E050E06DE970E03A
:1017B00084E690E00E940F110FEE10E02FED30E074
:1017C00040E050E06AED70E084E690E00E940F1186
:1017D0000DE310E026E131E048E350E067E270E01D
:1017E00084E690E00E940F110AE710E026E131E064
:1017F00045E750E067E270E084E690E00E940F1158
:1018000007EB10E026E131E042EB50E067E270E0E8
:1018100084E690E00E940F11DF91CF911F910F910C
:101820000895CF93DF93CDB7DEB765970FB6F894E1
:10183000DEBF0FBECDBF19820E942F09882F90E016
:101840009B838A83998181E089278823A9F00E945C
:101850006B079D838C830E942E089F838E832C812F
:101860003D818E819F81820F931F0E940E1E0E94D8
:10187000B80B81E089830AC08A819B81892B31F072
:101880008981882319F08A810E949D0A80E090E076
:10189000AAEFB3E488879987AA87BB8726E636E64E
:1018A00046EE54E4688579858A859B850E948E1C66
:1018B000DC01CB018C879D87AE87BF8720E030E0BD
:1018C00040E85FE36C857D858E859F850E94E61AE2
:1018D00088232CF481E090E0998B888B3FC020E036
:1018E0003FEF4FE757E46C857D858E859F850E948D
:1018F000891C18164CF520E030E040E251E4688580
:1019000079858A859B850E948E1CDC01CB01BC01F8
:10191000CD010E94691BDC01CB01998B888B0FC024
:1019200088EB90E09B8B8A8B8A899B890197F1F7E2
:101930009B8B8A8B888999890197998B888B888959
:101940009989892B69F714C06C857D858E859F8563
:101950000E94691BDC01CB01998B888B888999894E
:101960009D8B8C8B8C899D890197F1F79D8B8C8B3E
:1019700063CFCF93DF93CDB7DEB787E390E027E364
:1019800030E0F9012081277FFC0120830E940D0DAA
:1019900088E390E028E330E0F90120812F7EFC010C
:1019A000208361E084E690E00E944C1062E770E0E2
:1019B00084E690E00E94141A84E690E00E94BA1136
:1019C0000E94110CFDCFCF93DF9300D000D0CDB794
:1019D000DEB79A8389837C836B8389819A8101979F
:1019E00041F48B819C81019621F484E690E00E9471
:1019F00028100F900F900F900F90DF91CF910895C6
:101A0000CF93DF93CDB7DEB76FEF7FEF81E090E04C
:101A10000E94E30CDF91CF910895CF93DF93CDB770
:101A2000DEB787E390E027E330E0F9012081206B07
:101A3000FC01208387E390E027E330E0F901208177
:101A40002F7BFC01208388E390E028E330E0F9015C
:101A500020812061FC0120838DE290E021E5FC01E2
:101A600020838EE290E02EE230E0F90120812E7F8B
:101A7000FC012083DF91CF910895CF93DF9300D0B5
:101A8000CDB7DEB78A838FE290E02A81FC01208304
:101A900000008EE290E0FC0180818823D4F78FE281
:101AA00090E0FC01808189830F900F90DF91CF91AE
:101AB0000895CF93DF93CDB7DEB78FE290E02FEF9D
:101AC000FC01208300008EE290E0FC0180818823ED
:101AD000D4F78FE290E0FC018081DF91CF910895EF
:101AE000CF93DF93CDB7DEB7AA970FB6F894DEBFDA
:101AF0000FBECDBF81E390E02FEFFC0120838AE38E
:101B000090E02FEFFC01208384E390E024E330E0B9
:101B1000F90120812068FC01208384E390E024E324
:101B200030E0F90120812064FC01208384E390E00F
:101B300024E330E0F90120812160FC01208387E368
:101B400090E027E330E0F90120812160FC0120834F
:101B500088E390E028E330E0F90120812160FC0176
:101B6000208384E390E024E330E0F90120812260C7
:101B7000FC01208388E390E028E330E0F901208134
:101B80002260FC01208387E390E027E330E0F90145
:101B900020812260FC01208385E390E025E330E092
:101BA000F90120812260FC01208380E090E0A0EA1E
:101BB000B0E489839A83AB83BC8326E636E646EE9F
:101BC00054E469817A818B819C810E948E1CDC01A6
:101BD000CB018D839E83AF83B88720E030E040E85F
:101BE0005FE36D817E818F8198850E94E61A88234C
:101BF0002CF481E090E09A8789873FC020E03FEF96
:101C00004FE757E46D817E818F8198850E94891C02
:101C100018164CF520E030E040E251E469817A8109
:101C20008B819C810E948E1CDC01CB01BC01CD010B
:101C30000E94691BDC01CB019A8789870FC088EB62
:101C400090E09C878B878B859C850197F1F79C871B
:101C50008B8789859A8501979A87898789859A854F
:101C6000892B69F714C06D817E818F8198850E94D0
:101C7000691BDC01CB019A87898789859A859E87B4
:101C80008D878D859E850197F1F79E878D8785E3EA
:101C900090E025E330E0F90120812D7FFC012083D5
:101CA00080E090E0A0E7B1E48F87988BA98BBA8B96
:101CB00026E636E646EE54E46F85788989899A8966
:101CC0000E948E1CDC01CB018B8B9C8BAD8BBE8B61
:101CD00020E030E040E85FE36B897C898D899E8954
:101CE0000E94E61A88232CF481E090E0988F8F8B75
:101CF0003FC020E03FEF4FE757E46B897C898D8937
:101D00009E890E94891C18164CF520E030E040E2C4
:101D100051E46F85788989899A890E948E1CDC013B
:101D2000CB01BC01CD010E94691BDC01CB01988F66
:101D30008F8B0FC088EB90E09A8F898F898D9A8D59
:101D40000197F1F79A8F898F8F89988D0197988FD6
:101D50008F8B8F89988D892B69F714C06B897C894B
:101D60008D899E890E94691BDC01CB01988F8F8B26
:101D70008F89988D9C8F8B8F8B8D9C8D0197F1F720
:101D80009C8F8B8F85E390E025E330E0F901208183
:101D90002260FC01208380E090E0A0E7B1E48D8F19
:101DA0009E8FAF8FB8A326E636E646EE54E46D8DDF
:101DB0007E8D8F8D98A10E948E1CDC01CB0189A3A2
:101DC0009AA3ABA3BCA320E030E040E85FE369A1A5
:101DD0007AA18BA19CA10E94E61A88232CF481E0B1
:101DE00090E09EA38DA33FC020E03FEF4FE757E474
:101DF00069A17AA18BA19CA10E94891C18164CF59F
:101E000020E030E040E251E46D8D7E8D8F8D98A111
:101E10000E948E1CDC01CB01BC01CD010E94691B1C
:101E2000DC01CB019EA38DA30FC088EB90E098A7A7
:101E30008FA38FA198A50197F1F798A78FA38DA1E4
:101E40009EA101979EA38DA38DA19EA1892B69F7C9
:101E500014C069A17AA18BA19CA10E94691BDC011D
:101E6000CB019EA38DA38DA19EA19AA789A789A529
:101E70009AA50197F1F79AA789A785E390E025E352
:101E800030E0F90120812E7FFC01208361E070E0C9
:101E900080E00E94420764EA78EA83E00E944207F9
:101EA00060E070E08CE00E9442076CE078E08DE03A
:101EB0000E94420760E07BE28EE00E94420767EBEF
:101EC00070E08EE10E9442076FE37BE281E00E94B6
:101ED000420760E076E082E00E94420760E070E046
:101EE00080E10E94420760E770E681E10E944207BC
:101EF00060E070E085E00E94420760E070E086E00C
:101F00000E9442076CE17FEE86E10E94420763E097
:101F100070E087E10E94420763E372E087E00E947D
:101F2000420760E070E08BE00E94420760E070E0F2
:101F30008FE00E94420760E070E081E40E94420767
:101F400060E070E082E40E94420760E070E088E4B4
:101F50000E9442076FE371E089E40E94420760E05B
:101F600070E08AE40E94420760E070E08BE40E9427
:101F7000420760E07FEE84E40E94420760E070E088
:101F800085E40E9442076FE371E086E40E94420705
:101F900067E077E080E30E94420764E072E081E35B
:101FA0000E94420764E072E082E30E94420762E01E
:101FB00075E083E30E94420767E075E084E30E94D6
:101FC000420764E072E085E30E94420764E072E049
:101FD00086E30E94420762E075E087E30E944207C1
:101FE00062E073E08AE30E94420762E073E08BE301
:101FF0000E94420760E070E083E20E94420760E0D6
:1020000070E084E20E94420760E070E885E20E948E
:10201000420760E070E08FE40E94420760E070E0F9
:102020008EE40E94420782E20E942E0785E390E040
:1020300025E330E0F90120812160FC012083AA968C
:102040000FB6F894DEBF0FBECDBFDF91CF910895DC
:10205000CF93DF9300D0CDB7DEB79A8389832981F0
:102060003A818FEE90E0A0E0B0E0F901858396839D
:10207000A783B08729813A818FE391E0A0E0B0E0A7
:10208000F90181879287A387B4870E94700D0F9012
:102090000F90DF91CF910895CF93DF9300D01F92DF
:1020A000CDB7DEB79A8389836B8389819A812B812F
:1020B000FC01248389819A812FEF4FEF6FEF0E94FB
:1020C0001A1289819A8120E040E060E00E945F124C
:1020D00089819A81FC01168615860F900F900F90CA
:1020E000DF91CF9108950F931F93CF93DF93CDB7D7
:1020F000DEB760970FB6F894DEBF0FBECDBF9887EE
:102100008F837A8769875C874B873E872D87188BFB
:102110000F878F819885FC018481813009F044C04C
:1021200089859A859A8389838B859C859A878987F7
:1021300089819A819C878B878D859E859C838B83E3
:102140008F8598899E878D878B819C81988B8F87BF
:102150008F819885FC0181859285A385B4859C013A
:102160008B859C85A901481B590BCA019C878B87CD
:102170008F819885FC0181859285A385B4859C011A
:102180008F859889A901481B590BCA01988B8F87A5
:102190008B859C859E838D838F8598899C878B8773
:1021A0008D819E81988B8F878D859E85382F2227E4
:1021B00089859A85820F931FBC0184E40E9442079F
:1021C0008B859C85BC0185E40E9442078F85988998
:1021D000BC0186E40E94420789859A85BC018EE491
:1021E0000E9442078B859C85BC018FE40E944207B8
:1021F00082E20E942E0785E390E025E330E0F901BA
:1022000020812068FC01208360960FB6F894DEBF21
:102210000FBECDBFDF91CF911F910F9108950F9306
:102220001F93CF93DF93CDB7DEB72E970FB6F894F9
:10223000DEBF0FBECDBF9E838D8378876F835A87A5
:1022400049873C872B871E870D872F8138858B8593
:102250009C858217930764F48F8198859A8389837C
:102260008B859C8598878F8389819A819C878B87B2
:1022700029853A858D859E858217930764F4898523
:102280009A859C838B838D859E859A8789878B8190
:102290009C819E878D8785E390E025E330E0F901FE
:1022A00020812E7FFC012083ED85FE852B853C85DA
:1022B00049855A856F8178858D819E818F010E9425
:1022C00073108BE390E02D813E81F9012081FC01A8
:1022D000208382E390E02D813E81F9012181FC0180
:1022E00020832B853C858F819885A901481B590B3C
:1022F000CA01092E000CAA0BBB0B9C01AD012F5F7C
:102300003F4F4F4F5F4F6D857E8589859A85FB01D5
:10231000E81BF90BCF01092E000CAA0BBB0B019691
:10232000A11DB11DBC01CD010E944C1DDC01CB01E2
:10233000BC01CD010E94E50682E390E02FEFFC0195
:1023400020838BE390E02FEFFC01208385E390E076
:1023500025E330E0F90120812E7FFC0120832E96B9
:102360000FB6F894DEBF0FBECDBFDF91CF911F91A6
:102370000F910895CF93DF9300D0CDB7DEB79A8346
:10238000898385E390E025E330E0F90120812E7F09
:10239000FC01208360E07FEE84E40E94420760E05D
:1023A00070E085E40E9442076FE371E086E40E94DA
:1023B000420760E070E08EE40E94420760E070E057
:1023C0008FE40E94420768E770E681E10E944207BD
:1023D00082E20E942E0785E390E025E330E0F901D8
:1023E00020812068FC01208382E390E0FC011082C0
:1023F0008BE390E0FC01108260E07CE281E090E001
:102400000E94E50682E390E02FEFFC0120838BE33E
:1024100090E02FEFFC01208385E390E025E330E09E
:10242000F90120812E7FFC0120830F900F90DF9116
:10243000CF910895CF93DF9300D000D01F92CDB7F6
:10244000DEB79A8389836B834C832D838B81282FFE
:10245000287F8C81882F90E0959587959595879515
:10246000959587959595879595958795822B282F96
:1024700089819A81FC0120838C81882F90E08C7166
:102480009927880F991F880F991F880F991F282F48
:102490008D81882F90E09595879595958795959551
:1024A0008795822B282F89819A81FC0121830F90A7
:1024B0000F900F900F900F90DF91CF910895CF93D1
:1024C000DF9300D000D01F92CDB7DEB79A83898307
:1024D0006B834C832D838B81282F287F8C81882FC1
:1024E00090E0959587959595879595958795959580
:1024F000879595958795822B282F89819A81FC0154
:1025000022838C81882F90E08C719927880F991FE6
:10251000880F991F880F991F282F8D81882F90E091
:10252000959587959595879595958795822B282FD5
:1025300089819A81FC0123830F900F900F900F9057
:102540000F90DF91CF910895CF93DF9300D000D00B
:10255000CDB7DEB79A8389837C836B832B818B8194
:102560009C81892F9927622F0E9435070F900F9029
:102570000F900F90DF91CF910895CF93DF93CDB758
:10258000DEB7A1970FB6F894DEBF0FBECDBF9A8F0E
:10259000898F6B8F5D8F4C8F3F8F2E8F85E390E0FF
:1025A00025E330E0F90120812E7FFC012083898D15
:1025B0009A8DFC018481882309F0D4C08B8D282F4B
:1025C00030E0898D9A8DFC018189882F90E0A901E6
:1025D000481B590B898D9A8DFC01878586958695B8
:1025E0008695682F70E0898D9A8DFC018089882FEF
:1025F00090E0689F9001699F300D789F300D112405
:10260000429FC001439F900D529F900D112404964C
:102610009A8389838C8D9D8D9C838B83898D9A8DE4
:10262000FC018785282F30E08C8D9D8D820F931FB4
:1026300001979E838D838E8D9F8D98878F83898D43
:102640009A8DFC018089282F30E08E8D9F8D820F1E
:10265000931F01979A8789878D819E81382F222722
:102660008B819C81820F931FBC0184E40E944207EE
:102670008F819885BC0185E40E94420789859A85EF
:10268000BC0186E40E9442078B819C81BC018EE4E0
:102690000E9442078F819885BC018FE40E94420707
:1026A00060E770E681E10E94420782E20E942E0705
:1026B00085E390E025E330E0F90120812068FC010A
:1026C0002083898D9A8DFC018281882F90E0382F9C
:1026D0002227898D9A8DFC018381882F90E0822B9F
:1026E000932BDC01898D9A8DFC018081882F90E0ED
:1026F000382F2227898D9A8DFC018181882F90E0C7
:10270000822B932B99A388A3898D9A8DFC018585B3
:1027100096859C0189819A81B901680F791F898DFD
:102720009A8DFC018089282F30E0898D9A8DFC01DB
:102730008785882F90E0289FA001299F500D389F02
:10274000500D1124CA0199230CF40796959587958D
:1027500095958795959587959D0148A159A10E94CA
:10276000560617C18B8D282F30E0898D9A8DFC017C
:102770008189882F90E0A901481B590B898D9A8D7A
:10278000FC018785869586958695682F70E0898DF2
:102790009A8DFC018089882F90E0689F9001699F45
:1027A000300D789F300D1124429FC001439F900D42
:1027B000529F900D112404969A8389838C8D9D8D50
:1027C0009C878B87898D9A8DFC018785282F30E027
:1027D0008C8D9D8D820F931F01979E878D878E8D87
:1027E0009F8D988B8F87898D9A8DFC018089282FEA
:1027F00030E08E8D9F8D820F931F01979A8B898B6E
:102800008B859C859C8B8B8B8F8598899C878B87F0
:102810008B899C89988B8F878D859E859E8B8D8BD0
:1028200089899A899E878D878D899E899A8B898BC4
:10283000898D9A8DFC0181859285A385B4859C0143
:102840008F859889A901481B590BCA01988B8F87DE
:10285000898D9A8DFC0181859285A385B4859C0123
:1028600089899A89A901481B590BCA019A8B898BBE
:102870008F859889988F8F8B89899A89988B8F8774
:102880008F89988D9A8B898B8D859E85382F2227ED
:102890008B859C85820F931FBC0184E40E944207B4
:1028A0008F859889BC0185E40E94420789899A89AD
:1028B000BC0186E40E9442078B859C85BC018EE4A6
:1028C0000E94420789899A89BC018FE40E944207CD
:1028D00068E570E681E10E94420782E20E942E07CD
:1028E00085E390E025E330E0F90120812068FC01D8
:1028F0002083898D9A8DFC018281882F90E0382F6A
:102900002227898D9A8DFC018381882F90E0822B6C
:10291000932BDC01898D9A8DFC018081882F90E0BA
:10292000382F2227898D9A8DFC018181882F90E094
:10293000822B932B99A388A3898D9A8DFC01858581
:1029400096859C0189819A81B901680F791F898DCB
:102950009A8DFC018089282F30E0898D9A8DFC01A9
:102960008785882F90E0289FA001299F500D389FD0
:10297000500D1124CA0199230CF40796959587955B
:1029800095958795959587959D0148A159A10E9498
:10299000560685E390E025E330E0F90120812160CF
:1029A000FC012083A1960FB6F894DEBF0FBECDBF09
:1029B000DF91CF9108954F925F926F927F928F92A5
:1029C0009F92AF92BF92CF92DF92EF92FF920F93BE
:1029D0001F93CF93DF93CDB7DEB76D970FB6F89403
:1029E000DEBF0FBECDBF9C8B8B8B6D8B5F8B4E8BF9
:1029F000398F288F1B8F0A8FFD8EEC8E8C8D9D8DCD
:102A0000092E000CAA0BBB0BBC01CD010E949A1B26
:102A1000DC01CB0129E23CE54FE85CE3BC01CD01E0
:102A20000E948E1CDC01CB018F839887A987BA870F
:102A300085E390E025E330E0F90120812E7FFC0161
:102A400020838D89282F30E08B899C89FC01818926
:102A5000882F90E0A901481B590B8B899C89FC01A8
:102A60008785869586958695682F70E08B899C89E9
:102A7000FC018089882F90E0689F9001699F300D4C
:102A8000789F300D1124429FC001439F900D529FAB
:102A9000900D112404969C838B831A8299C11E8207
:102AA0001D8275C18B899C89FC01258536854D81E8
:102AB0005E818B819C81840F951F820F931F9C8761
:102AC0008B878B859C85FC0184918D878D858E8776
:102AD000198254C18E899F89092E000CAA0BBB0B49
:102AE000BC01CD010E949A1B6B017C018981282FBA
:102AF00030E08D819E81880F991F880F991F880F64
:102B0000991F280F391F8B899C89FC018785682FA5
:102B100070E04A8D5B8D649FC001659F900D749F2E
:102B2000900D1124820F931F092E000CAA0BBB0BD2
:102B3000BC01CD010E949A1B4B015C018F819885DD
:102B4000A985BA85BC01CD010E94EB1ADC01CB013D
:102B50009C01AD01C501B4010E948E1CDC01CB01BA
:102B60004C015D018A81882F90E0092E000CAA0B90
:102B7000BB0BBC01CD010E949A1B2B013C018F8134
:102B80009885A985BA85BC01CD010E94FB1CDC019A
:102B9000CB019C01AD01C301B2010E948E1CDC017E
:102BA000CB019C01AD01C501B4010E94791ADC0181
:102BB000CB019C01AD01C701B6010E947A1ADC016C
:102BC000CB01BC01CD010E94621BDC01CB01988BC3
:102BD0008F87888D998D092E000CAA0BBB0BBC0129
:102BE000CD010E949A1B6B017C018A81882F90E0A5
:102BF000092E000CAA0BBB0BBC01CD010E949A1B35
:102C00004B015C018F819885A985BA85BC01CD01F6
:102C10000E94EB1ADC01CB019C01AD01C501B4019E
:102C20000E948E1CDC01CB014C015D018981282FA3
:102C300030E08D819E81880F991F880F991F880F22
:102C4000991F280F391F8B899C89FC018785682F64
:102C500070E04A8D5B8D649FC001659F900D749FED
:102C6000900D1124820F931F092E000CAA0BBB0B91
:102C7000BC01CD010E949A1B2B013C018F819885DC
:102C8000A985BA85BC01CD010E94FB1CDC01CB01EA
:102C90009C01AD01C301B2010E948E1CDC01CB017D
:102CA0009C01AD01C501B4010E947A1ADC01CB017F
:102CB0009C01AD01C701B6010E947A1ADC01CB016B
:102CC000BC01CD010E94621BDC01CB019A8B898B78
:102CD00089899A890196FC018F85988901969C01C2
:102CE00049895A896F8578898B899C898F010E94CF
:102CF00073108E85882F90E02981222F30E047E0E5
:102D000050E0BA01621B730B9B0102C09595879539
:102D10002A95E2F781709927892BB9F08B899C89D4
:102D2000FC018081882F90E0382F22278B899C8995
:102D3000FC018181882F90E0822B932B9C018B8951
:102D40009C89B9010E94A41216C08B899C89FC0140
:102D50008281882F90E0382F22278B899C89FC0163
:102D60008381882F90E0822B932B9C018B899C89F7
:102D7000B9010E94A41289818F5F8983898188307B
:102D800008F4A8CE8D819E8101969E838D838B89C8
:102D90009C89FC018785869586958695282F30E04D
:102DA0008D819E81821793070CF47CCE8B899C8940
:102DB000FC018785869586958695882F90E02B81E6
:102DC0003C81820F931F9C838B838A818F5F8A83D0
:102DD0008B899C89FC0190898A81891708F45FCED0
:102DE00085E390E025E330E0F90120812160FC01DA
:102DF00020836D960FB6F894DEBF0FBECDBFDF9176
:102E0000CF911F910F91FF90EF90DF90CF90BF90E7
:102E1000AF909F908F907F906F905F904F900895AC
:102E2000EF92FF920F931F93CF93DF93CDB7DEB74F
:102E30002E970FB6F894DEBF0FBECDBF9E838D8355
:102E400078876F835A8749873C872B871E870D8732
:102E50008F8198850E94191E9C838B838D819E8112
:102E6000FC018481882309F05EC089859A858F30B2
:102E70009742F9F48D819E81FC0185819681A7811D
:102E8000B085AC018D819E81FC018785282F30E0C3
:102E90008B819C81289FB001299F700D389F700DF8
:102EA0001124CB017A01E81AF90AC70101969A8721
:102EB000898789859A858E30974209F090C08D81E7
:102EC0009E81FC0185819681A781B0859C01AD0121
:102ED0002F5F3F4F4F4F5F4F8D819E81FC01878554
:102EE000E82FF0E06B817C81E69FC001E79F900DA9
:102EF000F69F900D1124092E000CAA0BBB0B790133
:102F00008A01E81AF90A0A0B1B0BD801C701BB2377
:102F10001CF40196A11DB11DB595A79597958795B0
:102F20009A8789875CC089859A858F309742F9F4A2
:102F30008D819E81FC0181859285A385B485AC013C
:102F40008D819E81FC018785282F30E08B819C81BB
:102F5000289FB001299F700D389F700D1124CB015F
:102F60007A01E81AF90AC70101969A878987898543
:102F70009A858E30974299F58D819E81FC018185DD
:102F80009285A385B4859C01AD012F5F3F4F4F4FC4
:102F90005F4F8D819E81FC018785E82FF0E06B817A
:102FA0007C81E69FC001E79F900DF69F900D112454
:102FB000092E000CAA0BBB0B79018A01E81AF90A49
:102FC0000A0B1B0BD801C701BB231CF40196A11DE2
:102FD000B11DB595A795979587959A8789871A8288
:102FE000198245C08D859E85892B21F58D819E8115
:102FF000FC018785482F50E089819A81489F900184
:10300000499F300D589F300D112489859A85A9015B
:10301000480F591F8F8198859C012F5F3F4F38873C
:103020002F83FC0160812B853C858D819E810E94D0
:10303000BD1218C08F8198859C012F5F3F4F388744
:103040002F83FC01A081ED85FE8569817A812B8526
:103050003C8549855A858D819E817F018B016A2F30
:103060000E94DB1489819A8101969A838983298140
:103070003A818B819C81281739070CF4B3CF2E96A7
:103080000FB6F894DEBF0FBECDBFDF91CF911F9179
:103090000F91FF90EF900895CF92EF92FF920F93D0
:1030A0001F93CF93DF93CDB7DEB7C655D1090FB6C7
:1030B000F894DEBF0FBECDBF9FAF8EAFCE01805C58
:1030C0009F4FFC014083518362837383CE018C5BED
:1030D0009F4FFC0131832083CE018A5B9F4FFC010F
:1030E00011830083CE01885B9F4FFC01F182E08257
:1030F000CE01865B9F4FFC01C08219821B821A821F
:103100001D821C82CE01805C9F4FFC0180819181D9
:10311000A281B381892B8A2B8B2B09F045C0CE016C
:10312000885B9F4FFC0180819181892BC9F11B82B3
:103130001A8213C09E012D5D3F4F8A819B81820FB1
:10314000931F9E01265B3F4FF9012081FC012083E4
:103150008A819B8101969B838A83CE01885B9F4FE6
:10316000FC01808191819C01215031098A819B81E0
:1031700082179307FCF29E012D5D3F4F8A819B8150
:10318000820F931F20E3FC0120838A819B8101969B
:103190009E012D5D3F4F820F931FFC01108220C1C5
:1031A00080E38BA31CA21CC1CE01805C9F4FFC015D
:1031B00080819181A281B381BB23CCF481E089839A
:1031C0009E01205C3F4FCE01805C9F4FFC018081BF
:1031D0009181A281B381B095A095909581959F4FE3
:1031E000AF4FBF4FF90180839183A283B38354C053
:1031F000CE01805C9F4FFC0180819181A281B381CF
:103200002AE030E040E050E0BC01CD010E947E1D8C
:10321000DC01CB0140E3480F9E01265F3F4F8A81CE
:103220009B81820F931FFC0140838A819B810196C1
:103230009B838A83CE01805C9F4FFC0180819181BA
:10324000A281B3812AE030E040E050E0BC01CD0132
:103250000E947E1DDC01CB019C01AD01CE01805C92
:103260009F4FFC0180819181A281B381821B930BCE
:10327000A40BB50B8E01005C1F4F2AE030E040E04C
:1032800050E0BC01CD010E947E1DDA01C901F801A8
:1032900080839183A283B383CE01805C9F4FFC0126
:1032A00080819181A281B381181619061A061B0626
:1032B0000CF49ECF9E01265F3F4F8A819B81820F37
:1032C000931FFC0110828981882311F08DE28BA36A
:1032D0008981282F30E08A819B81280F391FCE01F8
:1032E000885B9F4FFC018081918128173907A4F5E5
:1032F0001F821E821DC08981282F30E08E819F8110
:10330000820F931F9E012D5D3F4F820F931F9E01E1
:10331000265B3F4FF9012081FC0120838C819D8138
:1033200001969D838C838E819F8101969F838E83DE
:10333000CE01885B9F4FFC01208131818A819B8176
:10334000281B390B8981882F90E0281B390B8E812F
:103350009F81821793077CF21986188628C089817D
:10336000282F30E088859985280F391F8C819D8111
:10337000820F931F4A815B8128853985BA01621BC0
:10338000730B9B0121503109AE01465F5F4F240F43
:10339000351FF90140819E012D5D3F4F820F931F24
:1033A000FC014083888599850196998788872885BF
:1033B00039858A819B81281739078CF28981282FCA
:1033C00030E08A819B81280F391F8C819D81820F7B
:1033D000931F9E012D5D3F4F820F931FFC011082B2
:1033E000CE018A5B9F4FFC0120813181CE018C5B35
:1033F0009F4FFC0140815181BE016D5D7F4F8EADBD
:103400009FAD00E010E00E941017CA5ADF4F0FB6C0
:10341000F894DEBF0FBECDBFDF91CF911F910F910A
:10342000FF90EF90CF900895CF93DF93CDB7DEB7A5
:1034300060970FB6F894DEBF0FBECDBF9E878D8715
:10344000788B6F878D859E852F853889FC0136871F
:1034500025878D859E85FC01858596859A83898340
:1034600089819A81FC0184918B838D859E852B8136
:10347000FC0127878D859E85FC01858596850196B3
:103480009D838C838C819D81FC0184918E838D85AD
:103490009E852E81FC01208B8D859E85FC01858576
:1034A0009685029698878F838F819885FC018491F9
:1034B00089878D859E852985FC01218B8D859E853B
:1034C000FC018585968503969B878A878A859B85DF
:1034D000FC0184918C878D859E852C85FC01228B37
:1034E00060960FB6F894DEBF0FBECDBFDF91CF91CF
:1034F00008955058BB27AA270E94911A0C943B1C90
:103500000E94021C38F00E94091C20F039F49F3FF1
:1035100019F426F40C94FF1B0EF4E095E7FB0C94D1
:10352000F91BE92F0E94601C58F3BA176207730752
:103530008407950720F079F4A6F50C94821C0EF40C
:10354000E0950B2EBA2FA02D0B01B90190010C01B3
:10355000CA01A0011124FF27591B99F0593F50F4CB
:10356000503E68F11A16F040A22F232F342F442723
:10357000585FF3CF469537952795A795F04053951B
:10358000C9F77EF41F16BA0B620B730B840BBAF0EB
:103590009150A1F0FF0FBB1F661F771F881FC2F756
:1035A0000EC0BA0F621F731F841F48F4879577956A
:1035B0006795B795F7959E3F08F0B0CF9395880F24
:1035C00008F09927EE0F9795879508950E94D51BCF
:1035D00008F481E008950E94121CE3950C944C1CA1
:1035E0000E94041B0C943B1C0E94091C58F00E9472
:1035F000021C40F029F45F3F29F00C94F91B511193
:103600000C94831C0C94FF1B0E94601C68F399238C
:10361000B1F3552391F3951B550BBB27AA276217CE
:103620007307840738F09F5F5F4F220F331F441FDB
:10363000AA1FA9F335D00E2E3AF0E0E832D091500F
:103640005040E695001CCAF72BD0FE2F29D0660FFC
:10365000771F881FBB1F261737074807AB07B0E83F
:1036600009F0BB0B802DBF01FF2793585F4F3AF045
:103670009E3F510578F00C94F91B0C94831C5F3F1E
:10368000E4F3983ED4F3869577956795B795F795CB
:103690009F5FC9F7880F911D9695879597F90895B3
:1036A000E1E0660F771F881FBB1F6217730784074F
:1036B000BA0720F0621B730B840BBA0BEE1F88F75E
:1036C000E09508950E94691B6894B1110C94831CC5
:1036D00008950E94681C88F09F5798F0B92F992789
:1036E000B751B0F0E1F0660F771F881F991F1AF0ED
:1036F000BA95C9F714C0B13091F00E94821CB1E0B4
:1037000008950C94821C672F782F8827B85F39F0B2
:10371000B93FCCF3869577956795B395D9F73EF485
:1037200090958095709561957F4F8F4F9F4F08952D
:10373000E89409C097FB3EF490958095709561954B
:103740007F4F8F4F9F4F9923A9F0F92F96E9BB2701
:103750009395F695879577956795B795F111F8CF7D
:10376000FAF4BB0F11F460FF1BC06F5F7F4F8F4FE8
:103770009F4F16C0882311F096E911C0772321F0DE
:103780009EE8872F762F05C0662371F096E8862F76
:1037900070E060E02AF09A95660F771F881FDAF7CD
:1037A000880F9695879597F90895990F0008550FFA
:1037B000AA0BE0E8FEEF16161706E807F907C0F0B7
:1037C00012161306E407F50798F0621B730B840BBF
:1037D000950B39F40A2661F0232B242B252B21F499
:1037E00008950A2609F4A140A6958FEF811D811D39
:1037F000089597F99F6780E870E060E008959FEF73
:1038000080EC089500240A94161617061806090677
:10381000089500240A941216130614060506089546
:103820000C94FF1B0E94681CD8F3E894E0E0BB27CF
:103830009F57F0F02AED3FE049EC06C0EE0FBB0FBA
:10384000661F771F881F28F0B23A62077307840744
:1038500028F0B25A620B730B840BE3959A9572F7BA
:10386000803830F49A95BB0F661F771F881FD2F7F8
:1038700090480C94051D092E0394000C11F4882324
:1038800052F0BB0F40F4BF2B11F460FF04C06F5F18
:103890007F4F8F4F9F4F0895EF93E0FF07C0A2EA3D
:1038A0002AED3FE049EC5FEB0E94911A0E943B1C1D
:1038B0000F90039401FC9058E4E5F0E00C94111D86
:1038C00057FD9058440F551F59F05F3F71F04795D1
:1038D000880F97FB991F61F09F3F79F087950895B6
:1038E000121613061406551FF2CF4695F1DF08C0D5
:1038F000161617061806991FF1CF869571056105F2
:1039000008940895E894BB2766277727CB0197F999
:1039100008950E94D51B08F48FEF08950E94A11C02
:103920000C943B1C0E94021C38F00E94091C20F0E1
:10393000952311F00C94F91B0C94FF1B11240C948B
:10394000831C0E94601C70F3959FC1F3950F50E09B
:10395000551F629FF001729FBB27F00DB11D639F41
:10396000AA27F00DB11DAA1F649F6627B00DA11DE7
:10397000661F829F2227B00DA11D621F739FB00D8D
:10398000A11D621F839FA00D611D221F749F3327FD
:10399000A00D611D231F849F600D211D822F762F96
:1039A0006A2F11249F5750409AF0F1F088234AF073
:1039B000EE0FFF1FBB1F661F771F881F91505040DF
:1039C000A9F79E3F510580F00C94F91B0C94831CC1
:1039D0005F3FE4F3983ED4F3869577956795B79566
:1039E000F795E7959F5FC1F7FE2B880F911D969580
:1039F000879597F908959F930E94121C0F9007FCDA
:103A0000EE5F0C944C1C9F3F31F0915020F4879551
:103A100077956795B795880F911D9695879597F936
:103A200008959F938F937F936F93FF93EF939B01E1
:103A3000AC010E948E1CEF91FF910E94251D2F91D9
:103A40003F914F915F910C948E1CDF93CF931F9306
:103A50000F93FF92EF92DF927B018C01689406C076
:103A6000DA2EEF010E94A11CFE01E894A591259198
:103A7000359145915591A6F3EF010E94911AFE01EF
:103A80009701A801DA9469F7DF90EF90FF900F910A
:103A90001F91CF91DF910895DB018F939F930E9437
:103AA0009D1DBF91AF91A29F800D911DA39F900D71
:103AB000B29F900D11240895A1E21A2EAA1BBB1BE0
:103AC000FD010DC0AA1FBB1FEE1FFF1FA217B307EA
:103AD000E407F50720F0A21BB30BE40BF50B661F00
:103AE000771F881F991F1A9469F7609570958095C4
:103AF00090959B01AC01BD01CF010895052E97FB68
:103B00001EF400940E94951D57FD07D00E945C1D75
:103B100007FC03D04EF40C94951D509540953095BC
:103B200021953F4F4F4F5F4F089590958095709529
:103B300061957F4F8F4F9F4F08950E94AE1DA59FA7
:103B4000900DB49F900DA49F800D911D1124089598
:103B5000EE0FFF1F0590F491E02D0994A29FB00194
:103B6000B39FC001A39F700D811D1124911DB29FB1
:103B7000700D811D1124911D08958F929F92AF9217
:103B8000BF92CF92DF92EF92FF92CF93DF93EC013F
:103B9000688179818A819B81611571058105910513
:103BA00021F464E279ED8BE597E02DE133EF41E01C
:103BB00050E00E947E1D49015A019B01AC01A7EA19
:103BC000B1E40E949D1D6B017C01ACEEB4EFA50138
:103BD00094010E94251EDC01CB018C0D9D1DAE1DA4
:103BE000BF1DB7FF03C00197A109B048888399831F
:103BF000AA83BB839F77DF91CF91FF90EF90DF90F7
:103C0000CF90BF90AF909F908F9008950E94BD1D60
:103C1000089580E690E00E94BD1D0895A0E0B0E008
:103C20008093600090936100A0936200B093630062
:103C30000895FC0101900020E9F7809590958E0F82
:103C40009F1F0895B7FF0C949D1D0E949D1D821B10
:083C5000930B0895F894FFCFD7
:043C58000100000067
:00000001FF
