:100000000C942C060C9454060C9454060C94540630
:100010000C9454060C9454060C9454060C945406F8
:100020000C9454060C9454060C9454060C945406E8
:100030000C9454060C9454060C9454060C945406D8
:100040000C9454060C9454060C9454060C945406C8
:100050000C94540605A84CCDB2D44EB93836A9023A
:100060000C50B9918688083CA6AAAA2ABE000000B6
:10007000803F1010205F0000000000000000000022
:100080000000000000000000000000000000000070
:100090000000000000000000000007000F800F803B
:1000A0000F800F800F80070007000000000007008E
:1000B00007000700000000000E380E380E380E381A
:1000C00006300000000000000000000000000000FA
:1000D00000000000000000000C300C300C307FFEEF
:1000E0007FFE0C300C300C300C307FFE7FFE0C306D
:1000F0000C300C3000000000024002400FF81FF8E6
:100100001A401A401FF00FF8025802581FF81FF04B
:100110000240024000000000000000000E100E30FF
:100120000E7000E001C0038007000E700C700870B4
:10013000000000000000000000000F00198019807E
:1001400019800F000F080F9819F818F018E019F02F
:100150000F980000000000000000070007000700E3
:100160000E00000000000000000000000000000081
:100170000000000000000000000000F001C003804B
:1001800007000E000E000E000E000700038001C0E5
:1001900000F000000000000000000F00038001C01C
:1001A00000E0007000700070007000E001C003808B
:1001B0000F0000000000000000000180118809907D
:1001C00007E007E03FFC3FFC07E007E009901188EB
:1001D000018000000000000000000000000001801D
:1001E000018001800FF00FF001800180018000008C
:1001F00000000000000000000000000000000000FF
:1002000000000000000000000000000007000700E0
:1002100007000E00000000000000000000000000C9
:10022000000000001FF81FF80000000000000000A0
:1002300000000000000000000000000000000000BE
:1002400000000000000000000000000007000700A0
:100250000700000000000000000000020006000E81
:10026000001C0038007000E001C0038007000E0091
:100270001C0000000000000000000FF01C381C787B
:100280001CF81CF81DB81DB81F381F381E381C3844
:100290000FF00000000000000000018001800380DA
:1002A0001F801F80038003800380038003800380FE
:1002B0001FF000000000000000000FE01C701C3860
:1002C0000038007000E001C0038007000E381C38C1
:1002D0001FF800000000000000000FE01C701C3838
:1002E0000038007003C003C0007000381C381C7058
:1002F0000FE0000000000000000000E001E003E06B
:1003000006E00CE018E01FF81FF800E000E000E055
:1003100003F800000000000000001FF81C001C0093
:100320001C001C001FE01FF0007800381C381C70F7
:100330000FE0000000000000000003E007000E00D6
:100340001C001C001FF01FF81C381C381C381C38FF
:100350000FF000000000000000001FFC1C1C1C1C13
:100360001C1C001C0038007000E001C003800380EA
:10037000038000000000000000000FF01C381C3853
:100380001C381F3807E007E01CF81C381C381C38E4
:100390000FF000000000000000000FF01C381C38B7
:1003A0001C381C381FF80FF800380038007000E0C7
:1003B00007C00000000000000000000000000380F3
:1003C000038003800000000003800380038000009E
:1003D000000000000000000000000000000003809A
:1003E0000380038000000000038003800380070077
:1003F0000000000000000000007000E001C0038069
:1004000007000E001C001C000E000700038001C046
:1004100000E000700000000000000000000000008C
:100420003FFC3FFC000000003FFC3FFC00000000E0
:1004300000000000000000001C000E000700038008
:1004400001C000E00070007000E001C00380070000
:100450000E001C000000000003C00FF01E781838CA
:100460000038007000E001C001C00000000001C0C1
:1004700001C001C0000000000FF81C1C1C1C1C1C4B
:100480001C1C1CFC1CFC1CFC1CFC1C001C001C0080
:100490001FF007F800000000000003C007E00E7026
:1004A0001C381C381C381C381FF81C381C381C38E9
:1004B0001C3800000000000000001FF00E380E384D
:1004C0000E380E380FF00FF00E380E380E380E388A
:1004D0001FF0000000000000000007F00E381C387C
:1004E0001C001C001C001C001C001C001C380E38CA
:1004F00007F000000000000000001FE00E700E3842
:100500000E380E380E380E380E380E380E380E7083
:100510001FE000000000000000001FF80E180E0889
:100520000E000E300FF00FF00E300E000E080E18F9
:100530001FF800000000000000001FF80E180E0851
:100540000E000E300FF00FF00E300E000E000E00F9
:100550001F00000000000000000007F00E381C38EB
:100560001C381C001C001C001CF81C381C380E38E1
:1005700007F800000000000000001C701C701C70D8
:100580001C701C701FF01FF01C701C701C701C7005
:100590001C7000000000000000000FE003800380DA
:1005A0000380038003800380038003800380038033
:1005B0000FE0000000000000000001FC007000706F
:1005C00000700070007000703870387038703870CB
:1005D0000FE000000000000000001E380E380E7012
:1005E0000EE00FC00F800F800FC00EE00E700E38AF
:1005F0001E3800000000000000001F000E000E006A
:100600000E000E000E000E000E000E080E180E3822
:100610001FF800000000000000001C1C1E3C1F7C96
:100620001FFC1FFC1DDC1C9C1C1C1C1C1C1C1C1C03
:100630001C1C00000000000000001C1C1C1C1E1CD8
:100640001F1C1F9C1DDC1CFC1C7C1C3C1C1C1C1C43
:100650001C1C000000000000000003E007F00E3842
:100660001C1C1C1C1C1C1C1C1C1C1C1C0E3807F0FD
:1006700003E000000000000000001FF00E380E38FC
:100680000E380E380FF00FF00E000E000E000E00A8
:100690001F00000000000000000003E00F780E388B
:1006A0001C1C1C1C1C1C1C1C1C7C1CFC0FF80FF8AC
:1006B000003800FC0000000000001FF00E380E386B
:1006C0000E380E380FF00FF00E700E380E380E3850
:1006D0001E3800000000000000000FF01C381C381D
:1006E0001C381C000FE007F000381C381C381C3880
:1006F0000FF000000000000000001FFC19CC11C426
:1007000001C001C001C001C001C001C001C001C0E1
:1007100007F000000000000000001C701C701C703E
:100720001C701C701C701C701C701C701C701C7069
:100730000FE000000000000000001C701C701C7026
:100740001C701C701C701C701C701C700EE007C0AC
:10075000038000000000000000001C1C1C1C1C1C6E
:100760001C1C1C1C1C9C1C9C1C9C0FF80FF807706C
:10077000077000000000000000001C701C701C705E
:100780000EE007C00380038007C00EE01C701C70E1
:100790001C7000000000000000001C701C701C7029
:1007A0001C701C700EE007C0038003800380038070
:1007B0000FE000000000000000001FF81C3818388F
:1007C000107000E001C0038007000E081C181C38E0
:1007D0001FF8000000000000000007F007000700FD
:1007E00007000700070007000700070007000700D1
:1007F00007F00000000000000000100018001C00BE
:100800000E000700038001C000E000700038001CEB
:100810000007000000000000000007F000700070FA
:100820000070007000700070007000700070007048
:1008300007F0000000000000018003C007E00E7018
:100840001C38000000000000000000000000000054
:100850000000000000000000000000000000000098
:100860000000000000000000000000000000000088
:1008700000007FFF7FFF000000001C001C0007003D
:100880000700000000000000000000000000000061
:100890000000000000000000000000000000000058
:1008A00000000FE0007000700FF01C701C701C70D6
:1008B0000FD800000000000000001E000E000E0017
:1008C0000E000FF00E380E380E380E380E380E3877
:1008D0001BF000000000000000000000000000000D
:1008E00000000FE01C701C701C001C001C701C70B1
:1008F0000FE0000000000000000000F80070007031
:1009000000700FF01C701C701C701C701C701C7030
:100910000FD80000000000000000000000000000F0
:1009200000000FE01C701C701FF01C001C701C707D
:100930000FE0000000000000000003E007700770F7
:10094000070007001FE01FE007000700070007007F
:100950001FC00000000000000000000000000000B8
:1009600000000FD81C701C701C701C700FF007F07A
:1009700000701C700FE0000000001E000E000E0052
:100980000E000EF00F380F380E380E380E380E38B5
:100990001E38000000000000000001C001C001C0BE
:1009A00000000FC001C001C001C001C001C001C0F2
:1009B0000FF80000000000000000007000700070E0
:1009C000000003F000700070007000700070007094
:1009D0001C700CF007E0000000001E000E000E006E
:1009E0000E000E380E700EE00FC00EE00E700E38C6
:1009F0001E3800000000000000000FC001C001C050
:100A000001C001C001C001C001C001C001C001C0DE
:100A10000FF80000000000000000000000000000CF
:100A200000001FF81C9C1C9C1C9C1C9C1C9C1C9C5F
:100A30001C9C0000000000000000000000000000FE
:100A400000001FE01C701C701C701C701C701C705F
:100A50001C7000000000000000000000000000000A
:100A600000000FE01C701C701C701C701C701C704F
:100A70000FE0000000000000000000000000000087
:100A800000001BF00E380E380E380E380E380FF0FE
:100A90000E000E001F00000000000000000000001B
:100AA00000001FB038E038E038E038E038E01FE000
:100AB00000E000E001F00000000000000000000085
:100AC00000001EF00FF80F380E000E000E000E0092
:100AD0001F000000000000000000000000000000F7
:100AE00000000FE01C301C300F8003E018701870FD
:100AF0000FE0000000000000000000000100030003
:100B000007001FF0070007000700070007700770C5
:100B100003E00000000000000000000000000000F2
:100B200000001C701C701C701C701C701C701C70F1
:100B30000FD80000000000000000000000000000CE
:100B400000001C701C701C701C701C700EE007C034
:100B50000380000000000000000000000000000012
:100B600000001C1C1C1C1C1C1C9C1C9C0FF80770EF
:100B700007700000000000000000000000000000FE
:100B800000001CE01CE00FC0078007800FC01CE0C5
:100B90001CE0000000000000000000000000000059
:100BA00000000E380E380E380E380E3807F003E00D
:100BB00000E001C01F8000000000000000000000F5
:100BC00000001FE018E011C0038007000E201C6029
:100BD0001FE0000000000000000001F80380038017
:100BE000038007001C001C000700038003800380B3
:100BF00001F800000000000001C001C001C001C0F8
:100C000001C001C001C001C001C001C001C001C0DC
:100C100001C001C00000000000001F8001C001C031
:100C200001C000E00038003800E001C001C001C090
:100C30001F8000000000000000001F1C3B9C39DCEE
:100C400038F8000000000000000000000000000074
:100C5000000000000000CB0911241FBECFE5D4E046
:100C6000DEBFCDBF20E0A4E6B0E001C01D92A738F2
:100C7000B207E1F710E0A0E6B0E0E8EAF8E202C06F
:100C800005900D92A436B107D9F716E0CCE2D6E074
:100C900004C02197FE010E94E113CB32D107C9F7AE
:100CA0000E94B2090C9452140C940000A5B3BA2F00
:100CB0006894A6F9E894B6F9FB01059007FA1EF4CA
:100CC00042BB5BBB02C022BB3BBBB5BBA5BB06FAAC
:100CD0001EF442BB5BBB02C022BB3BBBB5BBA5BB8A
:100CE00005FA1EF442BB5BBB02C022BB3BBBB5BBDB
:100CF000A5BB04FA1EF442BB5BBB02C022BB3BBBDC
:100D0000B5BBA5BB03FA1EF442BB5BBB02C022BB52
:100D10003BBBB5BBA5BB02FA1EF442BB5BBB02C02A
:100D200022BB3BBBB5BBA5BB01FA1EF442BB5BBB00
:100D300002C022BB3BBBB5BBA5BB00FA1EF442BB45
:100D40005BBB02C022BB3BBBB5BBA5BB8150904087
:100D50008030910511F00C945D060895A5B3BA2F6B
:100D60006894A6F9E894B6F9FB0105900BBA0590D2
:100D700002BAB5BBA5BB815090408030910511F0FF
:100D80000C94B5060895A5B3BA2F6894A6F9E89413
:100D9000B6F9FC01112425912030A9F027FB56F467
:100DA0002F7705900BBA059002BAB5BBA5BB2A9563
:100DB000E1F7F1CF05900BBA059002BAB5BBA5BB20
:100DC0002A95C1F7E8CF00240895222786957795C4
:100DD00067952795769567952795769567952795D5
:100DE0007695679527952295CB01E5B3FE2F6894FC
:100DF000E6F9E894F6F9009711F1F5BBE5BBF5BB10
:100E0000E5BBF5BBE5BBF5BBE5BBF5BBE5BBF5BBA2
:100E1000E5BBF5BBE5BBF5BBE5BBF5BBE5BBF5BB92
:100E2000E5BBF5BBE5BBF5BBE5BBF5BBE5BBF5BB82
:100E3000E5BBF5BBE5BBF5BBE5BB0197F1F62030A3
:100E400021F0F5BBE5BB2A95E1F70895AE98AE9A7F
:100E50006150704080409040C9F70895AF981124C8
:100E600082BB1BBAAE98AE9A0895AF9A62BB8BBB99
:100E7000AE98AE9A0895AF9A112482BB1BBAAE9871
:100E8000AE9A0895AF98112482BB1BBAAE98AE9A61
:100E9000AF9A62BB7BBBAE98AE9A08958BBB62BB28
:100EA000AE98AE9A0895019739F46F3F7F4F21F4C1
:100EB00084E790E00E94F90A0895B39902C081E0A6
:100EC000089580E00895CF92DF92EF92FF9280E93B
:100ED0000E94E1090E94E609682F70E080E090E03E
:100EE0000E94D01120E030E040EF52E40E94261131
:100EF00020E030E040EA53E40E94BF1220E030E0FE
:100F000040E751E40E94AF106B017C0180E00E9439
:100F1000E1098FEF97E40197F1F700C00000C701E6
:100F2000B6010E949F11CB01FF90EF90DF90CF9010
:100F30000895CF92DF92EF92FF92C12CD12C7601CF
:100F400020E030E0A901C701B6010E941C1118166B
:100F5000ECF080ED0E94E1090E94E609682F70E044
:100F600080E090E00E94D01120E030E040EF52E4B9
:100F70000E94261120E030E040E753E40E94BF12B7
:100F80006B017C0180E00E94E109DACF8FEF97E4EA
:100F90000197F1F700C00000C701B6010E949F1140
:100FA000CB01FF90EF90DF90CF900895CF93C0E0FA
:100FB000C03108F50E9442148F709078992334F460
:100FC0000197806F9F6F019601C080E0282F30E06D
:100FD000F901EC59FF4F9081992321F08F5F803107
:100FE000A8F3F3CFF901EC59FF4F8C2F87708F5F77
:100FF0008083CF5FDDCFCF910895CF93DF930E94A1
:101000005D078823E1F30E946307EC010E949907C2
:101010009E01285231092733310530F4009721F021
:101020008833910508F497C0AE01455651094733FE
:10103000510530F4009721F08833910508F48DC0F4
:10104000BE01625A71096733710530F4009721F0CF
:101050008833910508F483C0CF5DD109C733D1052A
:1010600030F4009721F08833910508F47AC02733D3
:10107000310538F48E33910520F08537910508F459
:1010800072C04733510538F48E33910520F085370F
:10109000910508F46AC06733710538F48E33910501
:1010A00020F08537910508F462C0C733D10538F4C4
:1010B0008E33910520F08537910508F45AC0273307
:1010C000310538F48B37910520F0823B910508F407
:1010D00052C04733510538F48B37910520F0823BDD
:1010E000910508F44AC06733710538F48B379105D0
:1010F00020F0823B910508F442C0C733D10530F49B
:101100008B37910518F0823B9105D8F127333105D3
:1011100030F4883B910518F08F3E9105A0F14733DC
:10112000510530F4883B910518F08F3E910568F128
:101130006733710530F4883B910518F08F3E9105B7
:1011400030F1E79730F5883B910528F18F3E910506
:1011500020F180E023C081E021C082E01FC083E055
:101160001DC084E01BC085E019C086E017C087E081
:1011700015C088E013C089E011C08AE00FC08BE081
:101180000DC08CE00BC08DE009C08EE007C08FE081
:1011900005C080E003C080E001C080E1DF91CF9115
:1011A0000895CF92EF92FF920F931F93CF93C82F82
:1011B0002FEF4FEF6FEF84E790E00E94E90B62E7BB
:1011C00070E084E790E00E9494108C2F837081304F
:1011D00049F0823051F0833059F0882361F020E0EB
:1011E00030E00BC027E230E008C024E630E005C064
:1011F00021EA30E002C02EED30E08FEF8C0F84301A
:1012000078F08BEF8C0F843070F087EF8C0F843088
:1012100068F083EF8C0F843060F000E010E00BC0CA
:1012200000E010E008C00DE310E005C00AE710E0A0
:1012300002C007EB10E0EC2FF0E0ED59FF4F4081CA
:101240000C5E1F4F2C5E3F4F50E060E070E06894F2
:10125000CC24C5F8E12CF12C84E790E00E948C0F9F
:101260002FEF8FE794E0215080409040E1F700C0DD
:101270000000CF911F910F91FF90EF90CF900895B4
:101280000F931F9384E790E00E94B30B0E94D60750
:101290000FEE10E025E630E040E050E060E670E060
:1012A00084E790E00E94530B22EA30E040E050E0F7
:1012B0006DE970E084E790E00E94530B2FED30E081
:1012C00040E050E06AED70E084E790E00E94530B4C
:1012D0000DE310E026E131E048E350E067E270E022
:1012E00084E790E00E94530B0AE710E026E131E02A
:1012F00045E750E067E270E084E790E00E94530B1E
:1013000007EB10E026E131E042EB50E067E270E0ED
:1013100084E790E00E94530B1F910F910895C0E065
:101320000E94FD07282F30E0C1110DC00E94630705
:10133000EC010E9499078C0F9D1F0E9447140E9488
:101340004009C1E005C0232B19F0C1110E94D1084A
:101350002FEF8FE39BE0215080409040E1F700C0E9
:101360000000DECF87B3877F87BB0E94D20988B396
:101370008F7E88BB61E084E790E00E94310C62E7D9
:1013800070E084E790E00E94941084E790E00E946F
:10139000B30B0E948F096FEF7FEF81E090E00E9416
:1013A0005307089587B3806B87BB87B38F7B87BB59
:1013B00088B3806188BB81E58DB98EB18E7F8EB98F
:1013C00008958FB9779BFECF8FB108958FEF8FB9B6
:1013D000779BFECF8FB108958FEF81BB8ABB84B31B
:1013E000806884BB84B3806484BB84B3816084BB25
:1013F00087B3816087BB88B3816088BB84B3826018
:1014000084BB88B3826088BB87B3826087BB85B3A7
:10141000826085BB8FEF93E20197F1F700C0000077
:1014200085B38D7F85BB8FEF9BE60197F1F700C0F9
:10143000000085B3826085BB8FEF9BE60197F1F7D3
:1014400000C0000085B38E7F85BB61E070E080E066
:101450000E94420764EA78EA83E00E94420760E063
:1014600070E08CE00E9442076CE078E08DE00E9422
:10147000420760E07BE28EE00E94420767EB70E08B
:101480008EE10E9442076FE37BE281E00E94420707
:1014900060E076E082E00E94420760E070E080E178
:1014A0000E94420760E770E681E10E94420760E027
:1014B00070E085E00E94420760E070E086E00E94F4
:1014C00042076CE17FEE86E10E94420763E070E034
:1014D00087E10E94420763E372E087E00E944207CF
:1014E00060E070E08BE00E94420760E070E08FE017
:1014F0000E94420760E070E081E40E94420760E0E1
:1015000070E082E40E94420760E070E088E40E949C
:1015100042076FE371E089E40E94420760E070E0F7
:101520008AE40E94420760E070E08BE40E94420778
:1015300060E07FEE84E40E94420760E070E085E4B2
:101540000E9442076FE371E086E40E94420767E071
:1015500077E080E30E94420764E072E081E30E944A
:10156000420764E072E082E30E94420762E075E0B5
:1015700083E30E94420767E075E084E30E9442072C
:1015800064E072E085E30E94420764E072E086E373
:101590000E94420762E075E087E30E94420762E032
:1015A00073E08AE30E94420762E073E08BE30E94EB
:1015B000420760E070E083E20E94420760E070E072
:1015C00084E20E94420760E070E885E20E944207E0
:1015D00060E070E08FE40E94420760E070E08EE41B
:1015E0000E94420782E20E942E0785B3816085BB7C
:1015F00008954FEE50E060E070E0FC0145835683B3
:10160000678370874FE351E060E070E04187528765
:10161000638774870E94EC090895EF92FF920F93FD
:101620001F93CF93DF93EB01E42EF52EFC01448151
:10163000413089F481859285A385B485AC01461B30
:10164000570B821B930B202F312F042F152FCE2DDC
:10165000DF2DE82EF92E322F2227BE01620F731FD5
:1016600084E40E9442076E2D7F2D85E40E9442078C
:10167000602F712F86E40E944207BE018EE40E9413
:1016800042076E2D7F2D8FE40E94420782E20E9466
:101690002E0785B3806885BBDF91CF911F910F9195
:1016A000FF90EF9008958F929F92AF92BF92CF924A
:1016B000DF92EF92FF920F931F93CF93DF934C0132
:1016C0005B017A016901E8012617370724F48B2DA5
:1016D0005901C62ED82ECE15DF052CF49E2D8F2D48
:1016E0007E01C92FD82F85B38E7F85BB8E019601D1
:1016F000A701B501C4010E940D0BF40180818BBBD1
:10170000818182BB96012A193B09C901330FAA0BBB
:10171000BB0B9C01AD012F5F3F4F4F4F5F4FBE0191
:101720006E197F09CB01770FAA0BBB0BBC01CD0152
:101730006F5F7F4F8F4F9F4F0E947D130E94E50682
:101740008FEF82BB8BBB85B38E7F85BBDF91CF9143
:101750001F910F91FF90EF90DF90CF90BF90AF90CF
:101760009F908F90089585B38E7F85BB60E07FEE5C
:1017700084E40E94420760E070E085E40E94420732
:101780006FE371E086E40E94420760E070E08EE45F
:101790000E94420760E070E08FE40E94420768E721
:1017A00070E681E10E94420782E20E942E0785B323
:1017B000806885BB12BA1BBA60E07CE281E090E0F1
:1017C0000E94E5068FEF82BB8BBB85B38E7F85BB06
:1017D0000895E42FF0E0F595E795F595E795F595F3
:1017E000E795F595E795F595E795687FE62BDC019C
:1017F000EC934C7150E0440F551F440F551F440F9C
:10180000551F30E0359527953595279535952795C2
:10181000422B11964C930895E42FF0E0F595E7954F
:10182000F595E795F595E795F595E795F595E795A0
:10183000687FE62BDC011296EC9312974C7150E016
:10184000440F551F440F551F440F551F30E0359569
:1018500027953595279535952795422B13964C93CB
:101860000895CF93DF93EC016C832FEF4FEF6FEF71
:101870000E94E90B20E040E060E0CE010E940C0CE9
:101880001E861D86DF91CF910895872F0E94350710
:101890000895AF92BF92CF92DF92EF92FF920F9393
:1018A0001F93CF93DF93EC017A01890185B38E7F7B
:1018B00085BB8C81811169C02989862F90E0821BAC
:1018C00091094F85542F569556955695288930E0A5
:1018D000529FB001539F700D1124869F6001879F16
:1018E000D00C969FD00C112484E0C80ED11CC701E7
:1018F000840F911D200F311F590141E0A41AB10836
:1019000060E070E07FEF780F6E0D7F1D84E40E9431
:101910004207B80185E40E944207B50186E40E94AF
:101920004207B7018EE40E944207B8018FE40E948B
:10193000420760E770E681E10E94420782E20E946E
:101940002E0785B3806885BB2A8130E0322F22279D
:101950008B81282B488150E0542F44278981482BC4
:101960006D857E856C0D7D1D88899F85899FC00151
:10197000112499230CF4079695958795959587954D
:10198000959587950E9456066FC02989862F90E00D
:10199000821B91094F85542F569556955695288947
:1019A00030E0529FB001539F700D1124869F60015B
:1019B000879FD00C969FD00C112484E0C80ED11CB8
:1019C000C701840F911D0197200F311F49855A854A
:1019D0006B857C855A01AE18BF087A01E81AF90AAE
:1019E00060E070E07FEF720F600F711F84E40E946F
:1019F0004207B70185E40E944207B50186E40E94D0
:101A00004207B8018EE40E944207B5018FE40E94AC
:101A1000420768E570E681E10E94420782E20E9487
:101A20002E0785B3806885BB2A8130E0322F2227BC
:101A30008B81282B488150E0542F44278981482BE3
:101A40006D857E856C0D7D1D88899F85899FC00170
:101A5000112499230CF4079695958795959587956C
:101A6000959587950E94560685B3816085BBDF9169
:101A7000CF911F910F91FF90EF90DF90CF90BF908B
:101A8000AF9008952F923F924F925F926F927F9204
:101A90008F929F92AF92BF92CF92DF92EF92FF927E
:101AA0000F931F93CF93DF93CDB7DEB76B970FB62E
:101AB000F894DEBF0FBECDBF5C0169833A014901D6
:101AC0001F8B0E8BB701FF0C880B990B0E94D01156
:101AD00029E23CE54FE85CE30E94BF12698B7A8BF8
:101AE0008B8B9C8B85B38E7F85BBD50151968C915A
:101AF000B9812B2F30E0281B3109F50187858695A8
:101B0000869586959089899FC0011124289FA00100
:101B1000299F500D389F500D11249A012C5F3F4F83
:101B2000398F288F1D8AD50150968C91BD89B817A1
:101B300008F0FBC0412C512CF501878586958695D0
:101B40008695282F30E0421653060CF0E4C0058439
:101B5000F685E02D888D998D840D951DE80FF91F70
:101B60002490312C3A8E2B8EFA8DF83008F0CFC0AD
:101B70002F2E312CB201660F771F660F771F660F6D
:101B8000771F620D731DD5011F962C91EE89FF8979
:101B90002E9FC0012F9F900D1124680F791F072ED3
:101BA000000C880B990B0E94D01169837A838B8378
:101BB0009C8369897A898B899C890E9421116D8314
:101BC0007E838F8398879B01AC0169817A818B81A9
:101BD0009C810E94BF126B017C01FD896F2F70E018
:101BE00080E090E00E94D01169877A878B879C877C
:101BF00069897A898B899C890E942C136D877E87DD
:101C00008F87988B9B01AC0169857A858B859C8534
:101C10000E94BF129B01AC01C701B6010E94AF1028
:101C20006B017C01B301072C000C880B990B0E94FF
:101C3000D011A70196010E94B0100E9498116B016B
:101C40007C0129853A854B855C856D817E818F81FC
:101C500098850E94BF126D837E838F8398872D8520
:101C60003E854F85588969817A818B819C810E944C
:101C7000BF129B01AC016D817E818F8198850E948E
:101C8000B01069837A838B839C83B401092C000C88
:101C9000880B990B0E94D01129813A814B815C817C
:101CA0000E94B0100E9498118B010F5F1F4F960188
:101CB0002F5F3F4FAB01B601C5010E940D0B27E01E
:101CC00030E0221933094B8D842F90E002C09595A6
:101CD00087952A95E2F780FF0CC0D5016C9170E0E2
:101CE000762F662711968C91682BC5010E94450CB2
:101CF0000AC0F501628170E0762F66278381682B28
:101D0000C5010E94450CFA8DFF5FFA8F2DCF2FEF92
:101D1000421A520A11CF488D598D480F511D598FC3
:101D2000488F5D895F5F5D8BFECE85B3816085BB2B
:101D30006B960FB6F894DEBF0FBECDBFDF91CF918B
:101D40001F910F91FF90EF90DF90CF90BF90AF90D9
:101D50009F908F907F906F905F904F903F902F90CB
:101D600008952F923F924F925F926F927F928F923F
:101D70009F92AF92BF92CF92DF92EF92FF920F931A
:101D80001F93CF93DF93EC01FB015A0129016801F6
:101D9000DB010D900020E9F71197A61BB70B4D0151
:101DA0008C8181113EC04F30574281F44D815E815C
:101DB0006F8178852F852A9FC0012B9F900D11245C
:101DC000481B590B5A011FEFA11AB10A2EE0A216A7
:101DD00027E2B20609F061C04D815E816F8178858E
:101DE0004F5F5F4F6F4F7F4F2F852A9FC0012B9F03
:101DF000900D1124092E000CAA0BBB0B8A019B012C
:101E0000081B190B2A0B3B0BB901A80122F44F5FE9
:101E10005F4F6F4F7F4F75956795579547955A015F
:101E20003CC04F30574281F449855A856B857C858B
:101E30002F852A9FC0012B9F900D1124481B590B01
:101E40005A012FEFA21AB20A3EE0A31637E2B306F8
:101E500021F549855A856B857C854F5F5F4F6F4FB4
:101E60007F4F2F852A9FC0012B9F900D1124092E93
:101E7000000CAA0BBB0B8A019B01081B190B2A0B38
:101E80003B0BB901A80122F44F5F5F4F6F4F7F4FAB
:101E900075956795579547955A01612C712C681473
:101EA00079043CF5C114D10499F48F85869DA00175
:101EB000879D500D11244A0D5B1D1F011FEF211A34
:101EC000310A60819201CE010E94490CF1010DC0DE
:101ED0001F012FEF221A320A6081760183019201DD
:101EE000A501CE010E94420DF1013FEF631A730A72
:101EF000D6CFDF91CF911F910F91FF90EF90DF90A0
:101F0000CF90BF90AF909F908F907F906F905F9099
:101F10004F903F902F9008952F923F924F925F9253
:101F20006F927F928F929F92AF92BF92CF92DF92E9
:101F3000EF92FF920F931F93CF93DF93CDB7DEB74E
:101F4000E8970FB6F894DEBF0FBECDBF1C014A0163
:101F50005B013EAB2DAB18AF0FAB411551056105D1
:101F6000710549F5E114F10411F180E090E0970169
:101F700021503109821793074CF4EAE1F0E0EC0FAD
:101F8000FD1FE80FF91FC0820196F1CFEAE1F0E0F2
:101F9000EC0FFD1FE80FF91F20E320830196EAE113
:101FA000F0E0EC0FFD1FE80FF91F108298C080E3EE
:101FB0008A8F1B8E94C077235CF4B094A094909485
:101FC0008094811C911CA11CB11CDD24D39401C000
:101FD000D12C00E010E0181419041A041B043CF57D
:101FE0000F2EFAE04F2E512C612C712CF02DC501D3
:101FF000B401A30192010E94AF13E1E0F0E0EC0F05
:10200000FD1FE00FF11F20E3260F20830F5F1F4FFE
:10201000A5019401261B370B480B590BCA01B901C6
:10202000A30192010E94AF1349015A01D4CFE1E00C
:10203000F0E0EC0FFD1FE00FF11F1082DD2011F02A
:102040008DE28A8F2D2D30E0B801620F731F6E155F
:102050007F05D4F480E090E040E050E0F701E01B21
:10206000F10BE21BF30B8E179F0784F4FC01E20FC8
:10207000F31FAAE1B0E0AC0FBD1FEA0FFB1FC08247
:102080004F5F5F4F0196EACF40E050E0A0E0B0E044
:10209000A017B107DCF4FD01E20FF31F6F01C40EBE
:1020A000D51EC8018A1B9B0B0197E1E0F0E0EC0F05
:1020B000FD1F8E0F9F1FFC018081EAE1F0E0EC0F15
:1020C000FD1FEC0DFD1D80831196E2CF460F571FBB
:1020D000EAE1F0E0EC0FFD1FE40FF51F108200E0D5
:1020E00010E02FA938AD4DA95EA9BE01665E7F4FF5
:1020F000C1010E94B10EE8960FB6F894DEBF0FBE84
:10210000CDBFDF91CF911F910F91FF90EF90DF90A6
:10211000CF90BF90AF909F908F907F906F905F9087
:102120004F903F902F900895DC011E967C936E9304
:102130001D97FB0184911F968C931F973196E49114
:102140005096EC935097FB013296E4915196EC93A4
:102150005197FB013396649152966C9308955058B1
:10216000BB27AA270E94C7100C9471120E94381234
:1021700038F00E943F1220F039F49F3F19F426F402
:102180000C9435120EF4E095E7FB0C942F12E92F16
:102190000E94961258F3BA176207730784079507CF
:1021A00020F079F4A6F50C94B8120EF4E0950B2EFD
:1021B000BA2FA02D0B01B90190010C01CA01A00199
:1021C0001124FF27591B99F0593F50F4503E68F1F4
:1021D0001A16F040A22F232F342F4427585FF3CF35
:1021E000469537952795A795F0405395C9F77EF406
:1021F0001F16BA0B620B730B840BBAF09150A1F04F
:10220000FF0FBB1F661F771F881FC2F70EC0BA0FD4
:10221000621F731F841F48F4879577956795B7955C
:10222000F7959E3F08F0B0CF9395880F08F0992757
:10223000EE0F9795879508950E940B1208F481E0A0
:1022400008950E944812E3950C9482120E943A115C
:102250000C9471120E943F1258F00E94381240F004
:1022600029F45F3F29F00C942F1251110C94B912EC
:102270000C9435120E94961268F39923B1F35523FA
:1022800091F3951B550BBB27AA2762177307840789
:1022900038F09F5F5F4F220F331F441FAA1FA9F31F
:1022A00035D00E2E3AF0E0E832D091505040E6950D
:1022B000001CCAF72BD0FE2F29D0660F771F881F6E
:1022C000BB1F261737074807AB07B0E809F0BB0B61
:1022D000802DBF01FF2793585F4F3AF09E3F510575
:1022E00078F00C942F120C94B9125F3FE4F3983EEF
:1022F000D4F3869577956795B795F7959F5FC9F75E
:10230000880F911D9695879597F90895E1E0660FDE
:10231000771F881FBB1F621773078407BA0720F057
:10232000621B730B840BBA0BEE1F88F7E0950895C0
:102330000E949F116894B1110C94B91208950E94E3
:102340009E1288F09F5798F0B92F9927B751B0F097
:10235000E1F0660F771F881F991F1AF0BA95C9F729
:1023600014C0B13091F00E94B812B1E008950C94FD
:10237000B812672F782F8827B85F39F0B93FCCF3B0
:10238000869577956795B395D9F73EF490958095A6
:10239000709561957F4F8F4F9F4F0895E89409C0C6
:1023A00097FB3EF490958095709561957F4F8F4F88
:1023B0009F4F9923A9F0F92F96E9BB279395F6959E
:1023C000879577956795B795F111F8CFFAF4BB0F1C
:1023D00011F460FF1BC06F5F7F4F8F4F9F4F16C080
:1023E000882311F096E911C0772321F09EE8872F0A
:1023F000762F05C0662371F096E8862F70E060E0C6
:102400002AF09A95660F771F881FDAF7880F96953E
:10241000879597F90895990F0008550FAA0BE0E8E2
:10242000FEEF16161706E807F907C0F01216130696
:10243000E407F50798F0621B730B840B950B39F4D6
:102440000A2661F0232B242B252B21F408950A263C
:1024500009F4A140A6958FEF811D811D089597F97C
:102460009F6780E870E060E008959FEF80EC08953A
:1024700000240A9416161706180609060895002463
:102480000A94121613061406050608950C943512C4
:102490000E949E12D8F3E894E0E0BB279F57F0F02B
:1024A0002AED3FE049EC06C0EE0FBB0F661F771F19
:1024B000881F28F0B23A62077307840728F0B25ADF
:1024C000620B730B840BE3959A9572F7803830F4A6
:1024D0009A95BB0F661F771F881FD2F790480C9400
:1024E0003613092E0394000C11F4882352F0BB0F0D
:1024F00040F4BF2B11F460FF04C06F5F7F4F8F4F1C
:102500009F4F0895EF93E0FF07C0A2EA2AED3FE056
:1025100049EC5FEB0E94C7100E9471120F90039468
:1025200001FC9058E4E5F0E00C94421357FD9058FC
:10253000440F551F59F05F3F71F04795880F97FB87
:10254000991F61F09F3F79F0879508951216130641
:102550001406551FF2CF4695F1DF08C01616170670
:102560001806991FF1CF86957105610508940895A5
:10257000E894BB2766277727CB0197F908950E9437
:10258000D2120C9471120E94381238F00E943F123D
:1025900020F0952311F00C942F120C943512112475
:1025A0000C94B9120E94961270F3959FC1F3950F87
:1025B00050E0551F629FF001729FBB27F00DB11DC7
:1025C000639FAA27F00DB11DAA1F649F6627B00D57
:1025D000A11D661F829F2227B00DA11D621F739F40
:1025E000B00DA11D621F839FA00D611D221F749F4E
:1025F0003327A00D611D231F849F600D211D822F95
:10260000762F6A2F11249F5750409AF0F1F08823BB
:102610004AF0EE0FFF1FBB1F661F771F881F9150E8
:102620005040A9F79E3F510580F00C942F120C9456
:10263000B9125F3FE4F3983ED4F38695779567959A
:10264000B795F795E7959F5FC1F7FE2B880F911D12
:102650009695879597F908959F930E9448120F9039
:1026600007FCEE5F0C9482129F3F31F0915020F4F2
:10267000879577956795B795880F911D969587955E
:1026800097F908959F938F937F936F93FF93EF93A1
:102690009B01AC010E94BF12EF91FF910E94561363
:1026A0002F913F914F915F910C94BF12DF93CF9385
:1026B0001F930F93FF92EF92DF927B018C0168943E
:1026C00006C0DA2EEF010E94D212FE01E894A59115
:1026D0002591359145915591A6F3EF010E94C710C0
:1026E000FE019701A801DA9469F7DF90EF90FF905F
:1026F0000F911F91CF91DF910895DB018F939F93ED
:102700000E94CE13BF91AF91A29F800D911DA39FF8
:10271000900DB29F900D11240895A1E21A2EAA1BCC
:10272000BB1BFD010DC0AA1FBB1FEE1FFF1FA21781
:10273000B307E407F50720F0A21BB30BE40BF50B7E
:10274000661F771F881F991F1A9469F76095709507
:10275000809590959B01AC01BD01CF010895052E98
:1027600097FB1EF400940E94C61357FD07D00E94E9
:102770008D1307FC03D04EF40C94C613509540956E
:10278000309521953F4F4F4F5F4F0895909580951D
:10279000709561957F4F8F4F9F4F08950E94E7136B
:1027A000A59F900DB49F900DA49F800D911D1124A5
:1027B0000895B7FF0C94CE130E94CE13821B930B87
:1027C0000895EE0FFF1F0590F491E02D0994A29F4C
:1027D000B001B39FC001A39F700D811D1124911DF5
:1027E000B29F700D811D1124911D08958F929F92AB
:1027F000AF92BF92CF92DF92EF92FF92CF93DF938F
:10280000EC01688179818A819B816115710581055F
:10281000910521F464E279ED8BE597E02DE133EF4A
:1028200041E050E00E94AF1349015A019B01AC0105
:10283000A7EAB1E40E94CE136B017C01ACEEB4EFC9
:10284000A50194010E94DC13DC01CB018C0D9D1DC0
:10285000AE1DBF1DB7FF03C00197A109B048888313
:102860009983AA83BB839F77DF91CF91FF90EF90ED
:10287000DF90CF90BF90AF909F908F9008950E946F
:10288000F613089580E690E00E94F6130895A0E004
:10289000B0E08093600090936100A0936200B093D9
:0828A00063000895F894FFCFD6
:0428A800010000002B
:00000001FF
